{
	"data": {
		"bytecode": {
			"linkReferences": {},
			"object": "60a060405262000014426301e1338062000322565b5f90815560098054610100600160a81b031916905560408051918252602082019081905290516200004891600b91620002a4565b5034801562000055575f80fd5b506040516200636838038062006368833981016040819052620000789162000406565b6001600160a01b038416608052836200009130620000d9565b506200009d3362000172565b6007620000ab84826200052f565b506008620000ba83826200052f565b506009805460ff191660ff9290921691909117905550620005f7915050565b6200016f816200016960408051610100810182525f80825260208201819052918101829052606081018290526080810182905260a0810182905260c0810182905260e08101919091525060408051610100810182526001808252602082018190529181018290525f60608201819052608082019290925260a0810182905260c0810182905260e081019190915290565b620001ad565b50565b6001600160a01b0316638b78c6d819819055805f7f8be0079c531659141344cd1fd0a4f28419497f9722a3daafe3b4186f6b6457e08180a350565b805115156001609f1b83161515141580620001d65750602081015115156001609e1b8316151514155b80620001f05750604081015115156001609d1b8316151514155b806200020a5750606081015115156001609c1b8316151514155b80620002245750608081015115156001609b1b8316151514155b806200023e575060a081015115156001609a1b8316151514155b8062000258575060c08101511515600160991b8316151514155b8062000272575060e08101511515600160981b8316151514155b15620002a057604051630732d7b560e51b81526001600160a01b038316600482015260240160405180910390fd5b5050565b828054828255905f5260205f20908101928215620002fa579160200282015b82811115620002fa57825182546001600160a01b0319166001600160a01b03909116178255602090920191600190910190620002c3565b50620003089291506200030c565b5090565b5b8082111562000308575f81556001016200030d565b808201808211156200034257634e487b7160e01b5f52601160045260245ffd5b92915050565b634e487b7160e01b5f52604160045260245ffd5b5f82601f8301126200036c575f80fd5b81516001600160401b038082111562000389576200038962000348565b604051601f8301601f19908116603f01168101908282118183101715620003b457620003b462000348565b81604052838152602092508683858801011115620003d0575f80fd5b5f91505b83821015620003f35785820183015181830184015290820190620003d4565b5f93810190920192909252949350505050565b5f805f80608085870312156200041a575f80fd5b84516001600160a01b038116811462000431575f80fd5b60208601519094506001600160401b03808211156200044e575f80fd5b6200045c888389016200035c565b9450604087015191508082111562000472575f80fd5b5062000481878288016200035c565b925050606085015160ff8116811462000498575f80fd5b939692955090935050565b600181811c90821680620004b857607f821691505b602082108103620004d757634e487b7160e01b5f52602260045260245ffd5b50919050565b601f8211156200052a575f81815260208120601f850160051c81016020861015620005055750805b601f850160051c820191505b81811015620005265782815560010162000511565b5050505b505050565b81516001600160401b038111156200054b576200054b62000348565b62000563816200055c8454620004a3565b84620004dd565b602080601f83116001811462000599575f8415620005815750858301515b5f19600386901b1c1916600185901b17855562000526565b5f85815260208120601f198616915b82811015620005c957888601518255948401946001909101908401620005a8565b5085821015620005e757878501515f19600388901b60f8161c191681555b5050505050600190811b01905550565b608051615cbe620006aa5f395f81816104a8015281816106d5015281816107c40152818161088f01528181610953015281816109d201528181610ab101528181610b4801528181610c0501528181610c8e01528181610fb80152818161109e0152818161116a01528181611219015281816112cd015281816113650152818161140d015281816114960152818161153c015281816115a2015281816118d00152818161194d0152611a8e0152615cbe5ff3fe6080604052600436106200019e575f3560e01c80638da5cb5b11620000de578063dc4c90d31162000092578063f2fde38b116200006a578063f2fde38b14620004e1578063fc2b8cc314620004f8578063fe9a6f45146200050f578063fee81cf41462000533575f80fd5b8063dc4c90d31462000495578063e1b4af691462000477578063f04e283e14620004ca575f80fd5b80638da5cb5b14620003cc5780639d76ea5814620003fa578063a910f80f1462000420578063ab6291fe1462000444578063b47b2fb11462000239578063b6a8b0fa1462000477575f80fd5b80633440d8201162000152578063575e24b4116200012a578063575e24b414620002d3578063612c39b714620002f7578063715018a6146200039e57806371e1635914620003a8575f80fd5b80633440d820146200029b578063439370b114620002bf57806354d1f13d14620002c9575f80fd5b806301339c2114620001aa5780631ea4887014620001c3578063251c1aa3146200020a57806325692962146200022f57806330b7cdef146200023957806333b50f8a1462000277575f80fd5b36620001a657005b5f80fd5b348015620001b6575f80fd5b50620001c162000568565b005b348015620001cf575f80fd5b50620001f5620001e1366004620020f1565b600a6020525f908152604090205460ff1681565b60405190151581526020015b60405180910390f35b34801562000216575f80fd5b50620002205f5481565b60405190815260200162000201565b620001c16200066b565b34801562000245575f80fd5b506200025d620002573660046200217f565b620006b8565b6040516001600160e01b0319909116815260200162000201565b34801562000283575f80fd5b50620002206200029536600462002315565b620006d2565b348015620002a7575f80fd5b506200025d620002b9366004620023a4565b62000d2d565b620001c162000d4a565b620001c162000edc565b348015620002df575f80fd5b506200025d620002f136600462002425565b62000f15565b34801562000303575f80fd5b506200038f60408051610100810182525f80825260208201819052918101829052606081018290526080810182905260a0810182905260c0810182905260e08101919091525060408051610100810182526001808252602082018190529181018290525f60608201819052608082019290925260a0810182905260c0810182905260e081019190915290565b60405162000201919062002487565b620001c162000f9e565b348015620003b4575f80fd5b5062000220620003c636600462002513565b62000fb5565b348015620003d8575f80fd5b50638b78c6d819545b6040516001600160a01b03909116815260200162000201565b34801562000406575f80fd5b50600954620003e19061010090046001600160a01b031681565b3480156200042c575f80fd5b506200025d6200043e36600462002597565b62001577565b34801562000450575f80fd5b5062000468620004623660046200260d565b62001595565b60405162000201919062002695565b34801562000483575f80fd5b506200025d62000257366004620026a9565b348015620004a1575f80fd5b50620003e17f000000000000000000000000000000000000000000000000000000000000000081565b620001c1620004db366004620020f1565b62001685565b620001c1620004f2366004620020f1565b620016c4565b34801562000504575f80fd5b50620001c162001751565b3480156200051b575f80fd5b506200025d6200052d36600462002425565b62001821565b3480156200053f575f80fd5b506200022062000551366004620020f1565b63389a75e1600c9081525f91909152602090205490565b62000572620018b3565b60095461010090046001600160a01b031615620005ac5760405162461bcd60e51b8152600401620005a39062002709565b60405180910390fd5b5f4711620005f65760405162461bcd60e51b815260206004820152601660248201527511985a5c951c9859194e88139bc8115512081cd95b9d60521b6044820152606401620005a3565b6009546040515f9160079160089160ff16906200061390620020b2565b6200062193929190620027e7565b604051809103905ff0801580156200063b573d5f803e3d5ffd5b5060098054610100600160a81b0319166101006001600160a01b03841602179055905062000668620018ce565b50565b5f6202a30067ffffffffffffffff164201905063389a75e1600c52335f52806020600c2055337fdbf36a107da19e49527a7176a1babf963b4b0ff8cde35ee35d6cd8f1f9ac7e1d5f80a250565b5f604051630a85dc2960e01b815260040160405180910390fd5b5f7f00000000000000000000000000000000000000000000000000000000000000006001600160a01b031663f3cd914c85856040516020016200071f9060208082525f9082015260400190565b6040516020818303038152906040526040518463ffffffff1660e01b81526004016200074e9392919062002866565b6020604051808303815f875af11580156200076b573d5f803e3d5ffd5b505050506040513d601f19601f82011682018060405250810190620007919190620028bc565b83519091501562000a6e575f620007a88260801c90565b600f0b1315620009c45783516001600160a01b03166200087d577f00000000000000000000000000000000000000000000000000000000000000006001600160a01b0316636a256b29620007fc8360801c90565b86516040516001600160e01b031960e085901b1681526001600160a01b0390911660048201526001600160801b03919091169060240160206040518083038185885af11580156200084f573d5f803e3d5ffd5b50505050506040513d601f19601f82011682018060405250810190620008769190620028bc565b50620009c4565b83516001600160a01b031663a9059cbb7f0000000000000000000000000000000000000000000000000000000000000000620008b98460801c90565b6040516001600160e01b031960e085901b1681526001600160a01b0390921660048301526001600160801b031660248201526044016020604051808303815f875af11580156200090b573d5f803e3d5ffd5b505050506040513d601f19601f82011682018060405250810190620009319190620028d4565b508351604051636a256b2960e01b81526001600160a01b0391821660048201527f000000000000000000000000000000000000000000000000000000000000000090911690636a256b29906024016020604051808303815f875af11580156200099c573d5f803e3d5ffd5b505050506040513d601f19601f82011682018060405250810190620009c29190620028bc565b505b5f81600f0b121562000a68577f00000000000000000000000000000000000000000000000000000000000000006001600160a01b0316630b0d9c0985602001518462000a0d8590565b62000a189062002906565b6040518463ffffffff1660e01b815260040162000a389392919062002936565b5f604051808303815f87803b15801562000a50575f80fd5b505af115801562000a63573d5f803e3d5ffd5b505050505b62000d26565b5f81600f0b131562000c765760208401516001600160a01b031662000b33576020840151604051636a256b2960e01b81526001600160a01b0391821660048201527f000000000000000000000000000000000000000000000000000000000000000090911690636a256b29906001600160801b0384169060240160206040518083038185885af115801562000b05573d5f803e3d5ffd5b50505050506040513d601f19601f8201168201806040525081019062000b2c9190620028bc565b5062000c76565b60208401516001600160a01b031663a9059cbb7f0000000000000000000000000000000000000000000000000000000000000000836040516001600160e01b031960e085901b1681526001600160a01b0390921660048301526001600160801b031660248201526044016020604051808303815f875af115801562000bba573d5f803e3d5ffd5b505050506040513d601f19601f8201168201806040525081019062000be09190620028d4565b506020840151604051636a256b2960e01b81526001600160a01b0391821660048201527f000000000000000000000000000000000000000000000000000000000000000090911690636a256b29906024016020604051808303815f875af115801562000c4e573d5f803e3d5ffd5b505050506040513d601f19601f8201168201806040525081019062000c749190620028bc565b505b5f62000c828260801c90565b600f0b121562000d26577f00000000000000000000000000000000000000000000000000000000000000006001600160a01b0316630b0d9c09855f01518462000ccb8560801c90565b62000cd69062002906565b6040518463ffffffff1660e01b815260040162000cf69392919062002936565b5f604051808303815f87803b15801562000d0e575f80fd5b505af115801562000d21573d5f803e3d5ffd5b505050505b9392505050565b5f62000d3862001b4f565b506301a206c160e51b95945050505050565b60095461010090046001600160a01b03161562000d7b5760405162461bcd60e51b8152600401620005a39062002709565b5f341162000dc55760405162461bcd60e51b815260206004820152601660248201527511985a5c951c9859194e88139bc8115512081cd95b9d60521b6044820152606401620005a3565b346703782dace9d900001462000e1e5760405162461bcd60e51b815260206004820152601d60248201527f4661697254726164653a204d7573742073656e6420302e3235204554480000006044820152606401620005a3565b335f908152600a602052604090205460ff161562000e7f5760405162461bcd60e51b815260206004820152601960248201527f4661697254726164653a20416c72656164792066756e646564000000000000006044820152606401620005a3565b335f818152600a60205260408120805460ff19166001908117909155600b805491820181559091527f0175b7a638427703f0dbe7bb9bbf987a2551717b34e79f33b5b1008d1fa01db90180546001600160a01b0319169091179055565b63389a75e1600c52335f525f6020600c2055337ffa7b8eab7da67f412cc9575ed43464468f9bfbae89d1675917346ca6d8fe3c925f80a2565b335f908152600a602052604081205460ff161562000f8c575f5442101562000f8c5760405162461bcd60e51b815260206004820152602360248201527f4661697254726164653a2046756e646572732063616e6e6f74207472616465206044820152621e595d60ea1b6064820152608401620005a3565b506315d7892d60e21b95945050505050565b62000fa8620018b3565b62000fb35f62001c62565b565b5f7f00000000000000000000000000000000000000000000000000000000000000006001600160a01b03166361ae449a8585604051602001620010029060208082525f9082015260400190565b6040516020818303038152906040526040518463ffffffff1660e01b8152600401620010319392919062002962565b6020604051808303815f875af11580156200104e573d5f803e3d5ffd5b505050506040513d601f19601f82011682018060405250810190620010749190620028bc565b90505f620010828260801c90565b600f0b13156200128a5783516001600160a01b031662001157577f00000000000000000000000000000000000000000000000000000000000000006001600160a01b0316636a256b29620010d68360801c90565b86516040516001600160e01b031960e085901b1681526001600160a01b0390911660048201526001600160801b03919091169060240160206040518083038185885af115801562001129573d5f803e3d5ffd5b50505050506040513d601f19601f82011682018060405250810190620011509190620028bc565b506200128a565b83516001600160a01b03166323b872dd837f0000000000000000000000000000000000000000000000000000000000000000620011948560801c90565b6040518463ffffffff1660e01b8152600401620011b49392919062002936565b6020604051808303815f875af1158015620011d1573d5f803e3d5ffd5b505050506040513d601f19601f82011682018060405250810190620011f79190620028d4565b508351604051636a256b2960e01b81526001600160a01b0391821660048201527f000000000000000000000000000000000000000000000000000000000000000090911690636a256b29906024016020604051808303815f875af115801562001262573d5f803e3d5ffd5b505050506040513d601f19601f82011682018060405250810190620012889190620028bc565b505b5f81600f0b13156200147e5760208401516001600160a01b03166200134f576020840151604051636a256b2960e01b81526001600160a01b0391821660048201527f000000000000000000000000000000000000000000000000000000000000000090911690636a256b29906001600160801b0384169060240160206040518083038185885af115801562001321573d5f803e3d5ffd5b50505050506040513d601f19601f82011682018060405250810190620013489190620028bc565b506200147e565b60208401516001600160a01b03166323b872dd837f0000000000000000000000000000000000000000000000000000000000000000846040518463ffffffff1660e01b8152600401620013a59392919062002936565b6020604051808303815f875af1158015620013c2573d5f803e3d5ffd5b505050506040513d601f19601f82011682018060405250810190620013e89190620028d4565b506020840151604051636a256b2960e01b81526001600160a01b0391821660048201527f000000000000000000000000000000000000000000000000000000000000000090911690636a256b29906024016020604051808303815f875af115801562001456573d5f803e3d5ffd5b505050506040513d601f19601f820116820180604052508101906200147c9190620028bc565b505b5f6200148a8260801c90565b600f0b12156200152e577f00000000000000000000000000000000000000000000000000000000000000006001600160a01b0316630b0d9c09855f015184620014d38560801c90565b620014de9062002906565b6040518463ffffffff1660e01b8152600401620014fe9392919062002936565b5f604051808303815f87803b15801562001516575f80fd5b505af115801562001529573d5f803e3d5ffd5b505050505b5f81600f0b121562000d26577f00000000000000000000000000000000000000000000000000000000000000006001600160a01b0316630b0d9c0985602001518462000ccb8590565b5f6200158262001c9f565b5063a910f80f60e01b9695505050505050565b6060336001600160a01b037f00000000000000000000000000000000000000000000000000000000000000001614620015e15760405163570c108560e11b815260040160405180910390fd5b5f80306001600160a01b03168585604051620015ff929190620029a9565b5f604051808303815f865af19150503d805f81146200163a576040519150601f19603f3d011682016040523d82523d5f602084013e6200163f565b606091505b50915091508115620016555791506200167f9050565b80515f0362001677576040516314815f4760e31b815260040160405180910390fd5b805160208201fd5b92915050565b6200168f620018b3565b63389a75e1600c52805f526020600c208054421115620016b657636f5e88185f526004601cfd5b5f9055620006688162001c62565b620016ce620018b3565b5f54421015620017305760405162461bcd60e51b815260206004820152602660248201527f4661697254726164653a204f776e6572736869702063616e6e6f74206368616e60448201526519d9481e595d60d21b6064820152608401620005a3565b8060601b6200174657637448fbae5f526004601cfd5b620006688162001c62565b335f908152600a602052604090205460ff16620017b15760405162461bcd60e51b815260206004820152601760248201527f4661697254726164653a204e6f7420612066756e6465720000000000000000006044820152606401620005a3565b60095461010090046001600160a01b031615620017e25760405162461bcd60e51b8152600401620005a39062002709565b335f818152600a6020526040808220805460ff19169055516703782dace9d900009082818181858883f1935050505015801562000668573d5f803e3d5ffd5b5f62001830638b78c6d8195490565b6001600160a01b03163303620018a1575f54421015620018a15760405162461bcd60e51b815260206004820152602560248201527f4661697254726164653a204f776e65722063616e6e6f74206368616e6765204c60448201526414081e595d60da1b6064820152608401620005a3565b5063fe9a6f4560e01b95945050505050565b638b78c6d81954331462000fb3576382b429005f526004601cfd5b7f0000000000000000000000000000000000000000000000000000000000000000604051620018fd90620020c0565b6001600160a01b039091168152602001604051809103905ff08015801562001927573d5f803e3d5ffd5b50600180546001600160a01b0319166001600160a01b03929092169190911790556040517f0000000000000000000000000000000000000000000000000000000000000000906200197890620020ce565b6001600160a01b039091168152602001604051809103905ff080158015620019a2573d5f803e3d5ffd5b50600280546001600160a01b03199081166001600160a01b039384161782556040805160a080820183525f808352600954610100900487166020808501829052610bb885870152603c606080870191909152306080968701819052600380548a169055600480546001600160b81b03191690941761017760a31b1762ffffff60b81b198116600f60ba1b179485905560058054909a16821790995587519586018852938552969098169783019790975262ffffff600160a01b88041693820193909352600160b81b90950490930b918401919091529082015262001a869062002042565b6006819055507f00000000000000000000000000000000000000000000000000000000000000006001600160a01b031663695c5bf56003600160601b60405160200162001add9060208082525f9082015260400190565b6040516020818303038152906040526040518463ffffffff1660e01b815260040162001b0c93929190620029fd565b6020604051808303815f875af115801562001b29573d5f803e3d5ffd5b505050506040513d601f19601f8201168201806040525081019062000668919062002a3a565b5f5b600b548110156200066857600a5f600b838154811062001b755762001b7562002a58565b5f9182526020808320909101546001600160a01b0316835282019290925260400190205460ff161562001c4d57600960019054906101000a90046001600160a01b03166001600160a01b03166340c10f19600b838154811062001bdc5762001bdc62002a58565b5f9182526020909120015460405160e083901b6001600160e01b03191681526001600160a01b039091166004820152683635c9adc5dea0000060248201526044015f604051808303815f87803b15801562001c35575f80fd5b505af115801562001c48573d5f803e3d5ffd5b505050505b8062001c598162002a6c565b91505062001b51565b638b78c6d81980546001600160a01b039092169182907f8be0079c531659141344cd1fd0a4f28419497f9722a3daafe3b4186f6b6457e05f80a355565b6009546040516340c10f1960e01b8152306004820152683635c9adc5dea0000060248201526101009091046001600160a01b0316906340c10f19906044015f604051808303815f87803b15801562001cf5575f80fd5b505af115801562001d08573d5f803e3d5ffd5b505060095460015460405163095ea7b360e01b81526001600160a01b039182166004820152683635c9adc5dea00000602482015261010090920416925063095ea7b391506044016020604051808303815f875af115801562001d6c573d5f803e3d5ffd5b505050506040513d601f19601f8201168201806040525081019062001d929190620028d4565b5060015447906001600160a01b031663555a473362001db360028462002a9b565b6003604051806060016040528062001dcc603c62002073565b60020b815260200162001de0603c62002097565b60020b815260200160028762001df7919062002a9b565b8152506040518463ffffffff1660e01b815260040162001e1992919062002abb565b60206040518083038185885af115801562001e36573d5f803e3d5ffd5b50505050506040513d601f19601f8201168201806040525081019062001e5d9190620028bc565b506001546001600160a01b031663555a473362001e7c600a8462002a9b565b60408051606081018252603b198152603c6020820152600391810162001ea4600a8862002a9b565b8152506040518463ffffffff1660e01b815260040162001ec692919062002abb565b60206040518083038185885af115801562001ee3573d5f803e3d5ffd5b50505050506040513d601f19601f8201168201806040525081019062001f0a9190620028bc565b506001546001600160a01b031663555a473362001f29600a8462002a9b565b60408051606081018252607719815260786020820152600391810162001f51600a8862002a9b565b8152506040518463ffffffff1660e01b815260040162001f7392919062002abb565b60206040518083038185885af115801562001f90573d5f803e3d5ffd5b50505050506040513d601f19601f8201168201806040525081019062001fb79190620028bc565b5060095460025460405163095ea7b360e01b81526001600160a01b039182166004820152683635c9adc5dea000006024820152610100909204169063095ea7b3906044016020604051808303815f875af115801562002018573d5f803e3d5ffd5b505050506040513d601f19601f820116820180604052508101906200203e9190620028d4565b5050565b5f8160405160200162002056919062002af4565b604051602081830303815290604052805190602001209050919050565b5f81600281900b620d89e719816200208f576200208f62002a87565b050292915050565b5f81600281900b620d89e8816200208f576200208f62002a87565b610f8f8062002b0583390190565b610edf8062003a9483390190565b611316806200497383390190565b6001600160a01b038116811462000668575f80fd5b5f6020828403121562002102575f80fd5b813562000d2681620020dc565b5f60a0828403121562002120575f80fd5b50919050565b5f6060828403121562002120575f80fd5b5f8083601f84011262002148575f80fd5b50813567ffffffffffffffff81111562002160575f80fd5b60208301915083602082850101111562002178575f80fd5b9250929050565b5f805f805f80610160878903121562002196575f80fd5b8635620021a381620020dc565b9550620021b488602089016200210f565b9450620021c58860c0890162002126565b9350610120870135925061014087013567ffffffffffffffff811115620021ea575f80fd5b620021f889828a0162002137565b979a9699509497509295939492505050565b6040516060810167ffffffffffffffff811182821017156200223a57634e487b7160e01b5f52604160045260245ffd5b60405290565b8060020b811462000668575f80fd5b5f60a0828403121562002260575f80fd5b60405160a0810181811067ffffffffffffffff821117156200229057634e487b7160e01b5f52604160045260245ffd5b6040529050808235620022a381620020dc565b81526020830135620022b581620020dc565b6020820152604083013562ffffff81168114620022d0575f80fd5b60408201526060830135620022e58162002240565b60608201526080830135620022fa81620020dc565b6080919091015292915050565b801515811462000668575f80fd5b5f805f8385036101208112156200232a575f80fd5b6200233686866200224f565b93506060609f19820112156200234a575f80fd5b50620023556200220a565b60a0850135620023658162002307565b815260c0850135602082015260e08501356200238181620020dc565b604082015291506101008401356200239981620020dc565b809150509250925092565b5f805f805f6101008688031215620023ba575f80fd5b8535620023c781620020dc565b9450620023d887602088016200210f565b935060c0860135620023ea81620020dc565b925060e086013567ffffffffffffffff81111562002406575f80fd5b620024148882890162002137565b969995985093965092949392505050565b5f805f805f61014086880312156200243b575f80fd5b85356200244881620020dc565b94506200245987602088016200210f565b93506200246a8760c0880162002126565b925061012086013567ffffffffffffffff81111562002406575f80fd5b5f610100820190508251151582526020830151151560208301526040830151151560408301526060830151151560608301526080830151620024cd608084018215159052565b5060a0830151620024e260a084018215159052565b5060c0830151620024f760c084018215159052565b5060e08301516200250c60e084018215159052565b5092915050565b5f805f83850361012081121562002528575f80fd5b6200253486866200224f565b93506060609f198201121562002548575f80fd5b50620025536200220a565b60a0850135620025638162002240565b815260c0850135620025758162002240565b602082015260e0850135604082015291506101008401356200239981620020dc565b5f805f805f806101208789031215620025ae575f80fd5b8635620025bb81620020dc565b9550620025cc88602089016200210f565b945060c0870135620025de81620020dc565b935060e0870135620025f08162002240565b925061010087013567ffffffffffffffff811115620021ea575f80fd5b5f80602083850312156200261f575f80fd5b823567ffffffffffffffff81111562002636575f80fd5b620026448582860162002137565b90969095509350505050565b5f81518084525f5b81811015620026765760208185018101518683018201520162002658565b505f602082860101526020601f19601f83011685010191505092915050565b602081525f62000d26602083018462002650565b5f805f805f806101208789031215620026c0575f80fd5b8635620026cd81620020dc565b9550620026de88602089016200210f565b945060c0870135935060e0870135925061010087013567ffffffffffffffff811115620021ea575f80fd5b6020808252601c908201527f4661697254726164653a20546f6b656e20616c72656164792073657400000000604082015260600190565b80545f90600181811c90808316806200275a57607f831692505b602080841082036200277a57634e487b7160e01b5f52602260045260245ffd5b83885260208801828015620027985760018114620027af57620027da565b60ff198716825285151560051b82019750620027da565b5f898152602090205f5b87811015620027d457815484820152908601908401620027b9565b83019850505b5050505050505092915050565b606081525f620027fb606083018662002740565b82810360208401526200280f818662002740565b91505060ff83166040830152949350505050565b80516001600160a01b03908116835260208083015182169084015260408083015162ffffff169084015260608083015160020b9084015260809182015116910152565b5f61012062002876838762002823565b8451151560a0840152602085015160c084015260408501516001600160a01b031660e08401526101008301819052620028b28184018562002650565b9695505050505050565b5f60208284031215620028cd575f80fd5b5051919050565b5f60208284031215620028e5575f80fd5b815162000d268162002307565b634e487b7160e01b5f52601160045260245ffd5b5f81600f0b6f7fffffffffffffffffffffffffffffff1981036200292e576200292e620028f2565b5f0392915050565b6001600160a01b0393841681529190921660208201526001600160801b03909116604082015260600190565b5f61012062002972838762002823565b8451600290810b60a08501526020860151900b60c0840152604085015160e084015280610100840152620028b28184018562002650565b818382375f9101908152919050565b80546001600160a01b0390811683526001820154808216602085015260a081901c62ffffff16604085015260b81c600290810b60608501529091015416608090910152565b62002a098185620029b8565b6001600160a01b03831660a082015260e060c082018190525f9062002a319083018462002650565b95945050505050565b5f6020828403121562002a4b575f80fd5b815162000d268162002240565b634e487b7160e01b5f52603260045260245ffd5b5f6001820162002a805762002a80620028f2565b5060010190565b634e487b7160e01b5f52601260045260245ffd5b5f8262002ab657634e487b7160e01b5f52601260045260245ffd5b500490565b610100810162002acc8285620029b8565b8251600290810b60a08401526020840151900b60c0830152604083015160e083015262000d26565b60a081016200167f82846200282356fe60a060405234801562000010575f80fd5b5060405162000f8f38038062000f8f83398101604081905262000033916200017a565b6200003e3362000081565b5f6200004b848262000285565b5060016200005a838262000285565b506002805460ff191660ff929092169190911790555080516020909101206080526200034d565b6001600160a01b0316638b78c6d819819055805f7f8be0079c531659141344cd1fd0a4f28419497f9722a3daafe3b4186f6b6457e08180a350565b634e487b7160e01b5f52604160045260245ffd5b5f82601f830112620000e0575f80fd5b81516001600160401b0380821115620000fd57620000fd620000bc565b604051601f8301601f19908116603f01168101908282118183101715620001285762000128620000bc565b8160405283815260209250868385880101111562000144575f80fd5b5f91505b8382101562000167578582018301518183018401529082019062000148565b5f93810190920192909252949350505050565b5f805f606084860312156200018d575f80fd5b83516001600160401b0380821115620001a4575f80fd5b620001b287838801620000d0565b94506020860151915080821115620001c8575f80fd5b50620001d786828701620000d0565b925050604084015160ff81168114620001ee575f80fd5b809150509250925092565b600181811c908216806200020e57607f821691505b6020821081036200022d57634e487b7160e01b5f52602260045260245ffd5b50919050565b601f82111562000280575f81815260208120601f850160051c810160208610156200025b5750805b601f850160051c820191505b818110156200027c5782815560010162000267565b5050505b505050565b81516001600160401b03811115620002a157620002a1620000bc565b620002b981620002b28454620001f9565b8462000233565b602080601f831160018114620002ef575f8415620002d75750858301515b5f19600386901b1c1916600185901b1785556200027c565b5f85815260208120601f198616915b828110156200031f57888601518255948401946001909101908401620002fe565b50858210156200033d57878501515f19600388901b60f8161c191681555b5050505050600190811b01905550565b608051610c226200036d5f395f81816104e7015261061b0152610c225ff3fe60806040526004361061011b575f3560e01c8063715018a61161009d578063d505accf11610062578063d505accf146102eb578063dd62ed3e1461030a578063f04e283e1461033e578063f2fde38b14610351578063fee81cf414610364575f80fd5b8063715018a6146102545780637ecebe001461025c5780638da5cb5b1461028d57806395d89b41146102b8578063a9059cbb146102cc575f80fd5b8063313ce567116100e3578063313ce567146101c75780633644e515146101e857806340c10f19146101fc57806354d1f13d1461021b57806370a0823114610223575f80fd5b806306fdde031461011f578063095ea7b31461014957806318160ddd1461017857806323b872dd1461019e57806325692962146101bd575b5f80fd5b34801561012a575f80fd5b50610133610395565b6040516101409190610a36565b60405180910390f35b348015610154575f80fd5b50610168610163366004610a9c565b610424565b6040519015158152602001610140565b348015610183575f80fd5b506805345cdf77eb68f44c545b604051908152602001610140565b3480156101a9575f80fd5b506101686101b8366004610ac4565b610473565b6101c5610497565b005b3480156101d2575f80fd5b5060025460405160ff9091168152602001610140565b3480156101f3575f80fd5b506101906104e4565b348015610207575f80fd5b506101c5610216366004610a9c565b610586565b6101c56105a4565b34801561022e575f80fd5b5061019061023d366004610afd565b6387a211a2600c9081525f91909152602090205490565b6101c56105dd565b348015610267575f80fd5b50610190610276366004610afd565b6338377508600c9081525f91909152602090205490565b348015610298575f80fd5b50638b78c6d819546040516001600160a01b039091168152602001610140565b3480156102c3575f80fd5b506101336105f0565b3480156102d7575f80fd5b506101686102e6366004610a9c565b6105ff565b3480156102f6575f80fd5b506101c5610305366004610b16565b610619565b348015610315575f80fd5b50610190610324366004610b83565b602052637f5e9f20600c9081525f91909152603490205490565b6101c561034c366004610afd565b6107c1565b6101c561035f366004610afd565b6107fe565b34801561036f575f80fd5b5061019061037e366004610afd565b63389a75e1600c9081525f91909152602090205490565b60605f80546103a390610bb4565b80601f01602080910402602001604051908101604052809291908181526020018280546103cf90610bb4565b801561041a5780601f106103f15761010080835404028352916020019161041a565b820191905f5260205f20905b8154815290600101906020018083116103fd57829003601f168201915b5050505050905090565b5f82602052637f5e9f20600c52335f52816034600c2055815f52602c5160601c337f8c5be1e5ebec7d5bd14f71427d1e84f3dd0314c0f7b2291e5b200ac8c7c3b92560205fa350600192915050565b5f61048f61048085610824565b61048985610824565b84610832565b949350505050565b5f6202a30067ffffffffffffffff164201905063389a75e1600c52335f52806020600c2055337fdbf36a107da19e49527a7176a1babf963b4b0ff8cde35ee35d6cd8f1f9ac7e1d5f80a250565b5f7f00000000000000000000000000000000000000000000000000000000000000008061051d57610513610395565b8051906020012090505b6040517f8b73c3c69bb8fe3d512ecc4cf759cc79239f7b179b0ffacaa9a75d522b39400f81528160208201527fc89efdaa54c0f20c7adf612882df0950f5a951637e0307cdcb4c672f298b8bc6604082015246606082015230608082015260a081209250505090565b61058e6108ec565b6105a061059a83610824565b82610906565b5050565b63389a75e1600c52335f525f6020600c2055337ffa7b8eab7da67f412cc9575ed43464468f9bfbae89d1675917346ca6d8fe3c925f80a2565b6105e56108ec565b6105ee5f610982565b565b6060600180546103a390610bb4565b5f61061261060c84610824565b836109bf565b9392505050565b7f00000000000000000000000000000000000000000000000000000000000000008061065157610647610395565b8051906020012090505b8442111561066657631a15a3cc5f526004601cfd5b6040518860601b60601c98508760601b60601c975065383775081901600e52885f526020600c2080547f8b73c3c69bb8fe3d512ecc4cf759cc79239f7b179b0ffacaa9a75d522b39400f83528360208401527fc89efdaa54c0f20c7adf612882df0950f5a951637e0307cdcb4c672f298b8bc6604084015246606084015230608084015260a08320602e527f6e71edae12b1b97f4d1f60370fef10105fa2faae0126114a169c64845d6126c983528a60208401528960408401528860608401528060808401528760a084015260c08320604e526042602c205f528660ff16602052856040528460605260208060805f60015afa8b3d511461076e5763ddafbaef5f526004601cfd5b0190556303faf4f960a51b88176040526034602c2087905587897f8c5be1e5ebec7d5bd14f71427d1e84f3dd0314c0f7b2291e5b200ac8c7c3b925602060608501a360405250505f606052505050505050565b6107c96108ec565b63389a75e1600c52805f526020600c2080544211156107ef57636f5e88185f526004601cfd5b5f90556107fb81610982565b50565b6108066108ec565b8060601b61081b57637448fbae5f526004601cfd5b6107fb81610982565b5f5a60a01b82179050919050565b5f8360601b33602052637f5e9f208117600c526034600c2080546001810115610870578085111561086a576313be252b5f526004601cfd5b84810382555b50506387a211a28117600c526020600c208054808511156108985763f4d678b85f526004601cfd5b84810382555050835f526020600c208381540181555082602052600c5160601c8160601c7fddf252ad1be2c89b69c2b068fc378daa952ba7f163c4a11628f55a4df523b3ef602080a3505060019392505050565b638b78c6d8195433146105ee576382b429005f526004601cfd5b6805345cdf77eb68f44c54818101818110156109295763e5cfe9575f526004601cfd5b806805345cdf77eb68f44c5550506387a211a2600c52815f526020600c208181540181555080602052600c5160601c5f7fddf252ad1be2c89b69c2b068fc378daa952ba7f163c4a11628f55a4df523b3ef602080a35050565b638b78c6d81980546001600160a01b039092169182907f8be0079c531659141344cd1fd0a4f28419497f9722a3daafe3b4186f6b6457e05f80a355565b5f6387a211a2600c52335f526020600c208054808411156109e75763f4d678b85f526004601cfd5b83810382555050825f526020600c208281540181555081602052600c5160601c337fddf252ad1be2c89b69c2b068fc378daa952ba7f163c4a11628f55a4df523b3ef602080a350600192915050565b5f6020808352835180828501525f5b81811015610a6157858101830151858201604001528201610a45565b505f604082860101526040601f19601f8301168501019250505092915050565b80356001600160a01b0381168114610a97575f80fd5b919050565b5f8060408385031215610aad575f80fd5b610ab683610a81565b946020939093013593505050565b5f805f60608486031215610ad6575f80fd5b610adf84610a81565b9250610aed60208501610a81565b9150604084013590509250925092565b5f60208284031215610b0d575f80fd5b61061282610a81565b5f805f805f805f60e0888a031215610b2c575f80fd5b610b3588610a81565b9650610b4360208901610a81565b95506040880135945060608801359350608088013560ff81168114610b66575f80fd5b9699959850939692959460a0840135945060c09093013592915050565b5f8060408385031215610b94575f80fd5b610b9d83610a81565b9150610bab60208401610a81565b90509250929050565b600181811c90821680610bc857607f821691505b602082108103610be657634e487b7160e01b5f52602260045260245ffd5b5091905056fea26469706673582212203c996e304e87467cf3756daf3f80cd75cf4b16460dd55bb1ab83ab445de76e5964736f6c6343000814003360a060405234801561000f575f80fd5b50604051610edf380380610edf83398101604081905261002e9161003f565b6001600160a01b031660805261006c565b5f6020828403121561004f575f80fd5b81516001600160a01b0381168114610065575f80fd5b9392505050565b608051610e106100cf5f395f818160480152818160d7015281816101e00152818161021b0152818161031f015281816103f3015281816104a001528181610555015281816105f00152818161069c0152818161073001526107cd0152610e105ff3fe608060405260043610610033575f3560e01c8063481c6a7514610037578063555a473314610087578063ab6291fe146100a8575b5f80fd5b348015610042575f80fd5b5061006a7f000000000000000000000000000000000000000000000000000000000000000081565b6040516001600160a01b0390911681526020015b60405180910390f35b61009a610095366004610a5d565b6100d4565b60405190815260200161007e565b3480156100b3575f80fd5b506100c76100c2366004610a91565b6101d3565b60405161007e9190610b4a565b5f7f00000000000000000000000000000000000000000000000000000000000000006001600160a01b031663815483196040518060600160405280336001600160a01b03168152602001868152602001858152506040516020016101389190610ba6565b6040516020818303038152906040526040518263ffffffff1660e01b81526004016101639190610b4a565b5f604051808303815f875af115801561017e573d5f803e3d5ffd5b505050506040513d5f823e601f3d908101601f191682016040526101a59190810190610bf9565b8060200190518101906101b89190610ca1565b90504780156101cc576101cc5f3383610876565b5092915050565b6060336001600160a01b037f00000000000000000000000000000000000000000000000000000000000000001614610209575f80fd5b5f61021683850185610cb8565b90505f7f00000000000000000000000000000000000000000000000000000000000000006001600160a01b03166361ae449a836020015184604001515f67ffffffffffffffff81111561026b5761026b61090e565b6040519080825280601f01601f191660200182016040528015610295576020820181803683370190505b506040518463ffffffff1660e01b81526004016102b493929190610d09565b6020604051808303815f875af11580156102d0573d5f803e3d5ffd5b505050506040513d601f19601f820116820180604052508101906102f49190610ca1565b90505f6103018260801c90565b600f0b131561050e576020820151516001600160a01b03166103d7577f00000000000000000000000000000000000000000000000000000000000000006001600160a01b0316636a256b296103568360801c90565b6020850151516040516001600160e01b031960e085901b1681526001600160a01b0390911660048201526001600160801b03919091169060240160206040518083038185885af11580156103ac573d5f803e3d5ffd5b50505050506040513d601f19601f820116820180604052508101906103d19190610ca1565b5061050e565b81602001515f01516001600160a01b03166323b872dd835f01517f000000000000000000000000000000000000000000000000000000000000000061041c8560801c90565b6040518463ffffffff1660e01b815260040161043a93929190610d56565b6020604051808303815f875af1158015610456573d5f803e3d5ffd5b505050506040513d601f19601f8201168201806040525081019061047a9190610d82565b50602082015151604051636a256b2960e01b81526001600160a01b0391821660048201527f000000000000000000000000000000000000000000000000000000000000000090911690636a256b29906024016020604051808303815f875af11580156104e8573d5f803e3d5ffd5b505050506040513d601f19601f8201168201806040525081019061050c9190610ca1565b505b5f81600f0b131561070a5760208083015101516001600160a01b03166105d3576020808301510151604051636a256b2960e01b81526001600160a01b0391821660048201527f000000000000000000000000000000000000000000000000000000000000000090911690636a256b29906001600160801b0384169060240160206040518083038185885af11580156105a8573d5f803e3d5ffd5b50505050506040513d601f19601f820116820180604052508101906105cd9190610ca1565b5061070a565b8160200151602001516001600160a01b03166323b872dd835f01517f00000000000000000000000000000000000000000000000000000000000000006106168590565b6040518463ffffffff1660e01b815260040161063493929190610d56565b6020604051808303815f875af1158015610650573d5f803e3d5ffd5b505050506040513d601f19601f820116820180604052508101906106749190610d82565b506020828101510151604051636a256b2960e01b81526001600160a01b0391821660048201527f000000000000000000000000000000000000000000000000000000000000000090911690636a256b29906024016020604051808303815f875af11580156106e4573d5f803e3d5ffd5b505050506040513d601f19601f820116820180604052508101906107089190610ca1565b505b5f6107158260801c90565b600f0b12156107b65760208201515182516001600160a01b037f00000000000000000000000000000000000000000000000000000000000000001691630b0d9c09916107618560801c90565b61076a90610da1565b6040518463ffffffff1660e01b815260040161078893929190610d56565b5f604051808303815f87803b15801561079f575f80fd5b505af11580156107b1573d5f803e3d5ffd5b505050505b5f81600f0b121561085157602082810151015182517f00000000000000000000000000000000000000000000000000000000000000006001600160a01b031691630b0d9c099161080585610da1565b6040518463ffffffff1660e01b815260040161082393929190610d56565b5f604051808303815f87803b15801561083a575f80fd5b505af115801561084c573d5f803e3d5ffd5b505050505b6040805160208101839052016040516020818303038152906040529250505092915050565b5f6001600160a01b0384166108b2575f805f8085875af19050806108ad57604051633d2cec6f60e21b815260040160405180910390fd5b610908565b60405163a9059cbb60e01b5f52836004528260245260205f60445f80895af13d15601f3d1160015f511416171691505f60605280604052508061090857604051633c9fd93960e21b815260040160405180910390fd5b50505050565b634e487b7160e01b5f52604160045260245ffd5b6040516060810167ffffffffffffffff811182821017156109455761094561090e565b60405290565b6001600160a01b038116811461095f575f80fd5b50565b8035600281900b8114610973575f80fd5b919050565b5f60a08284031215610988575f80fd5b60405160a0810181811067ffffffffffffffff821117156109ab576109ab61090e565b60405290508082356109bc8161094b565b815260208301356109cc8161094b565b6020820152604083013562ffffff811681146109e6575f80fd5b60408201526109f760608401610962565b60608201526080830135610a0a8161094b565b6080919091015292915050565b5f60608284031215610a27575f80fd5b610a2f610922565b9050610a3a82610962565b8152610a4860208301610962565b60208201526040820135604082015292915050565b5f806101008385031215610a6f575f80fd5b610a798484610978565b9150610a888460a08501610a17565b90509250929050565b5f8060208385031215610aa2575f80fd5b823567ffffffffffffffff80821115610ab9575f80fd5b818501915085601f830112610acc575f80fd5b813581811115610ada575f80fd5b866020828501011115610aeb575f80fd5b60209290920196919550909350505050565b5f5b83811015610b17578181015183820152602001610aff565b50505f910152565b5f8151808452610b36816020860160208601610afd565b601f01601f19169290920160200192915050565b602081525f610b5c6020830184610b1f565b9392505050565b80516001600160a01b03908116835260208083015182169084015260408083015162ffffff169084015260608083015160020b9084015260809182015116910152565b81516001600160a01b03168152602080830151610120830191610bcb90840182610b63565b506040838101518051600290810b60c08601526020820151900b60e0850152908101516101008401526101cc565b5f60208284031215610c09575f80fd5b815167ffffffffffffffff80821115610c20575f80fd5b818401915084601f830112610c33575f80fd5b815181811115610c4557610c4561090e565b604051601f8201601f19908116603f01168101908382118183101715610c6d57610c6d61090e565b81604052828152876020848701011115610c85575f80fd5b610c96836020830160208801610afd565b979650505050505050565b5f60208284031215610cb1575f80fd5b5051919050565b5f6101208284031215610cc9575f80fd5b610cd1610922565b8235610cdc8161094b565b8152610ceb8460208501610978565b6020820152610cfd8460c08501610a17565b60408201529392505050565b5f610120610d178387610b63565b8451600290810b60a08501526020860151900b60c0840152604085015160e084015280610100840152610d4c81840185610b1f565b9695505050505050565b6001600160a01b0393841681529190921660208201526001600160801b03909116604082015260600190565b5f60208284031215610d92575f80fd5b81518015158114610b5c575f80fd5b5f81600f0b6f7fffffffffffffffffffffffffffffff198103610dd257634e487b7160e01b5f52601160045260245ffd5b5f039291505056fea26469706673582212207e1e8682a1bd09cad4fcdcbc00f0e52a5f748cc5e49ce7321a129c8c092da36c64736f6c6343000814003360a060405234801561000f575f80fd5b5060405161131638038061131683398101604081905261002e9161003f565b6001600160a01b031660805261006c565b5f6020828403121561004f575f80fd5b81516001600160a01b0381168114610065575f80fd5b9392505050565b60805161121d6100f95f395f8181606e0152818160d7015281816101ee0152818161022901528181610308015281816103de0152818161048b015281816104f90152818161052c015281816105de0152818161066d015281816107010152818161079c01528181610849015281816108b7015281816108ea015281816109a001526109e3015261121d5ff3fe608060405260043610610033575f3560e01c80632229d0b414610037578063481c6a751461005d578063ab6291fe146100a8575b5f80fd5b61004a610045366004610d83565b6100d4565b6040519081526020015b60405180910390f35b348015610068575f80fd5b506100907f000000000000000000000000000000000000000000000000000000000000000081565b6040516001600160a01b039091168152602001610054565b3480156100b3575f80fd5b506100c76100c2366004610df4565b6101e1565b6040516100549190610ead565b5f7f00000000000000000000000000000000000000000000000000000000000000006001600160a01b031663815483196040518060a00160405280336001600160a01b03168152602001868152602001888152602001878152602001858152506040516020016101449190610f09565b6040516020818303038152906040526040518263ffffffff1660e01b815260040161016f9190610ead565b5f604051808303815f875af115801561018a573d5f803e3d5ffd5b505050506040513d5f823e601f3d908101601f191682016040526101b19190810190610f9a565b8060200190518101906101c4919061100c565b90504780156101d8576101d85f3383610a8e565b50949350505050565b6060336001600160a01b037f00000000000000000000000000000000000000000000000000000000000000001614610217575f80fd5b5f61022483850185611023565b90505f7f00000000000000000000000000000000000000000000000000000000000000006001600160a01b031663f3cd914c8360400151846060015185608001516040518463ffffffff1660e01b8152600401610283939291906110d7565b6020604051808303815f875af115801561029f573d5f803e3d5ffd5b505050506040513d601f19601f820116820180604052508101906102c3919061100c565b606083015151909150156106aa575f6102dc8260801c90565b600f0b13156105b357816020015160200151156104f7576040820151516001600160a01b03166103c2577f00000000000000000000000000000000000000000000000000000000000000006001600160a01b0316636a256b2961033f8360801c90565b6001600160801b031684604001515f01516040518363ffffffff1660e01b815260040161037b91906001600160a01b0391909116815260200190565b60206040518083038185885af1158015610397573d5f803e3d5ffd5b50505050506040513d601f19601f820116820180604052508101906103bc919061100c565b506105b3565b81604001515f01516001600160a01b03166323b872dd835f01517f00000000000000000000000000000000000000000000000000000000000000006104078560801c90565b6040518463ffffffff1660e01b815260040161042593929190611128565b6020604051808303815f875af1158015610441573d5f803e3d5ffd5b505050506040513d601f19601f820116820180604052508101906104659190611154565b50604082810151519051636a256b2960e01b81526001600160a01b0391821660048201527f000000000000000000000000000000000000000000000000000000000000000090911690636a256b29906024016020604051808303815f875af11580156104d3573d5f803e3d5ffd5b505050506040513d601f19601f820116820180604052508101906103bc919061100c565b7f00000000000000000000000000000000000000000000000000000000000000006001600160a01b031663f242432a835f01517f000000000000000000000000000000000000000000000000000000000000000085604001515f01516001600160a01b03166105668660801c90565b6040518563ffffffff1660e01b8152600401610585949392919061116f565b5f604051808303815f87803b15801561059c575f80fd5b505af11580156105ae573d5f803e3d5ffd5b505050505b5f81600f0b12156106a557602082015151156106605760408201516020015182516001600160a01b037f00000000000000000000000000000000000000000000000000000000000000001691630b0d9c0991845b610610906111ae565b6040518463ffffffff1660e01b815260040161062e93929190611128565b5f604051808303815f87803b158015610645575f80fd5b505af1158015610657573d5f803e3d5ffd5b50505050610a69565b60408201516020015182517f00000000000000000000000000000000000000000000000000000000000000006001600160a01b03169163c6c3bbe691610610856111ae565b610a69565b5f81600f0b131561096f57816020015160200151156108b5576040820151602001516001600160a01b031661077f57604080830151602001519051636a256b2960e01b81526001600160a01b0391821660048201527f000000000000000000000000000000000000000000000000000000000000000090911690636a256b29906001600160801b0384169060240160206040518083038185885af1158015610754573d5f803e3d5ffd5b50505050506040513d601f19601f82011682018060405250810190610779919061100c565b5061096f565b8160400151602001516001600160a01b03166323b872dd835f01517f00000000000000000000000000000000000000000000000000000000000000006107c28590565b6040518463ffffffff1660e01b81526004016107e093929190611128565b6020604051808303815f875af11580156107fc573d5f803e3d5ffd5b505050506040513d601f19601f820116820180604052508101906108209190611154565b50604082810151602001519051636a256b2960e01b81526001600160a01b0391821660048201527f000000000000000000000000000000000000000000000000000000000000000090911690636a256b29906024016020604051808303815f875af1158015610891573d5f803e3d5ffd5b505050506040513d601f19601f82011682018060405250810190610779919061100c565b7f00000000000000000000000000000000000000000000000000000000000000006001600160a01b031663f242432a835f01517f00000000000000000000000000000000000000000000000000000000000000008560400151602001516001600160a01b03166109228690565b6040518563ffffffff1660e01b8152600401610941949392919061116f565b5f604051808303815f87803b158015610958575f80fd5b505af115801561096a573d5f803e3d5ffd5b505050505b5f61097a8260801c90565b600f0b1215610a6957602082015151156109d15760408201515182516001600160a01b037f00000000000000000000000000000000000000000000000000000000000000001691630b0d9c09916106078560801c90565b60408201515182516001600160a01b037f0000000000000000000000000000000000000000000000000000000000000000169163c6c3bbe691610a148560801c90565b610a1d906111ae565b6040518463ffffffff1660e01b8152600401610a3b93929190611128565b5f604051808303815f87803b158015610a52575f80fd5b505af1158015610a64573d5f803e3d5ffd5b505050505b6040805160208101839052016040516020818303038152906040529250505092915050565b5f6001600160a01b038416610aca575f805f8085875af1905080610ac557604051633d2cec6f60e21b815260040160405180910390fd5b610b20565b60405163a9059cbb60e01b5f52836004528260245260205f60445f80895af13d15601f3d1160015f511416171691505f606052806040525080610b2057604051633c9fd93960e21b815260040160405180910390fd5b50505050565b634e487b7160e01b5f52604160045260245ffd5b60405160a0810167ffffffffffffffff81118282101715610b5d57610b5d610b26565b60405290565b604051601f8201601f1916810167ffffffffffffffff81118282101715610b8c57610b8c610b26565b604052919050565b6001600160a01b0381168114610ba8575f80fd5b50565b5f60a08284031215610bbb575f80fd5b610bc3610b3a565b90508135610bd081610b94565b81526020820135610be081610b94565b6020820152604082013562ffffff81168114610bfa575f80fd5b60408201526060820135600281900b8114610c13575f80fd5b60608201526080820135610c2681610b94565b608082015292915050565b8015158114610ba8575f80fd5b5f60608284031215610c4e575f80fd5b6040516060810181811067ffffffffffffffff82111715610c7157610c71610b26565b6040529050808235610c8281610c31565b8152602083810135908201526040830135610c9c81610b94565b6040919091015292915050565b5f60408284031215610cb9575f80fd5b6040516040810181811067ffffffffffffffff82111715610cdc57610cdc610b26565b6040529050808235610ced81610c31565b81526020830135610cfd81610c31565b6020919091015292915050565b5f67ffffffffffffffff821115610d2357610d23610b26565b50601f01601f191660200190565b5f82601f830112610d40575f80fd5b8135610d53610d4e82610d0a565b610b63565b818152846020838601011115610d67575f80fd5b816020850160208301375f918101602001919091529392505050565b5f805f806101608587031215610d97575f80fd5b610da18686610bab565b9350610db08660a08701610c3e565b9250610dc0866101008701610ca9565b915061014085013567ffffffffffffffff811115610ddc575f80fd5b610de887828801610d31565b91505092959194509250565b5f8060208385031215610e05575f80fd5b823567ffffffffffffffff80821115610e1c575f80fd5b818501915085601f830112610e2f575f80fd5b813581811115610e3d575f80fd5b866020828501011115610e4e575f80fd5b60209290920196919550909350505050565b5f5b83811015610e7a578181015183820152602001610e62565b50505f910152565b5f8151808452610e99816020860160208601610e60565b601f01601f19169290920160200192915050565b602081525f610ebf6020830184610e82565b9392505050565b80516001600160a01b03908116835260208083015182169084015260408083015162ffffff169084015260608083015160020b9084015260809182015116910152565b602080825282516001600160a01b0316828201528281015180511515604080850191909152910151151560608301528201515f90610f4a6080840182610ec6565b506060830151805115156101208401526020810151610140840152604001516001600160a01b0316610160830152608083015161018080840152610f926101a0840182610e82565b949350505050565b5f60208284031215610faa575f80fd5b815167ffffffffffffffff811115610fc0575f80fd5b8201601f81018413610fd0575f80fd5b8051610fde610d4e82610d0a565b818152856020838501011115610ff2575f80fd5b611003826020830160208601610e60565b95945050505050565b5f6020828403121561101c575f80fd5b5051919050565b5f60208284031215611033575f80fd5b813567ffffffffffffffff8082111561104a575f80fd5b90830190610180828603121561105e575f80fd5b611066610b3a565b823561107181610b94565b81526110808660208501610ca9565b60208201526110928660608501610bab565b60408201526110a5866101008501610c3e565b6060820152610160830135828111156110bc575f80fd5b6110c887828601610d31565b60808301525095945050505050565b5f6101206110e58387610ec6565b8451151560a0840152602085015160c084015260408501516001600160a01b031660e08401528061010084015261111e81840185610e82565b9695505050505050565b6001600160a01b0393841681529190921660208201526001600160801b03909116604082015260600190565b5f60208284031215611164575f80fd5b8151610ebf81610c31565b6001600160a01b03948516815292909316602083015260408201526001600160801b03909116606082015260a0608082018190525f9082015260c00190565b5f81600f0b6f7fffffffffffffffffffffffffffffff1981036111df57634e487b7160e01b5f52601160045260245ffd5b5f039291505056fea26469706673582212209f2765e9ad1cfa05a73c7b986587c96386c158efb91322d9f6657cb379dd1f0464736f6c63430008140033a26469706673582212209186edbf37e5d78f7f4168a1b553903bd835927a1e64fdaf76af938e348ec2ac64736f6c63430008140033",
			"opcodes": "PUSH1 0xA0 PUSH1 0x40 MSTORE PUSH3 0x14 TIMESTAMP PUSH4 0x1E13380 PUSH3 0x322 JUMP JUMPDEST PUSH0 SWAP1 DUP2 SSTORE PUSH1 0x9 DUP1 SLOAD PUSH2 0x100 PUSH1 0x1 PUSH1 0xA8 SHL SUB NOT AND SWAP1 SSTORE PUSH1 0x40 DUP1 MLOAD SWAP2 DUP3 MSTORE PUSH1 0x20 DUP3 ADD SWAP1 DUP2 SWAP1 MSTORE SWAP1 MLOAD PUSH3 0x48 SWAP2 PUSH1 0xB SWAP2 PUSH3 0x2A4 JUMP JUMPDEST POP CALLVALUE DUP1 ISZERO PUSH3 0x55 JUMPI PUSH0 DUP1 REVERT JUMPDEST POP PUSH1 0x40 MLOAD PUSH3 0x6368 CODESIZE SUB DUP1 PUSH3 0x6368 DUP4 CODECOPY DUP2 ADD PUSH1 0x40 DUP2 SWAP1 MSTORE PUSH3 0x78 SWAP2 PUSH3 0x406 JUMP JUMPDEST PUSH1 0x1 PUSH1 0x1 PUSH1 0xA0 SHL SUB DUP5 AND PUSH1 0x80 MSTORE DUP4 PUSH3 0x91 ADDRESS PUSH3 0xD9 JUMP JUMPDEST POP PUSH3 0x9D CALLER PUSH3 0x172 JUMP JUMPDEST PUSH1 0x7 PUSH3 0xAB DUP5 DUP3 PUSH3 0x52F JUMP JUMPDEST POP PUSH1 0x8 PUSH3 0xBA DUP4 DUP3 PUSH3 0x52F JUMP JUMPDEST POP PUSH1 0x9 DUP1 SLOAD PUSH1 0xFF NOT AND PUSH1 0xFF SWAP3 SWAP1 SWAP3 AND SWAP2 SWAP1 SWAP2 OR SWAP1 SSTORE POP PUSH3 0x5F7 SWAP2 POP POP JUMP JUMPDEST PUSH3 0x16F DUP2 PUSH3 0x169 PUSH1 0x40 DUP1 MLOAD PUSH2 0x100 DUP2 ADD DUP3 MSTORE PUSH0 DUP1 DUP3 MSTORE PUSH1 0x20 DUP3 ADD DUP2 SWAP1 MSTORE SWAP2 DUP2 ADD DUP3 SWAP1 MSTORE PUSH1 0x60 DUP2 ADD DUP3 SWAP1 MSTORE PUSH1 0x80 DUP2 ADD DUP3 SWAP1 MSTORE PUSH1 0xA0 DUP2 ADD DUP3 SWAP1 MSTORE PUSH1 0xC0 DUP2 ADD DUP3 SWAP1 MSTORE PUSH1 0xE0 DUP2 ADD SWAP2 SWAP1 SWAP2 MSTORE POP PUSH1 0x40 DUP1 MLOAD PUSH2 0x100 DUP2 ADD DUP3 MSTORE PUSH1 0x1 DUP1 DUP3 MSTORE PUSH1 0x20 DUP3 ADD DUP2 SWAP1 MSTORE SWAP2 DUP2 ADD DUP3 SWAP1 MSTORE PUSH0 PUSH1 0x60 DUP3 ADD DUP2 SWAP1 MSTORE PUSH1 0x80 DUP3 ADD SWAP3 SWAP1 SWAP3 MSTORE PUSH1 0xA0 DUP2 ADD DUP3 SWAP1 MSTORE PUSH1 0xC0 DUP2 ADD DUP3 SWAP1 MSTORE PUSH1 0xE0 DUP2 ADD SWAP2 SWAP1 SWAP2 MSTORE SWAP1 JUMP JUMPDEST PUSH3 0x1AD JUMP JUMPDEST POP JUMP JUMPDEST PUSH1 0x1 PUSH1 0x1 PUSH1 0xA0 SHL SUB AND PUSH4 0x8B78C6D8 NOT DUP2 SWAP1 SSTORE DUP1 PUSH0 PUSH32 0x8BE0079C531659141344CD1FD0A4F28419497F9722A3DAAFE3B4186F6B6457E0 DUP2 DUP1 LOG3 POP JUMP JUMPDEST DUP1 MLOAD ISZERO ISZERO PUSH1 0x1 PUSH1 0x9F SHL DUP4 AND ISZERO ISZERO EQ ISZERO DUP1 PUSH3 0x1D6 JUMPI POP PUSH1 0x20 DUP2 ADD MLOAD ISZERO ISZERO PUSH1 0x1 PUSH1 0x9E SHL DUP4 AND ISZERO ISZERO EQ ISZERO JUMPDEST DUP1 PUSH3 0x1F0 JUMPI POP PUSH1 0x40 DUP2 ADD MLOAD ISZERO ISZERO PUSH1 0x1 PUSH1 0x9D SHL DUP4 AND ISZERO ISZERO EQ ISZERO JUMPDEST DUP1 PUSH3 0x20A JUMPI POP PUSH1 0x60 DUP2 ADD MLOAD ISZERO ISZERO PUSH1 0x1 PUSH1 0x9C SHL DUP4 AND ISZERO ISZERO EQ ISZERO JUMPDEST DUP1 PUSH3 0x224 JUMPI POP PUSH1 0x80 DUP2 ADD MLOAD ISZERO ISZERO PUSH1 0x1 PUSH1 0x9B SHL DUP4 AND ISZERO ISZERO EQ ISZERO JUMPDEST DUP1 PUSH3 0x23E JUMPI POP PUSH1 0xA0 DUP2 ADD MLOAD ISZERO ISZERO PUSH1 0x1 PUSH1 0x9A SHL DUP4 AND ISZERO ISZERO EQ ISZERO JUMPDEST DUP1 PUSH3 0x258 JUMPI POP PUSH1 0xC0 DUP2 ADD MLOAD ISZERO ISZERO PUSH1 0x1 PUSH1 0x99 SHL DUP4 AND ISZERO ISZERO EQ ISZERO JUMPDEST DUP1 PUSH3 0x272 JUMPI POP PUSH1 0xE0 DUP2 ADD MLOAD ISZERO ISZERO PUSH1 0x1 PUSH1 0x98 SHL DUP4 AND ISZERO ISZERO EQ ISZERO JUMPDEST ISZERO PUSH3 0x2A0 JUMPI PUSH1 0x40 MLOAD PUSH4 0x732D7B5 PUSH1 0xE5 SHL DUP2 MSTORE PUSH1 0x1 PUSH1 0x1 PUSH1 0xA0 SHL SUB DUP4 AND PUSH1 0x4 DUP3 ADD MSTORE PUSH1 0x24 ADD PUSH1 0x40 MLOAD DUP1 SWAP2 SUB SWAP1 REVERT JUMPDEST POP POP JUMP JUMPDEST DUP3 DUP1 SLOAD DUP3 DUP3 SSTORE SWAP1 PUSH0 MSTORE PUSH1 0x20 PUSH0 KECCAK256 SWAP1 DUP2 ADD SWAP3 DUP3 ISZERO PUSH3 0x2FA JUMPI SWAP2 PUSH1 0x20 MUL DUP3 ADD JUMPDEST DUP3 DUP2 GT ISZERO PUSH3 0x2FA JUMPI DUP3 MLOAD DUP3 SLOAD PUSH1 0x1 PUSH1 0x1 PUSH1 0xA0 SHL SUB NOT AND PUSH1 0x1 PUSH1 0x1 PUSH1 0xA0 SHL SUB SWAP1 SWAP2 AND OR DUP3 SSTORE PUSH1 0x20 SWAP1 SWAP3 ADD SWAP2 PUSH1 0x1 SWAP1 SWAP2 ADD SWAP1 PUSH3 0x2C3 JUMP JUMPDEST POP PUSH3 0x308 SWAP3 SWAP2 POP PUSH3 0x30C JUMP JUMPDEST POP SWAP1 JUMP JUMPDEST JUMPDEST DUP1 DUP3 GT ISZERO PUSH3 0x308 JUMPI PUSH0 DUP2 SSTORE PUSH1 0x1 ADD PUSH3 0x30D JUMP JUMPDEST DUP1 DUP3 ADD DUP1 DUP3 GT ISZERO PUSH3 0x342 JUMPI PUSH4 0x4E487B71 PUSH1 0xE0 SHL PUSH0 MSTORE PUSH1 0x11 PUSH1 0x4 MSTORE PUSH1 0x24 PUSH0 REVERT JUMPDEST SWAP3 SWAP2 POP POP JUMP JUMPDEST PUSH4 0x4E487B71 PUSH1 0xE0 SHL PUSH0 MSTORE PUSH1 0x41 PUSH1 0x4 MSTORE PUSH1 0x24 PUSH0 REVERT JUMPDEST PUSH0 DUP3 PUSH1 0x1F DUP4 ADD SLT PUSH3 0x36C JUMPI PUSH0 DUP1 REVERT JUMPDEST DUP2 MLOAD PUSH1 0x1 PUSH1 0x1 PUSH1 0x40 SHL SUB DUP1 DUP3 GT ISZERO PUSH3 0x389 JUMPI PUSH3 0x389 PUSH3 0x348 JUMP JUMPDEST PUSH1 0x40 MLOAD PUSH1 0x1F DUP4 ADD PUSH1 0x1F NOT SWAP1 DUP2 AND PUSH1 0x3F ADD AND DUP2 ADD SWAP1 DUP3 DUP3 GT DUP2 DUP4 LT OR ISZERO PUSH3 0x3B4 JUMPI PUSH3 0x3B4 PUSH3 0x348 JUMP JUMPDEST DUP2 PUSH1 0x40 MSTORE DUP4 DUP2 MSTORE PUSH1 0x20 SWAP3 POP DUP7 DUP4 DUP6 DUP9 ADD ADD GT ISZERO PUSH3 0x3D0 JUMPI PUSH0 DUP1 REVERT JUMPDEST PUSH0 SWAP2 POP JUMPDEST DUP4 DUP3 LT ISZERO PUSH3 0x3F3 JUMPI DUP6 DUP3 ADD DUP4 ADD MLOAD DUP2 DUP4 ADD DUP5 ADD MSTORE SWAP1 DUP3 ADD SWAP1 PUSH3 0x3D4 JUMP JUMPDEST PUSH0 SWAP4 DUP2 ADD SWAP1 SWAP3 ADD SWAP3 SWAP1 SWAP3 MSTORE SWAP5 SWAP4 POP POP POP POP JUMP JUMPDEST PUSH0 DUP1 PUSH0 DUP1 PUSH1 0x80 DUP6 DUP8 SUB SLT ISZERO PUSH3 0x41A JUMPI PUSH0 DUP1 REVERT JUMPDEST DUP5 MLOAD PUSH1 0x1 PUSH1 0x1 PUSH1 0xA0 SHL SUB DUP2 AND DUP2 EQ PUSH3 0x431 JUMPI PUSH0 DUP1 REVERT JUMPDEST PUSH1 0x20 DUP7 ADD MLOAD SWAP1 SWAP5 POP PUSH1 0x1 PUSH1 0x1 PUSH1 0x40 SHL SUB DUP1 DUP3 GT ISZERO PUSH3 0x44E JUMPI PUSH0 DUP1 REVERT JUMPDEST PUSH3 0x45C DUP9 DUP4 DUP10 ADD PUSH3 0x35C JUMP JUMPDEST SWAP5 POP PUSH1 0x40 DUP8 ADD MLOAD SWAP2 POP DUP1 DUP3 GT ISZERO PUSH3 0x472 JUMPI PUSH0 DUP1 REVERT JUMPDEST POP PUSH3 0x481 DUP8 DUP3 DUP9 ADD PUSH3 0x35C JUMP JUMPDEST SWAP3 POP POP PUSH1 0x60 DUP6 ADD MLOAD PUSH1 0xFF DUP2 AND DUP2 EQ PUSH3 0x498 JUMPI PUSH0 DUP1 REVERT JUMPDEST SWAP4 SWAP7 SWAP3 SWAP6 POP SWAP1 SWAP4 POP POP JUMP JUMPDEST PUSH1 0x1 DUP2 DUP2 SHR SWAP1 DUP3 AND DUP1 PUSH3 0x4B8 JUMPI PUSH1 0x7F DUP3 AND SWAP2 POP JUMPDEST PUSH1 0x20 DUP3 LT DUP2 SUB PUSH3 0x4D7 JUMPI PUSH4 0x4E487B71 PUSH1 0xE0 SHL PUSH0 MSTORE PUSH1 0x22 PUSH1 0x4 MSTORE PUSH1 0x24 PUSH0 REVERT JUMPDEST POP SWAP2 SWAP1 POP JUMP JUMPDEST PUSH1 0x1F DUP3 GT ISZERO PUSH3 0x52A JUMPI PUSH0 DUP2 DUP2 MSTORE PUSH1 0x20 DUP2 KECCAK256 PUSH1 0x1F DUP6 ADD PUSH1 0x5 SHR DUP2 ADD PUSH1 0x20 DUP7 LT ISZERO PUSH3 0x505 JUMPI POP DUP1 JUMPDEST PUSH1 0x1F DUP6 ADD PUSH1 0x5 SHR DUP3 ADD SWAP2 POP JUMPDEST DUP2 DUP2 LT ISZERO PUSH3 0x526 JUMPI DUP3 DUP2 SSTORE PUSH1 0x1 ADD PUSH3 0x511 JUMP JUMPDEST POP POP POP JUMPDEST POP POP POP JUMP JUMPDEST DUP2 MLOAD PUSH1 0x1 PUSH1 0x1 PUSH1 0x40 SHL SUB DUP2 GT ISZERO PUSH3 0x54B JUMPI PUSH3 0x54B PUSH3 0x348 JUMP JUMPDEST PUSH3 0x563 DUP2 PUSH3 0x55C DUP5 SLOAD PUSH3 0x4A3 JUMP JUMPDEST DUP5 PUSH3 0x4DD JUMP JUMPDEST PUSH1 0x20 DUP1 PUSH1 0x1F DUP4 GT PUSH1 0x1 DUP2 EQ PUSH3 0x599 JUMPI PUSH0 DUP5 ISZERO PUSH3 0x581 JUMPI POP DUP6 DUP4 ADD MLOAD JUMPDEST PUSH0 NOT PUSH1 0x3 DUP7 SWAP1 SHL SHR NOT AND PUSH1 0x1 DUP6 SWAP1 SHL OR DUP6 SSTORE PUSH3 0x526 JUMP JUMPDEST PUSH0 DUP6 DUP2 MSTORE PUSH1 0x20 DUP2 KECCAK256 PUSH1 0x1F NOT DUP7 AND SWAP2 JUMPDEST DUP3 DUP2 LT ISZERO PUSH3 0x5C9 JUMPI DUP9 DUP7 ADD MLOAD DUP3 SSTORE SWAP5 DUP5 ADD SWAP5 PUSH1 0x1 SWAP1 SWAP2 ADD SWAP1 DUP5 ADD PUSH3 0x5A8 JUMP JUMPDEST POP DUP6 DUP3 LT ISZERO PUSH3 0x5E7 JUMPI DUP8 DUP6 ADD MLOAD PUSH0 NOT PUSH1 0x3 DUP9 SWAP1 SHL PUSH1 0xF8 AND SHR NOT AND DUP2 SSTORE JUMPDEST POP POP POP POP POP PUSH1 0x1 SWAP1 DUP2 SHL ADD SWAP1 SSTORE POP JUMP JUMPDEST PUSH1 0x80 MLOAD PUSH2 0x5CBE PUSH3 0x6AA PUSH0 CODECOPY PUSH0 DUP2 DUP2 PUSH2 0x4A8 ADD MSTORE DUP2 DUP2 PUSH2 0x6D5 ADD MSTORE DUP2 DUP2 PUSH2 0x7C4 ADD MSTORE DUP2 DUP2 PUSH2 0x88F ADD MSTORE DUP2 DUP2 PUSH2 0x953 ADD MSTORE DUP2 DUP2 PUSH2 0x9D2 ADD MSTORE DUP2 DUP2 PUSH2 0xAB1 ADD MSTORE DUP2 DUP2 PUSH2 0xB48 ADD MSTORE DUP2 DUP2 PUSH2 0xC05 ADD MSTORE DUP2 DUP2 PUSH2 0xC8E ADD MSTORE DUP2 DUP2 PUSH2 0xFB8 ADD MSTORE DUP2 DUP2 PUSH2 0x109E ADD MSTORE DUP2 DUP2 PUSH2 0x116A ADD MSTORE DUP2 DUP2 PUSH2 0x1219 ADD MSTORE DUP2 DUP2 PUSH2 0x12CD ADD MSTORE DUP2 DUP2 PUSH2 0x1365 ADD MSTORE DUP2 DUP2 PUSH2 0x140D ADD MSTORE DUP2 DUP2 PUSH2 0x1496 ADD MSTORE DUP2 DUP2 PUSH2 0x153C ADD MSTORE DUP2 DUP2 PUSH2 0x15A2 ADD MSTORE DUP2 DUP2 PUSH2 0x18D0 ADD MSTORE DUP2 DUP2 PUSH2 0x194D ADD MSTORE PUSH2 0x1A8E ADD MSTORE PUSH2 0x5CBE PUSH0 RETURN INVALID PUSH1 0x80 PUSH1 0x40 MSTORE PUSH1 0x4 CALLDATASIZE LT PUSH3 0x19E JUMPI PUSH0 CALLDATALOAD PUSH1 0xE0 SHR DUP1 PUSH4 0x8DA5CB5B GT PUSH3 0xDE JUMPI DUP1 PUSH4 0xDC4C90D3 GT PUSH3 0x92 JUMPI DUP1 PUSH4 0xF2FDE38B GT PUSH3 0x6A JUMPI DUP1 PUSH4 0xF2FDE38B EQ PUSH3 0x4E1 JUMPI DUP1 PUSH4 0xFC2B8CC3 EQ PUSH3 0x4F8 JUMPI DUP1 PUSH4 0xFE9A6F45 EQ PUSH3 0x50F JUMPI DUP1 PUSH4 0xFEE81CF4 EQ PUSH3 0x533 JUMPI PUSH0 DUP1 REVERT JUMPDEST DUP1 PUSH4 0xDC4C90D3 EQ PUSH3 0x495 JUMPI DUP1 PUSH4 0xE1B4AF69 EQ PUSH3 0x477 JUMPI DUP1 PUSH4 0xF04E283E EQ PUSH3 0x4CA JUMPI PUSH0 DUP1 REVERT JUMPDEST DUP1 PUSH4 0x8DA5CB5B EQ PUSH3 0x3CC JUMPI DUP1 PUSH4 0x9D76EA58 EQ PUSH3 0x3FA JUMPI DUP1 PUSH4 0xA910F80F EQ PUSH3 0x420 JUMPI DUP1 PUSH4 0xAB6291FE EQ PUSH3 0x444 JUMPI DUP1 PUSH4 0xB47B2FB1 EQ PUSH3 0x239 JUMPI DUP1 PUSH4 0xB6A8B0FA EQ PUSH3 0x477 JUMPI PUSH0 DUP1 REVERT JUMPDEST DUP1 PUSH4 0x3440D820 GT PUSH3 0x152 JUMPI DUP1 PUSH4 0x575E24B4 GT PUSH3 0x12A JUMPI DUP1 PUSH4 0x575E24B4 EQ PUSH3 0x2D3 JUMPI DUP1 PUSH4 0x612C39B7 EQ PUSH3 0x2F7 JUMPI DUP1 PUSH4 0x715018A6 EQ PUSH3 0x39E JUMPI DUP1 PUSH4 0x71E16359 EQ PUSH3 0x3A8 JUMPI PUSH0 DUP1 REVERT JUMPDEST DUP1 PUSH4 0x3440D820 EQ PUSH3 0x29B JUMPI DUP1 PUSH4 0x439370B1 EQ PUSH3 0x2BF JUMPI DUP1 PUSH4 0x54D1F13D EQ PUSH3 0x2C9 JUMPI PUSH0 DUP1 REVERT JUMPDEST DUP1 PUSH4 0x1339C21 EQ PUSH3 0x1AA JUMPI DUP1 PUSH4 0x1EA48870 EQ PUSH3 0x1C3 JUMPI DUP1 PUSH4 0x251C1AA3 EQ PUSH3 0x20A JUMPI DUP1 PUSH4 0x25692962 EQ PUSH3 0x22F JUMPI DUP1 PUSH4 0x30B7CDEF EQ PUSH3 0x239 JUMPI DUP1 PUSH4 0x33B50F8A EQ PUSH3 0x277 JUMPI PUSH0 DUP1 REVERT JUMPDEST CALLDATASIZE PUSH3 0x1A6 JUMPI STOP JUMPDEST PUSH0 DUP1 REVERT JUMPDEST CALLVALUE DUP1 ISZERO PUSH3 0x1B6 JUMPI PUSH0 DUP1 REVERT JUMPDEST POP PUSH3 0x1C1 PUSH3 0x568 JUMP JUMPDEST STOP JUMPDEST CALLVALUE DUP1 ISZERO PUSH3 0x1CF JUMPI PUSH0 DUP1 REVERT JUMPDEST POP PUSH3 0x1F5 PUSH3 0x1E1 CALLDATASIZE PUSH1 0x4 PUSH3 0x20F1 JUMP JUMPDEST PUSH1 0xA PUSH1 0x20 MSTORE PUSH0 SWAP1 DUP2 MSTORE PUSH1 0x40 SWAP1 KECCAK256 SLOAD PUSH1 0xFF AND DUP2 JUMP JUMPDEST PUSH1 0x40 MLOAD SWAP1 ISZERO ISZERO DUP2 MSTORE PUSH1 0x20 ADD JUMPDEST PUSH1 0x40 MLOAD DUP1 SWAP2 SUB SWAP1 RETURN JUMPDEST CALLVALUE DUP1 ISZERO PUSH3 0x216 JUMPI PUSH0 DUP1 REVERT JUMPDEST POP PUSH3 0x220 PUSH0 SLOAD DUP2 JUMP JUMPDEST PUSH1 0x40 MLOAD SWAP1 DUP2 MSTORE PUSH1 0x20 ADD PUSH3 0x201 JUMP JUMPDEST PUSH3 0x1C1 PUSH3 0x66B JUMP JUMPDEST CALLVALUE DUP1 ISZERO PUSH3 0x245 JUMPI PUSH0 DUP1 REVERT JUMPDEST POP PUSH3 0x25D PUSH3 0x257 CALLDATASIZE PUSH1 0x4 PUSH3 0x217F JUMP JUMPDEST PUSH3 0x6B8 JUMP JUMPDEST PUSH1 0x40 MLOAD PUSH1 0x1 PUSH1 0x1 PUSH1 0xE0 SHL SUB NOT SWAP1 SWAP2 AND DUP2 MSTORE PUSH1 0x20 ADD PUSH3 0x201 JUMP JUMPDEST CALLVALUE DUP1 ISZERO PUSH3 0x283 JUMPI PUSH0 DUP1 REVERT JUMPDEST POP PUSH3 0x220 PUSH3 0x295 CALLDATASIZE PUSH1 0x4 PUSH3 0x2315 JUMP JUMPDEST PUSH3 0x6D2 JUMP JUMPDEST CALLVALUE DUP1 ISZERO PUSH3 0x2A7 JUMPI PUSH0 DUP1 REVERT JUMPDEST POP PUSH3 0x25D PUSH3 0x2B9 CALLDATASIZE PUSH1 0x4 PUSH3 0x23A4 JUMP JUMPDEST PUSH3 0xD2D JUMP JUMPDEST PUSH3 0x1C1 PUSH3 0xD4A JUMP JUMPDEST PUSH3 0x1C1 PUSH3 0xEDC JUMP JUMPDEST CALLVALUE DUP1 ISZERO PUSH3 0x2DF JUMPI PUSH0 DUP1 REVERT JUMPDEST POP PUSH3 0x25D PUSH3 0x2F1 CALLDATASIZE PUSH1 0x4 PUSH3 0x2425 JUMP JUMPDEST PUSH3 0xF15 JUMP JUMPDEST CALLVALUE DUP1 ISZERO PUSH3 0x303 JUMPI PUSH0 DUP1 REVERT JUMPDEST POP PUSH3 0x38F PUSH1 0x40 DUP1 MLOAD PUSH2 0x100 DUP2 ADD DUP3 MSTORE PUSH0 DUP1 DUP3 MSTORE PUSH1 0x20 DUP3 ADD DUP2 SWAP1 MSTORE SWAP2 DUP2 ADD DUP3 SWAP1 MSTORE PUSH1 0x60 DUP2 ADD DUP3 SWAP1 MSTORE PUSH1 0x80 DUP2 ADD DUP3 SWAP1 MSTORE PUSH1 0xA0 DUP2 ADD DUP3 SWAP1 MSTORE PUSH1 0xC0 DUP2 ADD DUP3 SWAP1 MSTORE PUSH1 0xE0 DUP2 ADD SWAP2 SWAP1 SWAP2 MSTORE POP PUSH1 0x40 DUP1 MLOAD PUSH2 0x100 DUP2 ADD DUP3 MSTORE PUSH1 0x1 DUP1 DUP3 MSTORE PUSH1 0x20 DUP3 ADD DUP2 SWAP1 MSTORE SWAP2 DUP2 ADD DUP3 SWAP1 MSTORE PUSH0 PUSH1 0x60 DUP3 ADD DUP2 SWAP1 MSTORE PUSH1 0x80 DUP3 ADD SWAP3 SWAP1 SWAP3 MSTORE PUSH1 0xA0 DUP2 ADD DUP3 SWAP1 MSTORE PUSH1 0xC0 DUP2 ADD DUP3 SWAP1 MSTORE PUSH1 0xE0 DUP2 ADD SWAP2 SWAP1 SWAP2 MSTORE SWAP1 JUMP JUMPDEST PUSH1 0x40 MLOAD PUSH3 0x201 SWAP2 SWAP1 PUSH3 0x2487 JUMP JUMPDEST PUSH3 0x1C1 PUSH3 0xF9E JUMP JUMPDEST CALLVALUE DUP1 ISZERO PUSH3 0x3B4 JUMPI PUSH0 DUP1 REVERT JUMPDEST POP PUSH3 0x220 PUSH3 0x3C6 CALLDATASIZE PUSH1 0x4 PUSH3 0x2513 JUMP JUMPDEST PUSH3 0xFB5 JUMP JUMPDEST CALLVALUE DUP1 ISZERO PUSH3 0x3D8 JUMPI PUSH0 DUP1 REVERT JUMPDEST POP PUSH4 0x8B78C6D8 NOT SLOAD JUMPDEST PUSH1 0x40 MLOAD PUSH1 0x1 PUSH1 0x1 PUSH1 0xA0 SHL SUB SWAP1 SWAP2 AND DUP2 MSTORE PUSH1 0x20 ADD PUSH3 0x201 JUMP JUMPDEST CALLVALUE DUP1 ISZERO PUSH3 0x406 JUMPI PUSH0 DUP1 REVERT JUMPDEST POP PUSH1 0x9 SLOAD PUSH3 0x3E1 SWAP1 PUSH2 0x100 SWAP1 DIV PUSH1 0x1 PUSH1 0x1 PUSH1 0xA0 SHL SUB AND DUP2 JUMP JUMPDEST CALLVALUE DUP1 ISZERO PUSH3 0x42C JUMPI PUSH0 DUP1 REVERT JUMPDEST POP PUSH3 0x25D PUSH3 0x43E CALLDATASIZE PUSH1 0x4 PUSH3 0x2597 JUMP JUMPDEST PUSH3 0x1577 JUMP JUMPDEST CALLVALUE DUP1 ISZERO PUSH3 0x450 JUMPI PUSH0 DUP1 REVERT JUMPDEST POP PUSH3 0x468 PUSH3 0x462 CALLDATASIZE PUSH1 0x4 PUSH3 0x260D JUMP JUMPDEST PUSH3 0x1595 JUMP JUMPDEST PUSH1 0x40 MLOAD PUSH3 0x201 SWAP2 SWAP1 PUSH3 0x2695 JUMP JUMPDEST CALLVALUE DUP1 ISZERO PUSH3 0x483 JUMPI PUSH0 DUP1 REVERT JUMPDEST POP PUSH3 0x25D PUSH3 0x257 CALLDATASIZE PUSH1 0x4 PUSH3 0x26A9 JUMP JUMPDEST CALLVALUE DUP1 ISZERO PUSH3 0x4A1 JUMPI PUSH0 DUP1 REVERT JUMPDEST POP PUSH3 0x3E1 PUSH32 0x0 DUP2 JUMP JUMPDEST PUSH3 0x1C1 PUSH3 0x4DB CALLDATASIZE PUSH1 0x4 PUSH3 0x20F1 JUMP JUMPDEST PUSH3 0x1685 JUMP JUMPDEST PUSH3 0x1C1 PUSH3 0x4F2 CALLDATASIZE PUSH1 0x4 PUSH3 0x20F1 JUMP JUMPDEST PUSH3 0x16C4 JUMP JUMPDEST CALLVALUE DUP1 ISZERO PUSH3 0x504 JUMPI PUSH0 DUP1 REVERT JUMPDEST POP PUSH3 0x1C1 PUSH3 0x1751 JUMP JUMPDEST CALLVALUE DUP1 ISZERO PUSH3 0x51B JUMPI PUSH0 DUP1 REVERT JUMPDEST POP PUSH3 0x25D PUSH3 0x52D CALLDATASIZE PUSH1 0x4 PUSH3 0x2425 JUMP JUMPDEST PUSH3 0x1821 JUMP JUMPDEST CALLVALUE DUP1 ISZERO PUSH3 0x53F JUMPI PUSH0 DUP1 REVERT JUMPDEST POP PUSH3 0x220 PUSH3 0x551 CALLDATASIZE PUSH1 0x4 PUSH3 0x20F1 JUMP JUMPDEST PUSH4 0x389A75E1 PUSH1 0xC SWAP1 DUP2 MSTORE PUSH0 SWAP2 SWAP1 SWAP2 MSTORE PUSH1 0x20 SWAP1 KECCAK256 SLOAD SWAP1 JUMP JUMPDEST PUSH3 0x572 PUSH3 0x18B3 JUMP JUMPDEST PUSH1 0x9 SLOAD PUSH2 0x100 SWAP1 DIV PUSH1 0x1 PUSH1 0x1 PUSH1 0xA0 SHL SUB AND ISZERO PUSH3 0x5AC JUMPI PUSH1 0x40 MLOAD PUSH3 0x461BCD PUSH1 0xE5 SHL DUP2 MSTORE PUSH1 0x4 ADD PUSH3 0x5A3 SWAP1 PUSH3 0x2709 JUMP JUMPDEST PUSH1 0x40 MLOAD DUP1 SWAP2 SUB SWAP1 REVERT JUMPDEST PUSH0 SELFBALANCE GT PUSH3 0x5F6 JUMPI PUSH1 0x40 MLOAD PUSH3 0x461BCD PUSH1 0xE5 SHL DUP2 MSTORE PUSH1 0x20 PUSH1 0x4 DUP3 ADD MSTORE PUSH1 0x16 PUSH1 0x24 DUP3 ADD MSTORE PUSH22 0x11985A5C951C9859194E88139BC8115512081CD95B9D PUSH1 0x52 SHL PUSH1 0x44 DUP3 ADD MSTORE PUSH1 0x64 ADD PUSH3 0x5A3 JUMP JUMPDEST PUSH1 0x9 SLOAD PUSH1 0x40 MLOAD PUSH0 SWAP2 PUSH1 0x7 SWAP2 PUSH1 0x8 SWAP2 PUSH1 0xFF AND SWAP1 PUSH3 0x613 SWAP1 PUSH3 0x20B2 JUMP JUMPDEST PUSH3 0x621 SWAP4 SWAP3 SWAP2 SWAP1 PUSH3 0x27E7 JUMP JUMPDEST PUSH1 0x40 MLOAD DUP1 SWAP2 SUB SWAP1 PUSH0 CREATE DUP1 ISZERO DUP1 ISZERO PUSH3 0x63B JUMPI RETURNDATASIZE PUSH0 DUP1 RETURNDATACOPY RETURNDATASIZE PUSH0 REVERT JUMPDEST POP PUSH1 0x9 DUP1 SLOAD PUSH2 0x100 PUSH1 0x1 PUSH1 0xA8 SHL SUB NOT AND PUSH2 0x100 PUSH1 0x1 PUSH1 0x1 PUSH1 0xA0 SHL SUB DUP5 AND MUL OR SWAP1 SSTORE SWAP1 POP PUSH3 0x668 PUSH3 0x18CE JUMP JUMPDEST POP JUMP JUMPDEST PUSH0 PUSH3 0x2A300 PUSH8 0xFFFFFFFFFFFFFFFF AND TIMESTAMP ADD SWAP1 POP PUSH4 0x389A75E1 PUSH1 0xC MSTORE CALLER PUSH0 MSTORE DUP1 PUSH1 0x20 PUSH1 0xC KECCAK256 SSTORE CALLER PUSH32 0xDBF36A107DA19E49527A7176A1BABF963B4B0FF8CDE35EE35D6CD8F1F9AC7E1D PUSH0 DUP1 LOG2 POP JUMP JUMPDEST PUSH0 PUSH1 0x40 MLOAD PUSH4 0xA85DC29 PUSH1 0xE0 SHL DUP2 MSTORE PUSH1 0x4 ADD PUSH1 0x40 MLOAD DUP1 SWAP2 SUB SWAP1 REVERT JUMPDEST PUSH0 PUSH32 0x0 PUSH1 0x1 PUSH1 0x1 PUSH1 0xA0 SHL SUB AND PUSH4 0xF3CD914C DUP6 DUP6 PUSH1 0x40 MLOAD PUSH1 0x20 ADD PUSH3 0x71F SWAP1 PUSH1 0x20 DUP1 DUP3 MSTORE PUSH0 SWAP1 DUP3 ADD MSTORE PUSH1 0x40 ADD SWAP1 JUMP JUMPDEST PUSH1 0x40 MLOAD PUSH1 0x20 DUP2 DUP4 SUB SUB DUP2 MSTORE SWAP1 PUSH1 0x40 MSTORE PUSH1 0x40 MLOAD DUP5 PUSH4 0xFFFFFFFF AND PUSH1 0xE0 SHL DUP2 MSTORE PUSH1 0x4 ADD PUSH3 0x74E SWAP4 SWAP3 SWAP2 SWAP1 PUSH3 0x2866 JUMP JUMPDEST PUSH1 0x20 PUSH1 0x40 MLOAD DUP1 DUP4 SUB DUP2 PUSH0 DUP8 GAS CALL ISZERO DUP1 ISZERO PUSH3 0x76B JUMPI RETURNDATASIZE PUSH0 DUP1 RETURNDATACOPY RETURNDATASIZE PUSH0 REVERT JUMPDEST POP POP POP POP PUSH1 0x40 MLOAD RETURNDATASIZE PUSH1 0x1F NOT PUSH1 0x1F DUP3 ADD AND DUP3 ADD DUP1 PUSH1 0x40 MSTORE POP DUP2 ADD SWAP1 PUSH3 0x791 SWAP2 SWAP1 PUSH3 0x28BC JUMP JUMPDEST DUP4 MLOAD SWAP1 SWAP2 POP ISZERO PUSH3 0xA6E JUMPI PUSH0 PUSH3 0x7A8 DUP3 PUSH1 0x80 SHR SWAP1 JUMP JUMPDEST PUSH1 0xF SIGNEXTEND SGT ISZERO PUSH3 0x9C4 JUMPI DUP4 MLOAD PUSH1 0x1 PUSH1 0x1 PUSH1 0xA0 SHL SUB AND PUSH3 0x87D JUMPI PUSH32 0x0 PUSH1 0x1 PUSH1 0x1 PUSH1 0xA0 SHL SUB AND PUSH4 0x6A256B29 PUSH3 0x7FC DUP4 PUSH1 0x80 SHR SWAP1 JUMP JUMPDEST DUP7 MLOAD PUSH1 0x40 MLOAD PUSH1 0x1 PUSH1 0x1 PUSH1 0xE0 SHL SUB NOT PUSH1 0xE0 DUP6 SWAP1 SHL AND DUP2 MSTORE PUSH1 0x1 PUSH1 0x1 PUSH1 0xA0 SHL SUB SWAP1 SWAP2 AND PUSH1 0x4 DUP3 ADD MSTORE PUSH1 0x1 PUSH1 0x1 PUSH1 0x80 SHL SUB SWAP2 SWAP1 SWAP2 AND SWAP1 PUSH1 0x24 ADD PUSH1 0x20 PUSH1 0x40 MLOAD DUP1 DUP4 SUB DUP2 DUP6 DUP9 GAS CALL ISZERO DUP1 ISZERO PUSH3 0x84F JUMPI RETURNDATASIZE PUSH0 DUP1 RETURNDATACOPY RETURNDATASIZE PUSH0 REVERT JUMPDEST POP POP POP POP POP PUSH1 0x40 MLOAD RETURNDATASIZE PUSH1 0x1F NOT PUSH1 0x1F DUP3 ADD AND DUP3 ADD DUP1 PUSH1 0x40 MSTORE POP DUP2 ADD SWAP1 PUSH3 0x876 SWAP2 SWAP1 PUSH3 0x28BC JUMP JUMPDEST POP PUSH3 0x9C4 JUMP JUMPDEST DUP4 MLOAD PUSH1 0x1 PUSH1 0x1 PUSH1 0xA0 SHL SUB AND PUSH4 0xA9059CBB PUSH32 0x0 PUSH3 0x8B9 DUP5 PUSH1 0x80 SHR SWAP1 JUMP JUMPDEST PUSH1 0x40 MLOAD PUSH1 0x1 PUSH1 0x1 PUSH1 0xE0 SHL SUB NOT PUSH1 0xE0 DUP6 SWAP1 SHL AND DUP2 MSTORE PUSH1 0x1 PUSH1 0x1 PUSH1 0xA0 SHL SUB SWAP1 SWAP3 AND PUSH1 0x4 DUP4 ADD MSTORE PUSH1 0x1 PUSH1 0x1 PUSH1 0x80 SHL SUB AND PUSH1 0x24 DUP3 ADD MSTORE PUSH1 0x44 ADD PUSH1 0x20 PUSH1 0x40 MLOAD DUP1 DUP4 SUB DUP2 PUSH0 DUP8 GAS CALL ISZERO DUP1 ISZERO PUSH3 0x90B JUMPI RETURNDATASIZE PUSH0 DUP1 RETURNDATACOPY RETURNDATASIZE PUSH0 REVERT JUMPDEST POP POP POP POP PUSH1 0x40 MLOAD RETURNDATASIZE PUSH1 0x1F NOT PUSH1 0x1F DUP3 ADD AND DUP3 ADD DUP1 PUSH1 0x40 MSTORE POP DUP2 ADD SWAP1 PUSH3 0x931 SWAP2 SWAP1 PUSH3 0x28D4 JUMP JUMPDEST POP DUP4 MLOAD PUSH1 0x40 MLOAD PUSH4 0x6A256B29 PUSH1 0xE0 SHL DUP2 MSTORE PUSH1 0x1 PUSH1 0x1 PUSH1 0xA0 SHL SUB SWAP2 DUP3 AND PUSH1 0x4 DUP3 ADD MSTORE PUSH32 0x0 SWAP1 SWAP2 AND SWAP1 PUSH4 0x6A256B29 SWAP1 PUSH1 0x24 ADD PUSH1 0x20 PUSH1 0x40 MLOAD DUP1 DUP4 SUB DUP2 PUSH0 DUP8 GAS CALL ISZERO DUP1 ISZERO PUSH3 0x99C JUMPI RETURNDATASIZE PUSH0 DUP1 RETURNDATACOPY RETURNDATASIZE PUSH0 REVERT JUMPDEST POP POP POP POP PUSH1 0x40 MLOAD RETURNDATASIZE PUSH1 0x1F NOT PUSH1 0x1F DUP3 ADD AND DUP3 ADD DUP1 PUSH1 0x40 MSTORE POP DUP2 ADD SWAP1 PUSH3 0x9C2 SWAP2 SWAP1 PUSH3 0x28BC JUMP JUMPDEST POP JUMPDEST PUSH0 DUP2 PUSH1 0xF SIGNEXTEND SLT ISZERO PUSH3 0xA68 JUMPI PUSH32 0x0 PUSH1 0x1 PUSH1 0x1 PUSH1 0xA0 SHL SUB AND PUSH4 0xB0D9C09 DUP6 PUSH1 0x20 ADD MLOAD DUP5 PUSH3 0xA0D DUP6 SWAP1 JUMP JUMPDEST PUSH3 0xA18 SWAP1 PUSH3 0x2906 JUMP JUMPDEST PUSH1 0x40 MLOAD DUP5 PUSH4 0xFFFFFFFF AND PUSH1 0xE0 SHL DUP2 MSTORE PUSH1 0x4 ADD PUSH3 0xA38 SWAP4 SWAP3 SWAP2 SWAP1 PUSH3 0x2936 JUMP JUMPDEST PUSH0 PUSH1 0x40 MLOAD DUP1 DUP4 SUB DUP2 PUSH0 DUP8 DUP1 EXTCODESIZE ISZERO DUP1 ISZERO PUSH3 0xA50 JUMPI PUSH0 DUP1 REVERT JUMPDEST POP GAS CALL ISZERO DUP1 ISZERO PUSH3 0xA63 JUMPI RETURNDATASIZE PUSH0 DUP1 RETURNDATACOPY RETURNDATASIZE PUSH0 REVERT JUMPDEST POP POP POP POP JUMPDEST PUSH3 0xD26 JUMP JUMPDEST PUSH0 DUP2 PUSH1 0xF SIGNEXTEND SGT ISZERO PUSH3 0xC76 JUMPI PUSH1 0x20 DUP5 ADD MLOAD PUSH1 0x1 PUSH1 0x1 PUSH1 0xA0 SHL SUB AND PUSH3 0xB33 JUMPI PUSH1 0x20 DUP5 ADD MLOAD PUSH1 0x40 MLOAD PUSH4 0x6A256B29 PUSH1 0xE0 SHL DUP2 MSTORE PUSH1 0x1 PUSH1 0x1 PUSH1 0xA0 SHL SUB SWAP2 DUP3 AND PUSH1 0x4 DUP3 ADD MSTORE PUSH32 0x0 SWAP1 SWAP2 AND SWAP1 PUSH4 0x6A256B29 SWAP1 PUSH1 0x1 PUSH1 0x1 PUSH1 0x80 SHL SUB DUP5 AND SWAP1 PUSH1 0x24 ADD PUSH1 0x20 PUSH1 0x40 MLOAD DUP1 DUP4 SUB DUP2 DUP6 DUP9 GAS CALL ISZERO DUP1 ISZERO PUSH3 0xB05 JUMPI RETURNDATASIZE PUSH0 DUP1 RETURNDATACOPY RETURNDATASIZE PUSH0 REVERT JUMPDEST POP POP POP POP POP PUSH1 0x40 MLOAD RETURNDATASIZE PUSH1 0x1F NOT PUSH1 0x1F DUP3 ADD AND DUP3 ADD DUP1 PUSH1 0x40 MSTORE POP DUP2 ADD SWAP1 PUSH3 0xB2C SWAP2 SWAP1 PUSH3 0x28BC JUMP JUMPDEST POP PUSH3 0xC76 JUMP JUMPDEST PUSH1 0x20 DUP5 ADD MLOAD PUSH1 0x1 PUSH1 0x1 PUSH1 0xA0 SHL SUB AND PUSH4 0xA9059CBB PUSH32 0x0 DUP4 PUSH1 0x40 MLOAD PUSH1 0x1 PUSH1 0x1 PUSH1 0xE0 SHL SUB NOT PUSH1 0xE0 DUP6 SWAP1 SHL AND DUP2 MSTORE PUSH1 0x1 PUSH1 0x1 PUSH1 0xA0 SHL SUB SWAP1 SWAP3 AND PUSH1 0x4 DUP4 ADD MSTORE PUSH1 0x1 PUSH1 0x1 PUSH1 0x80 SHL SUB AND PUSH1 0x24 DUP3 ADD MSTORE PUSH1 0x44 ADD PUSH1 0x20 PUSH1 0x40 MLOAD DUP1 DUP4 SUB DUP2 PUSH0 DUP8 GAS CALL ISZERO DUP1 ISZERO PUSH3 0xBBA JUMPI RETURNDATASIZE PUSH0 DUP1 RETURNDATACOPY RETURNDATASIZE PUSH0 REVERT JUMPDEST POP POP POP POP PUSH1 0x40 MLOAD RETURNDATASIZE PUSH1 0x1F NOT PUSH1 0x1F DUP3 ADD AND DUP3 ADD DUP1 PUSH1 0x40 MSTORE POP DUP2 ADD SWAP1 PUSH3 0xBE0 SWAP2 SWAP1 PUSH3 0x28D4 JUMP JUMPDEST POP PUSH1 0x20 DUP5 ADD MLOAD PUSH1 0x40 MLOAD PUSH4 0x6A256B29 PUSH1 0xE0 SHL DUP2 MSTORE PUSH1 0x1 PUSH1 0x1 PUSH1 0xA0 SHL SUB SWAP2 DUP3 AND PUSH1 0x4 DUP3 ADD MSTORE PUSH32 0x0 SWAP1 SWAP2 AND SWAP1 PUSH4 0x6A256B29 SWAP1 PUSH1 0x24 ADD PUSH1 0x20 PUSH1 0x40 MLOAD DUP1 DUP4 SUB DUP2 PUSH0 DUP8 GAS CALL ISZERO DUP1 ISZERO PUSH3 0xC4E JUMPI RETURNDATASIZE PUSH0 DUP1 RETURNDATACOPY RETURNDATASIZE PUSH0 REVERT JUMPDEST POP POP POP POP PUSH1 0x40 MLOAD RETURNDATASIZE PUSH1 0x1F NOT PUSH1 0x1F DUP3 ADD AND DUP3 ADD DUP1 PUSH1 0x40 MSTORE POP DUP2 ADD SWAP1 PUSH3 0xC74 SWAP2 SWAP1 PUSH3 0x28BC JUMP JUMPDEST POP JUMPDEST PUSH0 PUSH3 0xC82 DUP3 PUSH1 0x80 SHR SWAP1 JUMP JUMPDEST PUSH1 0xF SIGNEXTEND SLT ISZERO PUSH3 0xD26 JUMPI PUSH32 0x0 PUSH1 0x1 PUSH1 0x1 PUSH1 0xA0 SHL SUB AND PUSH4 0xB0D9C09 DUP6 PUSH0 ADD MLOAD DUP5 PUSH3 0xCCB DUP6 PUSH1 0x80 SHR SWAP1 JUMP JUMPDEST PUSH3 0xCD6 SWAP1 PUSH3 0x2906 JUMP JUMPDEST PUSH1 0x40 MLOAD DUP5 PUSH4 0xFFFFFFFF AND PUSH1 0xE0 SHL DUP2 MSTORE PUSH1 0x4 ADD PUSH3 0xCF6 SWAP4 SWAP3 SWAP2 SWAP1 PUSH3 0x2936 JUMP JUMPDEST PUSH0 PUSH1 0x40 MLOAD DUP1 DUP4 SUB DUP2 PUSH0 DUP8 DUP1 EXTCODESIZE ISZERO DUP1 ISZERO PUSH3 0xD0E JUMPI PUSH0 DUP1 REVERT JUMPDEST POP GAS CALL ISZERO DUP1 ISZERO PUSH3 0xD21 JUMPI RETURNDATASIZE PUSH0 DUP1 RETURNDATACOPY RETURNDATASIZE PUSH0 REVERT JUMPDEST POP POP POP POP JUMPDEST SWAP4 SWAP3 POP POP POP JUMP JUMPDEST PUSH0 PUSH3 0xD38 PUSH3 0x1B4F JUMP JUMPDEST POP PUSH4 0x1A206C1 PUSH1 0xE5 SHL SWAP6 SWAP5 POP POP POP POP POP JUMP JUMPDEST PUSH1 0x9 SLOAD PUSH2 0x100 SWAP1 DIV PUSH1 0x1 PUSH1 0x1 PUSH1 0xA0 SHL SUB AND ISZERO PUSH3 0xD7B JUMPI PUSH1 0x40 MLOAD PUSH3 0x461BCD PUSH1 0xE5 SHL DUP2 MSTORE PUSH1 0x4 ADD PUSH3 0x5A3 SWAP1 PUSH3 0x2709 JUMP JUMPDEST PUSH0 CALLVALUE GT PUSH3 0xDC5 JUMPI PUSH1 0x40 MLOAD PUSH3 0x461BCD PUSH1 0xE5 SHL DUP2 MSTORE PUSH1 0x20 PUSH1 0x4 DUP3 ADD MSTORE PUSH1 0x16 PUSH1 0x24 DUP3 ADD MSTORE PUSH22 0x11985A5C951C9859194E88139BC8115512081CD95B9D PUSH1 0x52 SHL PUSH1 0x44 DUP3 ADD MSTORE PUSH1 0x64 ADD PUSH3 0x5A3 JUMP JUMPDEST CALLVALUE PUSH8 0x3782DACE9D90000 EQ PUSH3 0xE1E JUMPI PUSH1 0x40 MLOAD PUSH3 0x461BCD PUSH1 0xE5 SHL DUP2 MSTORE PUSH1 0x20 PUSH1 0x4 DUP3 ADD MSTORE PUSH1 0x1D PUSH1 0x24 DUP3 ADD MSTORE PUSH32 0x4661697254726164653A204D7573742073656E6420302E323520455448000000 PUSH1 0x44 DUP3 ADD MSTORE PUSH1 0x64 ADD PUSH3 0x5A3 JUMP JUMPDEST CALLER PUSH0 SWAP1 DUP2 MSTORE PUSH1 0xA PUSH1 0x20 MSTORE PUSH1 0x40 SWAP1 KECCAK256 SLOAD PUSH1 0xFF AND ISZERO PUSH3 0xE7F JUMPI PUSH1 0x40 MLOAD PUSH3 0x461BCD PUSH1 0xE5 SHL DUP2 MSTORE PUSH1 0x20 PUSH1 0x4 DUP3 ADD MSTORE PUSH1 0x19 PUSH1 0x24 DUP3 ADD MSTORE PUSH32 0x4661697254726164653A20416C72656164792066756E64656400000000000000 PUSH1 0x44 DUP3 ADD MSTORE PUSH1 0x64 ADD PUSH3 0x5A3 JUMP JUMPDEST CALLER PUSH0 DUP2 DUP2 MSTORE PUSH1 0xA PUSH1 0x20 MSTORE PUSH1 0x40 DUP2 KECCAK256 DUP1 SLOAD PUSH1 0xFF NOT AND PUSH1 0x1 SWAP1 DUP2 OR SWAP1 SWAP2 SSTORE PUSH1 0xB DUP1 SLOAD SWAP2 DUP3 ADD DUP2 SSTORE SWAP1 SWAP2 MSTORE PUSH32 0x175B7A638427703F0DBE7BB9BBF987A2551717B34E79F33B5B1008D1FA01DB9 ADD DUP1 SLOAD PUSH1 0x1 PUSH1 0x1 PUSH1 0xA0 SHL SUB NOT AND SWAP1 SWAP2 OR SWAP1 SSTORE JUMP JUMPDEST PUSH4 0x389A75E1 PUSH1 0xC MSTORE CALLER PUSH0 MSTORE PUSH0 PUSH1 0x20 PUSH1 0xC KECCAK256 SSTORE CALLER PUSH32 0xFA7B8EAB7DA67F412CC9575ED43464468F9BFBAE89D1675917346CA6D8FE3C92 PUSH0 DUP1 LOG2 JUMP JUMPDEST CALLER PUSH0 SWAP1 DUP2 MSTORE PUSH1 0xA PUSH1 0x20 MSTORE PUSH1 0x40 DUP2 KECCAK256 SLOAD PUSH1 0xFF AND ISZERO PUSH3 0xF8C JUMPI PUSH0 SLOAD TIMESTAMP LT ISZERO PUSH3 0xF8C JUMPI PUSH1 0x40 MLOAD PUSH3 0x461BCD PUSH1 0xE5 SHL DUP2 MSTORE PUSH1 0x20 PUSH1 0x4 DUP3 ADD MSTORE PUSH1 0x23 PUSH1 0x24 DUP3 ADD MSTORE PUSH32 0x4661697254726164653A2046756E646572732063616E6E6F7420747261646520 PUSH1 0x44 DUP3 ADD MSTORE PUSH3 0x1E595D PUSH1 0xEA SHL PUSH1 0x64 DUP3 ADD MSTORE PUSH1 0x84 ADD PUSH3 0x5A3 JUMP JUMPDEST POP PUSH4 0x15D7892D PUSH1 0xE2 SHL SWAP6 SWAP5 POP POP POP POP POP JUMP JUMPDEST PUSH3 0xFA8 PUSH3 0x18B3 JUMP JUMPDEST PUSH3 0xFB3 PUSH0 PUSH3 0x1C62 JUMP JUMPDEST JUMP JUMPDEST PUSH0 PUSH32 0x0 PUSH1 0x1 PUSH1 0x1 PUSH1 0xA0 SHL SUB AND PUSH4 0x61AE449A DUP6 DUP6 PUSH1 0x40 MLOAD PUSH1 0x20 ADD PUSH3 0x1002 SWAP1 PUSH1 0x20 DUP1 DUP3 MSTORE PUSH0 SWAP1 DUP3 ADD MSTORE PUSH1 0x40 ADD SWAP1 JUMP JUMPDEST PUSH1 0x40 MLOAD PUSH1 0x20 DUP2 DUP4 SUB SUB DUP2 MSTORE SWAP1 PUSH1 0x40 MSTORE PUSH1 0x40 MLOAD DUP5 PUSH4 0xFFFFFFFF AND PUSH1 0xE0 SHL DUP2 MSTORE PUSH1 0x4 ADD PUSH3 0x1031 SWAP4 SWAP3 SWAP2 SWAP1 PUSH3 0x2962 JUMP JUMPDEST PUSH1 0x20 PUSH1 0x40 MLOAD DUP1 DUP4 SUB DUP2 PUSH0 DUP8 GAS CALL ISZERO DUP1 ISZERO PUSH3 0x104E JUMPI RETURNDATASIZE PUSH0 DUP1 RETURNDATACOPY RETURNDATASIZE PUSH0 REVERT JUMPDEST POP POP POP POP PUSH1 0x40 MLOAD RETURNDATASIZE PUSH1 0x1F NOT PUSH1 0x1F DUP3 ADD AND DUP3 ADD DUP1 PUSH1 0x40 MSTORE POP DUP2 ADD SWAP1 PUSH3 0x1074 SWAP2 SWAP1 PUSH3 0x28BC JUMP JUMPDEST SWAP1 POP PUSH0 PUSH3 0x1082 DUP3 PUSH1 0x80 SHR SWAP1 JUMP JUMPDEST PUSH1 0xF SIGNEXTEND SGT ISZERO PUSH3 0x128A JUMPI DUP4 MLOAD PUSH1 0x1 PUSH1 0x1 PUSH1 0xA0 SHL SUB AND PUSH3 0x1157 JUMPI PUSH32 0x0 PUSH1 0x1 PUSH1 0x1 PUSH1 0xA0 SHL SUB AND PUSH4 0x6A256B29 PUSH3 0x10D6 DUP4 PUSH1 0x80 SHR SWAP1 JUMP JUMPDEST DUP7 MLOAD PUSH1 0x40 MLOAD PUSH1 0x1 PUSH1 0x1 PUSH1 0xE0 SHL SUB NOT PUSH1 0xE0 DUP6 SWAP1 SHL AND DUP2 MSTORE PUSH1 0x1 PUSH1 0x1 PUSH1 0xA0 SHL SUB SWAP1 SWAP2 AND PUSH1 0x4 DUP3 ADD MSTORE PUSH1 0x1 PUSH1 0x1 PUSH1 0x80 SHL SUB SWAP2 SWAP1 SWAP2 AND SWAP1 PUSH1 0x24 ADD PUSH1 0x20 PUSH1 0x40 MLOAD DUP1 DUP4 SUB DUP2 DUP6 DUP9 GAS CALL ISZERO DUP1 ISZERO PUSH3 0x1129 JUMPI RETURNDATASIZE PUSH0 DUP1 RETURNDATACOPY RETURNDATASIZE PUSH0 REVERT JUMPDEST POP POP POP POP POP PUSH1 0x40 MLOAD RETURNDATASIZE PUSH1 0x1F NOT PUSH1 0x1F DUP3 ADD AND DUP3 ADD DUP1 PUSH1 0x40 MSTORE POP DUP2 ADD SWAP1 PUSH3 0x1150 SWAP2 SWAP1 PUSH3 0x28BC JUMP JUMPDEST POP PUSH3 0x128A JUMP JUMPDEST DUP4 MLOAD PUSH1 0x1 PUSH1 0x1 PUSH1 0xA0 SHL SUB AND PUSH4 0x23B872DD DUP4 PUSH32 0x0 PUSH3 0x1194 DUP6 PUSH1 0x80 SHR SWAP1 JUMP JUMPDEST PUSH1 0x40 MLOAD DUP5 PUSH4 0xFFFFFFFF AND PUSH1 0xE0 SHL DUP2 MSTORE PUSH1 0x4 ADD PUSH3 0x11B4 SWAP4 SWAP3 SWAP2 SWAP1 PUSH3 0x2936 JUMP JUMPDEST PUSH1 0x20 PUSH1 0x40 MLOAD DUP1 DUP4 SUB DUP2 PUSH0 DUP8 GAS CALL ISZERO DUP1 ISZERO PUSH3 0x11D1 JUMPI RETURNDATASIZE PUSH0 DUP1 RETURNDATACOPY RETURNDATASIZE PUSH0 REVERT JUMPDEST POP POP POP POP PUSH1 0x40 MLOAD RETURNDATASIZE PUSH1 0x1F NOT PUSH1 0x1F DUP3 ADD AND DUP3 ADD DUP1 PUSH1 0x40 MSTORE POP DUP2 ADD SWAP1 PUSH3 0x11F7 SWAP2 SWAP1 PUSH3 0x28D4 JUMP JUMPDEST POP DUP4 MLOAD PUSH1 0x40 MLOAD PUSH4 0x6A256B29 PUSH1 0xE0 SHL DUP2 MSTORE PUSH1 0x1 PUSH1 0x1 PUSH1 0xA0 SHL SUB SWAP2 DUP3 AND PUSH1 0x4 DUP3 ADD MSTORE PUSH32 0x0 SWAP1 SWAP2 AND SWAP1 PUSH4 0x6A256B29 SWAP1 PUSH1 0x24 ADD PUSH1 0x20 PUSH1 0x40 MLOAD DUP1 DUP4 SUB DUP2 PUSH0 DUP8 GAS CALL ISZERO DUP1 ISZERO PUSH3 0x1262 JUMPI RETURNDATASIZE PUSH0 DUP1 RETURNDATACOPY RETURNDATASIZE PUSH0 REVERT JUMPDEST POP POP POP POP PUSH1 0x40 MLOAD RETURNDATASIZE PUSH1 0x1F NOT PUSH1 0x1F DUP3 ADD AND DUP3 ADD DUP1 PUSH1 0x40 MSTORE POP DUP2 ADD SWAP1 PUSH3 0x1288 SWAP2 SWAP1 PUSH3 0x28BC JUMP JUMPDEST POP JUMPDEST PUSH0 DUP2 PUSH1 0xF SIGNEXTEND SGT ISZERO PUSH3 0x147E JUMPI PUSH1 0x20 DUP5 ADD MLOAD PUSH1 0x1 PUSH1 0x1 PUSH1 0xA0 SHL SUB AND PUSH3 0x134F JUMPI PUSH1 0x20 DUP5 ADD MLOAD PUSH1 0x40 MLOAD PUSH4 0x6A256B29 PUSH1 0xE0 SHL DUP2 MSTORE PUSH1 0x1 PUSH1 0x1 PUSH1 0xA0 SHL SUB SWAP2 DUP3 AND PUSH1 0x4 DUP3 ADD MSTORE PUSH32 0x0 SWAP1 SWAP2 AND SWAP1 PUSH4 0x6A256B29 SWAP1 PUSH1 0x1 PUSH1 0x1 PUSH1 0x80 SHL SUB DUP5 AND SWAP1 PUSH1 0x24 ADD PUSH1 0x20 PUSH1 0x40 MLOAD DUP1 DUP4 SUB DUP2 DUP6 DUP9 GAS CALL ISZERO DUP1 ISZERO PUSH3 0x1321 JUMPI RETURNDATASIZE PUSH0 DUP1 RETURNDATACOPY RETURNDATASIZE PUSH0 REVERT JUMPDEST POP POP POP POP POP PUSH1 0x40 MLOAD RETURNDATASIZE PUSH1 0x1F NOT PUSH1 0x1F DUP3 ADD AND DUP3 ADD DUP1 PUSH1 0x40 MSTORE POP DUP2 ADD SWAP1 PUSH3 0x1348 SWAP2 SWAP1 PUSH3 0x28BC JUMP JUMPDEST POP PUSH3 0x147E JUMP JUMPDEST PUSH1 0x20 DUP5 ADD MLOAD PUSH1 0x1 PUSH1 0x1 PUSH1 0xA0 SHL SUB AND PUSH4 0x23B872DD DUP4 PUSH32 0x0 DUP5 PUSH1 0x40 MLOAD DUP5 PUSH4 0xFFFFFFFF AND PUSH1 0xE0 SHL DUP2 MSTORE PUSH1 0x4 ADD PUSH3 0x13A5 SWAP4 SWAP3 SWAP2 SWAP1 PUSH3 0x2936 JUMP JUMPDEST PUSH1 0x20 PUSH1 0x40 MLOAD DUP1 DUP4 SUB DUP2 PUSH0 DUP8 GAS CALL ISZERO DUP1 ISZERO PUSH3 0x13C2 JUMPI RETURNDATASIZE PUSH0 DUP1 RETURNDATACOPY RETURNDATASIZE PUSH0 REVERT JUMPDEST POP POP POP POP PUSH1 0x40 MLOAD RETURNDATASIZE PUSH1 0x1F NOT PUSH1 0x1F DUP3 ADD AND DUP3 ADD DUP1 PUSH1 0x40 MSTORE POP DUP2 ADD SWAP1 PUSH3 0x13E8 SWAP2 SWAP1 PUSH3 0x28D4 JUMP JUMPDEST POP PUSH1 0x20 DUP5 ADD MLOAD PUSH1 0x40 MLOAD PUSH4 0x6A256B29 PUSH1 0xE0 SHL DUP2 MSTORE PUSH1 0x1 PUSH1 0x1 PUSH1 0xA0 SHL SUB SWAP2 DUP3 AND PUSH1 0x4 DUP3 ADD MSTORE PUSH32 0x0 SWAP1 SWAP2 AND SWAP1 PUSH4 0x6A256B29 SWAP1 PUSH1 0x24 ADD PUSH1 0x20 PUSH1 0x40 MLOAD DUP1 DUP4 SUB DUP2 PUSH0 DUP8 GAS CALL ISZERO DUP1 ISZERO PUSH3 0x1456 JUMPI RETURNDATASIZE PUSH0 DUP1 RETURNDATACOPY RETURNDATASIZE PUSH0 REVERT JUMPDEST POP POP POP POP PUSH1 0x40 MLOAD RETURNDATASIZE PUSH1 0x1F NOT PUSH1 0x1F DUP3 ADD AND DUP3 ADD DUP1 PUSH1 0x40 MSTORE POP DUP2 ADD SWAP1 PUSH3 0x147C SWAP2 SWAP1 PUSH3 0x28BC JUMP JUMPDEST POP JUMPDEST PUSH0 PUSH3 0x148A DUP3 PUSH1 0x80 SHR SWAP1 JUMP JUMPDEST PUSH1 0xF SIGNEXTEND SLT ISZERO PUSH3 0x152E JUMPI PUSH32 0x0 PUSH1 0x1 PUSH1 0x1 PUSH1 0xA0 SHL SUB AND PUSH4 0xB0D9C09 DUP6 PUSH0 ADD MLOAD DUP5 PUSH3 0x14D3 DUP6 PUSH1 0x80 SHR SWAP1 JUMP JUMPDEST PUSH3 0x14DE SWAP1 PUSH3 0x2906 JUMP JUMPDEST PUSH1 0x40 MLOAD DUP5 PUSH4 0xFFFFFFFF AND PUSH1 0xE0 SHL DUP2 MSTORE PUSH1 0x4 ADD PUSH3 0x14FE SWAP4 SWAP3 SWAP2 SWAP1 PUSH3 0x2936 JUMP JUMPDEST PUSH0 PUSH1 0x40 MLOAD DUP1 DUP4 SUB DUP2 PUSH0 DUP8 DUP1 EXTCODESIZE ISZERO DUP1 ISZERO PUSH3 0x1516 JUMPI PUSH0 DUP1 REVERT JUMPDEST POP GAS CALL ISZERO DUP1 ISZERO PUSH3 0x1529 JUMPI RETURNDATASIZE PUSH0 DUP1 RETURNDATACOPY RETURNDATASIZE PUSH0 REVERT JUMPDEST POP POP POP POP JUMPDEST PUSH0 DUP2 PUSH1 0xF SIGNEXTEND SLT ISZERO PUSH3 0xD26 JUMPI PUSH32 0x0 PUSH1 0x1 PUSH1 0x1 PUSH1 0xA0 SHL SUB AND PUSH4 0xB0D9C09 DUP6 PUSH1 0x20 ADD MLOAD DUP5 PUSH3 0xCCB DUP6 SWAP1 JUMP JUMPDEST PUSH0 PUSH3 0x1582 PUSH3 0x1C9F JUMP JUMPDEST POP PUSH4 0xA910F80F PUSH1 0xE0 SHL SWAP7 SWAP6 POP POP POP POP POP POP JUMP JUMPDEST PUSH1 0x60 CALLER PUSH1 0x1 PUSH1 0x1 PUSH1 0xA0 SHL SUB PUSH32 0x0 AND EQ PUSH3 0x15E1 JUMPI PUSH1 0x40 MLOAD PUSH4 0x570C1085 PUSH1 0xE1 SHL DUP2 MSTORE PUSH1 0x4 ADD PUSH1 0x40 MLOAD DUP1 SWAP2 SUB SWAP1 REVERT JUMPDEST PUSH0 DUP1 ADDRESS PUSH1 0x1 PUSH1 0x1 PUSH1 0xA0 SHL SUB AND DUP6 DUP6 PUSH1 0x40 MLOAD PUSH3 0x15FF SWAP3 SWAP2 SWAP1 PUSH3 0x29A9 JUMP JUMPDEST PUSH0 PUSH1 0x40 MLOAD DUP1 DUP4 SUB DUP2 PUSH0 DUP7 GAS CALL SWAP2 POP POP RETURNDATASIZE DUP1 PUSH0 DUP2 EQ PUSH3 0x163A JUMPI PUSH1 0x40 MLOAD SWAP2 POP PUSH1 0x1F NOT PUSH1 0x3F RETURNDATASIZE ADD AND DUP3 ADD PUSH1 0x40 MSTORE RETURNDATASIZE DUP3 MSTORE RETURNDATASIZE PUSH0 PUSH1 0x20 DUP5 ADD RETURNDATACOPY PUSH3 0x163F JUMP JUMPDEST PUSH1 0x60 SWAP2 POP JUMPDEST POP SWAP2 POP SWAP2 POP DUP2 ISZERO PUSH3 0x1655 JUMPI SWAP2 POP PUSH3 0x167F SWAP1 POP JUMP JUMPDEST DUP1 MLOAD PUSH0 SUB PUSH3 0x1677 JUMPI PUSH1 0x40 MLOAD PUSH4 0x14815F47 PUSH1 0xE3 SHL DUP2 MSTORE PUSH1 0x4 ADD PUSH1 0x40 MLOAD DUP1 SWAP2 SUB SWAP1 REVERT JUMPDEST DUP1 MLOAD PUSH1 0x20 DUP3 ADD REVERT JUMPDEST SWAP3 SWAP2 POP POP JUMP JUMPDEST PUSH3 0x168F PUSH3 0x18B3 JUMP JUMPDEST PUSH4 0x389A75E1 PUSH1 0xC MSTORE DUP1 PUSH0 MSTORE PUSH1 0x20 PUSH1 0xC KECCAK256 DUP1 SLOAD TIMESTAMP GT ISZERO PUSH3 0x16B6 JUMPI PUSH4 0x6F5E8818 PUSH0 MSTORE PUSH1 0x4 PUSH1 0x1C REVERT JUMPDEST PUSH0 SWAP1 SSTORE PUSH3 0x668 DUP2 PUSH3 0x1C62 JUMP JUMPDEST PUSH3 0x16CE PUSH3 0x18B3 JUMP JUMPDEST PUSH0 SLOAD TIMESTAMP LT ISZERO PUSH3 0x1730 JUMPI PUSH1 0x40 MLOAD PUSH3 0x461BCD PUSH1 0xE5 SHL DUP2 MSTORE PUSH1 0x20 PUSH1 0x4 DUP3 ADD MSTORE PUSH1 0x26 PUSH1 0x24 DUP3 ADD MSTORE PUSH32 0x4661697254726164653A204F776E6572736869702063616E6E6F74206368616E PUSH1 0x44 DUP3 ADD MSTORE PUSH6 0x19D9481E595D PUSH1 0xD2 SHL PUSH1 0x64 DUP3 ADD MSTORE PUSH1 0x84 ADD PUSH3 0x5A3 JUMP JUMPDEST DUP1 PUSH1 0x60 SHL PUSH3 0x1746 JUMPI PUSH4 0x7448FBAE PUSH0 MSTORE PUSH1 0x4 PUSH1 0x1C REVERT JUMPDEST PUSH3 0x668 DUP2 PUSH3 0x1C62 JUMP JUMPDEST CALLER PUSH0 SWAP1 DUP2 MSTORE PUSH1 0xA PUSH1 0x20 MSTORE PUSH1 0x40 SWAP1 KECCAK256 SLOAD PUSH1 0xFF AND PUSH3 0x17B1 JUMPI PUSH1 0x40 MLOAD PUSH3 0x461BCD PUSH1 0xE5 SHL DUP2 MSTORE PUSH1 0x20 PUSH1 0x4 DUP3 ADD MSTORE PUSH1 0x17 PUSH1 0x24 DUP3 ADD MSTORE PUSH32 0x4661697254726164653A204E6F7420612066756E646572000000000000000000 PUSH1 0x44 DUP3 ADD MSTORE PUSH1 0x64 ADD PUSH3 0x5A3 JUMP JUMPDEST PUSH1 0x9 SLOAD PUSH2 0x100 SWAP1 DIV PUSH1 0x1 PUSH1 0x1 PUSH1 0xA0 SHL SUB AND ISZERO PUSH3 0x17E2 JUMPI PUSH1 0x40 MLOAD PUSH3 0x461BCD PUSH1 0xE5 SHL DUP2 MSTORE PUSH1 0x4 ADD PUSH3 0x5A3 SWAP1 PUSH3 0x2709 JUMP JUMPDEST CALLER PUSH0 DUP2 DUP2 MSTORE PUSH1 0xA PUSH1 0x20 MSTORE PUSH1 0x40 DUP1 DUP3 KECCAK256 DUP1 SLOAD PUSH1 0xFF NOT AND SWAP1 SSTORE MLOAD PUSH8 0x3782DACE9D90000 SWAP1 DUP3 DUP2 DUP2 DUP2 DUP6 DUP9 DUP4 CALL SWAP4 POP POP POP POP ISZERO DUP1 ISZERO PUSH3 0x668 JUMPI RETURNDATASIZE PUSH0 DUP1 RETURNDATACOPY RETURNDATASIZE PUSH0 REVERT JUMPDEST PUSH0 PUSH3 0x1830 PUSH4 0x8B78C6D8 NOT SLOAD SWAP1 JUMP JUMPDEST PUSH1 0x1 PUSH1 0x1 PUSH1 0xA0 SHL SUB AND CALLER SUB PUSH3 0x18A1 JUMPI PUSH0 SLOAD TIMESTAMP LT ISZERO PUSH3 0x18A1 JUMPI PUSH1 0x40 MLOAD PUSH3 0x461BCD PUSH1 0xE5 SHL DUP2 MSTORE PUSH1 0x20 PUSH1 0x4 DUP3 ADD MSTORE PUSH1 0x25 PUSH1 0x24 DUP3 ADD MSTORE PUSH32 0x4661697254726164653A204F776E65722063616E6E6F74206368616E6765204C PUSH1 0x44 DUP3 ADD MSTORE PUSH5 0x14081E595D PUSH1 0xDA SHL PUSH1 0x64 DUP3 ADD MSTORE PUSH1 0x84 ADD PUSH3 0x5A3 JUMP JUMPDEST POP PUSH4 0xFE9A6F45 PUSH1 0xE0 SHL SWAP6 SWAP5 POP POP POP POP POP JUMP JUMPDEST PUSH4 0x8B78C6D8 NOT SLOAD CALLER EQ PUSH3 0xFB3 JUMPI PUSH4 0x82B42900 PUSH0 MSTORE PUSH1 0x4 PUSH1 0x1C REVERT JUMPDEST PUSH32 0x0 PUSH1 0x40 MLOAD PUSH3 0x18FD SWAP1 PUSH3 0x20C0 JUMP JUMPDEST PUSH1 0x1 PUSH1 0x1 PUSH1 0xA0 SHL SUB SWAP1 SWAP2 AND DUP2 MSTORE PUSH1 0x20 ADD PUSH1 0x40 MLOAD DUP1 SWAP2 SUB SWAP1 PUSH0 CREATE DUP1 ISZERO DUP1 ISZERO PUSH3 0x1927 JUMPI RETURNDATASIZE PUSH0 DUP1 RETURNDATACOPY RETURNDATASIZE PUSH0 REVERT JUMPDEST POP PUSH1 0x1 DUP1 SLOAD PUSH1 0x1 PUSH1 0x1 PUSH1 0xA0 SHL SUB NOT AND PUSH1 0x1 PUSH1 0x1 PUSH1 0xA0 SHL SUB SWAP3 SWAP1 SWAP3 AND SWAP2 SWAP1 SWAP2 OR SWAP1 SSTORE PUSH1 0x40 MLOAD PUSH32 0x0 SWAP1 PUSH3 0x1978 SWAP1 PUSH3 0x20CE JUMP JUMPDEST PUSH1 0x1 PUSH1 0x1 PUSH1 0xA0 SHL SUB SWAP1 SWAP2 AND DUP2 MSTORE PUSH1 0x20 ADD PUSH1 0x40 MLOAD DUP1 SWAP2 SUB SWAP1 PUSH0 CREATE DUP1 ISZERO DUP1 ISZERO PUSH3 0x19A2 JUMPI RETURNDATASIZE PUSH0 DUP1 RETURNDATACOPY RETURNDATASIZE PUSH0 REVERT JUMPDEST POP PUSH1 0x2 DUP1 SLOAD PUSH1 0x1 PUSH1 0x1 PUSH1 0xA0 SHL SUB NOT SWAP1 DUP2 AND PUSH1 0x1 PUSH1 0x1 PUSH1 0xA0 SHL SUB SWAP4 DUP5 AND OR DUP3 SSTORE PUSH1 0x40 DUP1 MLOAD PUSH1 0xA0 DUP1 DUP3 ADD DUP4 MSTORE PUSH0 DUP1 DUP4 MSTORE PUSH1 0x9 SLOAD PUSH2 0x100 SWAP1 DIV DUP8 AND PUSH1 0x20 DUP1 DUP6 ADD DUP3 SWAP1 MSTORE PUSH2 0xBB8 DUP6 DUP8 ADD MSTORE PUSH1 0x3C PUSH1 0x60 DUP1 DUP8 ADD SWAP2 SWAP1 SWAP2 MSTORE ADDRESS PUSH1 0x80 SWAP7 DUP8 ADD DUP2 SWAP1 MSTORE PUSH1 0x3 DUP1 SLOAD DUP11 AND SWAP1 SSTORE PUSH1 0x4 DUP1 SLOAD PUSH1 0x1 PUSH1 0x1 PUSH1 0xB8 SHL SUB NOT AND SWAP1 SWAP5 OR PUSH2 0x177 PUSH1 0xA3 SHL OR PUSH3 0xFFFFFF PUSH1 0xB8 SHL NOT DUP2 AND PUSH1 0xF PUSH1 0xBA SHL OR SWAP5 DUP6 SWAP1 SSTORE PUSH1 0x5 DUP1 SLOAD SWAP1 SWAP11 AND DUP3 OR SWAP1 SWAP10 SSTORE DUP8 MLOAD SWAP6 DUP7 ADD DUP9 MSTORE SWAP4 DUP6 MSTORE SWAP7 SWAP1 SWAP9 AND SWAP8 DUP4 ADD SWAP8 SWAP1 SWAP8 MSTORE PUSH3 0xFFFFFF PUSH1 0x1 PUSH1 0xA0 SHL DUP9 DIV AND SWAP4 DUP3 ADD SWAP4 SWAP1 SWAP4 MSTORE PUSH1 0x1 PUSH1 0xB8 SHL SWAP1 SWAP6 DIV SWAP1 SWAP4 SIGNEXTEND SWAP2 DUP5 ADD SWAP2 SWAP1 SWAP2 MSTORE SWAP1 DUP3 ADD MSTORE PUSH3 0x1A86 SWAP1 PUSH3 0x2042 JUMP JUMPDEST PUSH1 0x6 DUP2 SWAP1 SSTORE POP PUSH32 0x0 PUSH1 0x1 PUSH1 0x1 PUSH1 0xA0 SHL SUB AND PUSH4 0x695C5BF5 PUSH1 0x3 PUSH1 0x1 PUSH1 0x60 SHL PUSH1 0x40 MLOAD PUSH1 0x20 ADD PUSH3 0x1ADD SWAP1 PUSH1 0x20 DUP1 DUP3 MSTORE PUSH0 SWAP1 DUP3 ADD MSTORE PUSH1 0x40 ADD SWAP1 JUMP JUMPDEST PUSH1 0x40 MLOAD PUSH1 0x20 DUP2 DUP4 SUB SUB DUP2 MSTORE SWAP1 PUSH1 0x40 MSTORE PUSH1 0x40 MLOAD DUP5 PUSH4 0xFFFFFFFF AND PUSH1 0xE0 SHL DUP2 MSTORE PUSH1 0x4 ADD PUSH3 0x1B0C SWAP4 SWAP3 SWAP2 SWAP1 PUSH3 0x29FD JUMP JUMPDEST PUSH1 0x20 PUSH1 0x40 MLOAD DUP1 DUP4 SUB DUP2 PUSH0 DUP8 GAS CALL ISZERO DUP1 ISZERO PUSH3 0x1B29 JUMPI RETURNDATASIZE PUSH0 DUP1 RETURNDATACOPY RETURNDATASIZE PUSH0 REVERT JUMPDEST POP POP POP POP PUSH1 0x40 MLOAD RETURNDATASIZE PUSH1 0x1F NOT PUSH1 0x1F DUP3 ADD AND DUP3 ADD DUP1 PUSH1 0x40 MSTORE POP DUP2 ADD SWAP1 PUSH3 0x668 SWAP2 SWAP1 PUSH3 0x2A3A JUMP JUMPDEST PUSH0 JUMPDEST PUSH1 0xB SLOAD DUP2 LT ISZERO PUSH3 0x668 JUMPI PUSH1 0xA PUSH0 PUSH1 0xB DUP4 DUP2 SLOAD DUP2 LT PUSH3 0x1B75 JUMPI PUSH3 0x1B75 PUSH3 0x2A58 JUMP JUMPDEST PUSH0 SWAP2 DUP3 MSTORE PUSH1 0x20 DUP1 DUP4 KECCAK256 SWAP1 SWAP2 ADD SLOAD PUSH1 0x1 PUSH1 0x1 PUSH1 0xA0 SHL SUB AND DUP4 MSTORE DUP3 ADD SWAP3 SWAP1 SWAP3 MSTORE PUSH1 0x40 ADD SWAP1 KECCAK256 SLOAD PUSH1 0xFF AND ISZERO PUSH3 0x1C4D JUMPI PUSH1 0x9 PUSH1 0x1 SWAP1 SLOAD SWAP1 PUSH2 0x100 EXP SWAP1 DIV PUSH1 0x1 PUSH1 0x1 PUSH1 0xA0 SHL SUB AND PUSH1 0x1 PUSH1 0x1 PUSH1 0xA0 SHL SUB AND PUSH4 0x40C10F19 PUSH1 0xB DUP4 DUP2 SLOAD DUP2 LT PUSH3 0x1BDC JUMPI PUSH3 0x1BDC PUSH3 0x2A58 JUMP JUMPDEST PUSH0 SWAP2 DUP3 MSTORE PUSH1 0x20 SWAP1 SWAP2 KECCAK256 ADD SLOAD PUSH1 0x40 MLOAD PUSH1 0xE0 DUP4 SWAP1 SHL PUSH1 0x1 PUSH1 0x1 PUSH1 0xE0 SHL SUB NOT AND DUP2 MSTORE PUSH1 0x1 PUSH1 0x1 PUSH1 0xA0 SHL SUB SWAP1 SWAP2 AND PUSH1 0x4 DUP3 ADD MSTORE PUSH9 0x3635C9ADC5DEA00000 PUSH1 0x24 DUP3 ADD MSTORE PUSH1 0x44 ADD PUSH0 PUSH1 0x40 MLOAD DUP1 DUP4 SUB DUP2 PUSH0 DUP8 DUP1 EXTCODESIZE ISZERO DUP1 ISZERO PUSH3 0x1C35 JUMPI PUSH0 DUP1 REVERT JUMPDEST POP GAS CALL ISZERO DUP1 ISZERO PUSH3 0x1C48 JUMPI RETURNDATASIZE PUSH0 DUP1 RETURNDATACOPY RETURNDATASIZE PUSH0 REVERT JUMPDEST POP POP POP POP JUMPDEST DUP1 PUSH3 0x1C59 DUP2 PUSH3 0x2A6C JUMP JUMPDEST SWAP2 POP POP PUSH3 0x1B51 JUMP JUMPDEST PUSH4 0x8B78C6D8 NOT DUP1 SLOAD PUSH1 0x1 PUSH1 0x1 PUSH1 0xA0 SHL SUB SWAP1 SWAP3 AND SWAP2 DUP3 SWAP1 PUSH32 0x8BE0079C531659141344CD1FD0A4F28419497F9722A3DAAFE3B4186F6B6457E0 PUSH0 DUP1 LOG3 SSTORE JUMP JUMPDEST PUSH1 0x9 SLOAD PUSH1 0x40 MLOAD PUSH4 0x40C10F19 PUSH1 0xE0 SHL DUP2 MSTORE ADDRESS PUSH1 0x4 DUP3 ADD MSTORE PUSH9 0x3635C9ADC5DEA00000 PUSH1 0x24 DUP3 ADD MSTORE PUSH2 0x100 SWAP1 SWAP2 DIV PUSH1 0x1 PUSH1 0x1 PUSH1 0xA0 SHL SUB AND SWAP1 PUSH4 0x40C10F19 SWAP1 PUSH1 0x44 ADD PUSH0 PUSH1 0x40 MLOAD DUP1 DUP4 SUB DUP2 PUSH0 DUP8 DUP1 EXTCODESIZE ISZERO DUP1 ISZERO PUSH3 0x1CF5 JUMPI PUSH0 DUP1 REVERT JUMPDEST POP GAS CALL ISZERO DUP1 ISZERO PUSH3 0x1D08 JUMPI RETURNDATASIZE PUSH0 DUP1 RETURNDATACOPY RETURNDATASIZE PUSH0 REVERT JUMPDEST POP POP PUSH1 0x9 SLOAD PUSH1 0x1 SLOAD PUSH1 0x40 MLOAD PUSH4 0x95EA7B3 PUSH1 0xE0 SHL DUP2 MSTORE PUSH1 0x1 PUSH1 0x1 PUSH1 0xA0 SHL SUB SWAP2 DUP3 AND PUSH1 0x4 DUP3 ADD MSTORE PUSH9 0x3635C9ADC5DEA00000 PUSH1 0x24 DUP3 ADD MSTORE PUSH2 0x100 SWAP1 SWAP3 DIV AND SWAP3 POP PUSH4 0x95EA7B3 SWAP2 POP PUSH1 0x44 ADD PUSH1 0x20 PUSH1 0x40 MLOAD DUP1 DUP4 SUB DUP2 PUSH0 DUP8 GAS CALL ISZERO DUP1 ISZERO PUSH3 0x1D6C JUMPI RETURNDATASIZE PUSH0 DUP1 RETURNDATACOPY RETURNDATASIZE PUSH0 REVERT JUMPDEST POP POP POP POP PUSH1 0x40 MLOAD RETURNDATASIZE PUSH1 0x1F NOT PUSH1 0x1F DUP3 ADD AND DUP3 ADD DUP1 PUSH1 0x40 MSTORE POP DUP2 ADD SWAP1 PUSH3 0x1D92 SWAP2 SWAP1 PUSH3 0x28D4 JUMP JUMPDEST POP PUSH1 0x1 SLOAD SELFBALANCE SWAP1 PUSH1 0x1 PUSH1 0x1 PUSH1 0xA0 SHL SUB AND PUSH4 0x555A4733 PUSH3 0x1DB3 PUSH1 0x2 DUP5 PUSH3 0x2A9B JUMP JUMPDEST PUSH1 0x3 PUSH1 0x40 MLOAD DUP1 PUSH1 0x60 ADD PUSH1 0x40 MSTORE DUP1 PUSH3 0x1DCC PUSH1 0x3C PUSH3 0x2073 JUMP JUMPDEST PUSH1 0x2 SIGNEXTEND DUP2 MSTORE PUSH1 0x20 ADD PUSH3 0x1DE0 PUSH1 0x3C PUSH3 0x2097 JUMP JUMPDEST PUSH1 0x2 SIGNEXTEND DUP2 MSTORE PUSH1 0x20 ADD PUSH1 0x2 DUP8 PUSH3 0x1DF7 SWAP2 SWAP1 PUSH3 0x2A9B JUMP JUMPDEST DUP2 MSTORE POP PUSH1 0x40 MLOAD DUP5 PUSH4 0xFFFFFFFF AND PUSH1 0xE0 SHL DUP2 MSTORE PUSH1 0x4 ADD PUSH3 0x1E19 SWAP3 SWAP2 SWAP1 PUSH3 0x2ABB JUMP JUMPDEST PUSH1 0x20 PUSH1 0x40 MLOAD DUP1 DUP4 SUB DUP2 DUP6 DUP9 GAS CALL ISZERO DUP1 ISZERO PUSH3 0x1E36 JUMPI RETURNDATASIZE PUSH0 DUP1 RETURNDATACOPY RETURNDATASIZE PUSH0 REVERT JUMPDEST POP POP POP POP POP PUSH1 0x40 MLOAD RETURNDATASIZE PUSH1 0x1F NOT PUSH1 0x1F DUP3 ADD AND DUP3 ADD DUP1 PUSH1 0x40 MSTORE POP DUP2 ADD SWAP1 PUSH3 0x1E5D SWAP2 SWAP1 PUSH3 0x28BC JUMP JUMPDEST POP PUSH1 0x1 SLOAD PUSH1 0x1 PUSH1 0x1 PUSH1 0xA0 SHL SUB AND PUSH4 0x555A4733 PUSH3 0x1E7C PUSH1 0xA DUP5 PUSH3 0x2A9B JUMP JUMPDEST PUSH1 0x40 DUP1 MLOAD PUSH1 0x60 DUP2 ADD DUP3 MSTORE PUSH1 0x3B NOT DUP2 MSTORE PUSH1 0x3C PUSH1 0x20 DUP3 ADD MSTORE PUSH1 0x3 SWAP2 DUP2 ADD PUSH3 0x1EA4 PUSH1 0xA DUP9 PUSH3 0x2A9B JUMP JUMPDEST DUP2 MSTORE POP PUSH1 0x40 MLOAD DUP5 PUSH4 0xFFFFFFFF AND PUSH1 0xE0 SHL DUP2 MSTORE PUSH1 0x4 ADD PUSH3 0x1EC6 SWAP3 SWAP2 SWAP1 PUSH3 0x2ABB JUMP JUMPDEST PUSH1 0x20 PUSH1 0x40 MLOAD DUP1 DUP4 SUB DUP2 DUP6 DUP9 GAS CALL ISZERO DUP1 ISZERO PUSH3 0x1EE3 JUMPI RETURNDATASIZE PUSH0 DUP1 RETURNDATACOPY RETURNDATASIZE PUSH0 REVERT JUMPDEST POP POP POP POP POP PUSH1 0x40 MLOAD RETURNDATASIZE PUSH1 0x1F NOT PUSH1 0x1F DUP3 ADD AND DUP3 ADD DUP1 PUSH1 0x40 MSTORE POP DUP2 ADD SWAP1 PUSH3 0x1F0A SWAP2 SWAP1 PUSH3 0x28BC JUMP JUMPDEST POP PUSH1 0x1 SLOAD PUSH1 0x1 PUSH1 0x1 PUSH1 0xA0 SHL SUB AND PUSH4 0x555A4733 PUSH3 0x1F29 PUSH1 0xA DUP5 PUSH3 0x2A9B JUMP JUMPDEST PUSH1 0x40 DUP1 MLOAD PUSH1 0x60 DUP2 ADD DUP3 MSTORE PUSH1 0x77 NOT DUP2 MSTORE PUSH1 0x78 PUSH1 0x20 DUP3 ADD MSTORE PUSH1 0x3 SWAP2 DUP2 ADD PUSH3 0x1F51 PUSH1 0xA DUP9 PUSH3 0x2A9B JUMP JUMPDEST DUP2 MSTORE POP PUSH1 0x40 MLOAD DUP5 PUSH4 0xFFFFFFFF AND PUSH1 0xE0 SHL DUP2 MSTORE PUSH1 0x4 ADD PUSH3 0x1F73 SWAP3 SWAP2 SWAP1 PUSH3 0x2ABB JUMP JUMPDEST PUSH1 0x20 PUSH1 0x40 MLOAD DUP1 DUP4 SUB DUP2 DUP6 DUP9 GAS CALL ISZERO DUP1 ISZERO PUSH3 0x1F90 JUMPI RETURNDATASIZE PUSH0 DUP1 RETURNDATACOPY RETURNDATASIZE PUSH0 REVERT JUMPDEST POP POP POP POP POP PUSH1 0x40 MLOAD RETURNDATASIZE PUSH1 0x1F NOT PUSH1 0x1F DUP3 ADD AND DUP3 ADD DUP1 PUSH1 0x40 MSTORE POP DUP2 ADD SWAP1 PUSH3 0x1FB7 SWAP2 SWAP1 PUSH3 0x28BC JUMP JUMPDEST POP PUSH1 0x9 SLOAD PUSH1 0x2 SLOAD PUSH1 0x40 MLOAD PUSH4 0x95EA7B3 PUSH1 0xE0 SHL DUP2 MSTORE PUSH1 0x1 PUSH1 0x1 PUSH1 0xA0 SHL SUB SWAP2 DUP3 AND PUSH1 0x4 DUP3 ADD MSTORE PUSH9 0x3635C9ADC5DEA00000 PUSH1 0x24 DUP3 ADD MSTORE PUSH2 0x100 SWAP1 SWAP3 DIV AND SWAP1 PUSH4 0x95EA7B3 SWAP1 PUSH1 0x44 ADD PUSH1 0x20 PUSH1 0x40 MLOAD DUP1 DUP4 SUB DUP2 PUSH0 DUP8 GAS CALL ISZERO DUP1 ISZERO PUSH3 0x2018 JUMPI RETURNDATASIZE PUSH0 DUP1 RETURNDATACOPY RETURNDATASIZE PUSH0 REVERT JUMPDEST POP POP POP POP PUSH1 0x40 MLOAD RETURNDATASIZE PUSH1 0x1F NOT PUSH1 0x1F DUP3 ADD AND DUP3 ADD DUP1 PUSH1 0x40 MSTORE POP DUP2 ADD SWAP1 PUSH3 0x203E SWAP2 SWAP1 PUSH3 0x28D4 JUMP JUMPDEST POP POP JUMP JUMPDEST PUSH0 DUP2 PUSH1 0x40 MLOAD PUSH1 0x20 ADD PUSH3 0x2056 SWAP2 SWAP1 PUSH3 0x2AF4 JUMP JUMPDEST PUSH1 0x40 MLOAD PUSH1 0x20 DUP2 DUP4 SUB SUB DUP2 MSTORE SWAP1 PUSH1 0x40 MSTORE DUP1 MLOAD SWAP1 PUSH1 0x20 ADD KECCAK256 SWAP1 POP SWAP2 SWAP1 POP JUMP JUMPDEST PUSH0 DUP2 PUSH1 0x2 DUP2 SWAP1 SIGNEXTEND PUSH3 0xD89E7 NOT DUP2 PUSH3 0x208F JUMPI PUSH3 0x208F PUSH3 0x2A87 JUMP JUMPDEST SDIV MUL SWAP3 SWAP2 POP POP JUMP JUMPDEST PUSH0 DUP2 PUSH1 0x2 DUP2 SWAP1 SIGNEXTEND PUSH3 0xD89E8 DUP2 PUSH3 0x208F JUMPI PUSH3 0x208F PUSH3 0x2A87 JUMP JUMPDEST PUSH2 0xF8F DUP1 PUSH3 0x2B05 DUP4 CODECOPY ADD SWAP1 JUMP JUMPDEST PUSH2 0xEDF DUP1 PUSH3 0x3A94 DUP4 CODECOPY ADD SWAP1 JUMP JUMPDEST PUSH2 0x1316 DUP1 PUSH3 0x4973 DUP4 CODECOPY ADD SWAP1 JUMP JUMPDEST PUSH1 0x1 PUSH1 0x1 PUSH1 0xA0 SHL SUB DUP2 AND DUP2 EQ PUSH3 0x668 JUMPI PUSH0 DUP1 REVERT JUMPDEST PUSH0 PUSH1 0x20 DUP3 DUP5 SUB SLT ISZERO PUSH3 0x2102 JUMPI PUSH0 DUP1 REVERT JUMPDEST DUP2 CALLDATALOAD PUSH3 0xD26 DUP2 PUSH3 0x20DC JUMP JUMPDEST PUSH0 PUSH1 0xA0 DUP3 DUP5 SUB SLT ISZERO PUSH3 0x2120 JUMPI PUSH0 DUP1 REVERT JUMPDEST POP SWAP2 SWAP1 POP JUMP JUMPDEST PUSH0 PUSH1 0x60 DUP3 DUP5 SUB SLT ISZERO PUSH3 0x2120 JUMPI PUSH0 DUP1 REVERT JUMPDEST PUSH0 DUP1 DUP4 PUSH1 0x1F DUP5 ADD SLT PUSH3 0x2148 JUMPI PUSH0 DUP1 REVERT JUMPDEST POP DUP2 CALLDATALOAD PUSH8 0xFFFFFFFFFFFFFFFF DUP2 GT ISZERO PUSH3 0x2160 JUMPI PUSH0 DUP1 REVERT JUMPDEST PUSH1 0x20 DUP4 ADD SWAP2 POP DUP4 PUSH1 0x20 DUP3 DUP6 ADD ADD GT ISZERO PUSH3 0x2178 JUMPI PUSH0 DUP1 REVERT JUMPDEST SWAP3 POP SWAP3 SWAP1 POP JUMP JUMPDEST PUSH0 DUP1 PUSH0 DUP1 PUSH0 DUP1 PUSH2 0x160 DUP8 DUP10 SUB SLT ISZERO PUSH3 0x2196 JUMPI PUSH0 DUP1 REVERT JUMPDEST DUP7 CALLDATALOAD PUSH3 0x21A3 DUP2 PUSH3 0x20DC JUMP JUMPDEST SWAP6 POP PUSH3 0x21B4 DUP9 PUSH1 0x20 DUP10 ADD PUSH3 0x210F JUMP JUMPDEST SWAP5 POP PUSH3 0x21C5 DUP9 PUSH1 0xC0 DUP10 ADD PUSH3 0x2126 JUMP JUMPDEST SWAP4 POP PUSH2 0x120 DUP8 ADD CALLDATALOAD SWAP3 POP PUSH2 0x140 DUP8 ADD CALLDATALOAD PUSH8 0xFFFFFFFFFFFFFFFF DUP2 GT ISZERO PUSH3 0x21EA JUMPI PUSH0 DUP1 REVERT JUMPDEST PUSH3 0x21F8 DUP10 DUP3 DUP11 ADD PUSH3 0x2137 JUMP JUMPDEST SWAP8 SWAP11 SWAP7 SWAP10 POP SWAP5 SWAP8 POP SWAP3 SWAP6 SWAP4 SWAP5 SWAP3 POP POP POP JUMP JUMPDEST PUSH1 0x40 MLOAD PUSH1 0x60 DUP2 ADD PUSH8 0xFFFFFFFFFFFFFFFF DUP2 GT DUP3 DUP3 LT OR ISZERO PUSH3 0x223A JUMPI PUSH4 0x4E487B71 PUSH1 0xE0 SHL PUSH0 MSTORE PUSH1 0x41 PUSH1 0x4 MSTORE PUSH1 0x24 PUSH0 REVERT JUMPDEST PUSH1 0x40 MSTORE SWAP1 JUMP JUMPDEST DUP1 PUSH1 0x2 SIGNEXTEND DUP2 EQ PUSH3 0x668 JUMPI PUSH0 DUP1 REVERT JUMPDEST PUSH0 PUSH1 0xA0 DUP3 DUP5 SUB SLT ISZERO PUSH3 0x2260 JUMPI PUSH0 DUP1 REVERT JUMPDEST PUSH1 0x40 MLOAD PUSH1 0xA0 DUP2 ADD DUP2 DUP2 LT PUSH8 0xFFFFFFFFFFFFFFFF DUP3 GT OR ISZERO PUSH3 0x2290 JUMPI PUSH4 0x4E487B71 PUSH1 0xE0 SHL PUSH0 MSTORE PUSH1 0x41 PUSH1 0x4 MSTORE PUSH1 0x24 PUSH0 REVERT JUMPDEST PUSH1 0x40 MSTORE SWAP1 POP DUP1 DUP3 CALLDATALOAD PUSH3 0x22A3 DUP2 PUSH3 0x20DC JUMP JUMPDEST DUP2 MSTORE PUSH1 0x20 DUP4 ADD CALLDATALOAD PUSH3 0x22B5 DUP2 PUSH3 0x20DC JUMP JUMPDEST PUSH1 0x20 DUP3 ADD MSTORE PUSH1 0x40 DUP4 ADD CALLDATALOAD PUSH3 0xFFFFFF DUP2 AND DUP2 EQ PUSH3 0x22D0 JUMPI PUSH0 DUP1 REVERT JUMPDEST PUSH1 0x40 DUP3 ADD MSTORE PUSH1 0x60 DUP4 ADD CALLDATALOAD PUSH3 0x22E5 DUP2 PUSH3 0x2240 JUMP JUMPDEST PUSH1 0x60 DUP3 ADD MSTORE PUSH1 0x80 DUP4 ADD CALLDATALOAD PUSH3 0x22FA DUP2 PUSH3 0x20DC JUMP JUMPDEST PUSH1 0x80 SWAP2 SWAP1 SWAP2 ADD MSTORE SWAP3 SWAP2 POP POP JUMP JUMPDEST DUP1 ISZERO ISZERO DUP2 EQ PUSH3 0x668 JUMPI PUSH0 DUP1 REVERT JUMPDEST PUSH0 DUP1 PUSH0 DUP4 DUP6 SUB PUSH2 0x120 DUP2 SLT ISZERO PUSH3 0x232A JUMPI PUSH0 DUP1 REVERT JUMPDEST PUSH3 0x2336 DUP7 DUP7 PUSH3 0x224F JUMP JUMPDEST SWAP4 POP PUSH1 0x60 PUSH1 0x9F NOT DUP3 ADD SLT ISZERO PUSH3 0x234A JUMPI PUSH0 DUP1 REVERT JUMPDEST POP PUSH3 0x2355 PUSH3 0x220A JUMP JUMPDEST PUSH1 0xA0 DUP6 ADD CALLDATALOAD PUSH3 0x2365 DUP2 PUSH3 0x2307 JUMP JUMPDEST DUP2 MSTORE PUSH1 0xC0 DUP6 ADD CALLDATALOAD PUSH1 0x20 DUP3 ADD MSTORE PUSH1 0xE0 DUP6 ADD CALLDATALOAD PUSH3 0x2381 DUP2 PUSH3 0x20DC JUMP JUMPDEST PUSH1 0x40 DUP3 ADD MSTORE SWAP2 POP PUSH2 0x100 DUP5 ADD CALLDATALOAD PUSH3 0x2399 DUP2 PUSH3 0x20DC JUMP JUMPDEST DUP1 SWAP2 POP POP SWAP3 POP SWAP3 POP SWAP3 JUMP JUMPDEST PUSH0 DUP1 PUSH0 DUP1 PUSH0 PUSH2 0x100 DUP7 DUP9 SUB SLT ISZERO PUSH3 0x23BA JUMPI PUSH0 DUP1 REVERT JUMPDEST DUP6 CALLDATALOAD PUSH3 0x23C7 DUP2 PUSH3 0x20DC JUMP JUMPDEST SWAP5 POP PUSH3 0x23D8 DUP8 PUSH1 0x20 DUP9 ADD PUSH3 0x210F JUMP JUMPDEST SWAP4 POP PUSH1 0xC0 DUP7 ADD CALLDATALOAD PUSH3 0x23EA DUP2 PUSH3 0x20DC JUMP JUMPDEST SWAP3 POP PUSH1 0xE0 DUP7 ADD CALLDATALOAD PUSH8 0xFFFFFFFFFFFFFFFF DUP2 GT ISZERO PUSH3 0x2406 JUMPI PUSH0 DUP1 REVERT JUMPDEST PUSH3 0x2414 DUP9 DUP3 DUP10 ADD PUSH3 0x2137 JUMP JUMPDEST SWAP7 SWAP10 SWAP6 SWAP9 POP SWAP4 SWAP7 POP SWAP3 SWAP5 SWAP4 SWAP3 POP POP POP JUMP JUMPDEST PUSH0 DUP1 PUSH0 DUP1 PUSH0 PUSH2 0x140 DUP7 DUP9 SUB SLT ISZERO PUSH3 0x243B JUMPI PUSH0 DUP1 REVERT JUMPDEST DUP6 CALLDATALOAD PUSH3 0x2448 DUP2 PUSH3 0x20DC JUMP JUMPDEST SWAP5 POP PUSH3 0x2459 DUP8 PUSH1 0x20 DUP9 ADD PUSH3 0x210F JUMP JUMPDEST SWAP4 POP PUSH3 0x246A DUP8 PUSH1 0xC0 DUP9 ADD PUSH3 0x2126 JUMP JUMPDEST SWAP3 POP PUSH2 0x120 DUP7 ADD CALLDATALOAD PUSH8 0xFFFFFFFFFFFFFFFF DUP2 GT ISZERO PUSH3 0x2406 JUMPI PUSH0 DUP1 REVERT JUMPDEST PUSH0 PUSH2 0x100 DUP3 ADD SWAP1 POP DUP3 MLOAD ISZERO ISZERO DUP3 MSTORE PUSH1 0x20 DUP4 ADD MLOAD ISZERO ISZERO PUSH1 0x20 DUP4 ADD MSTORE PUSH1 0x40 DUP4 ADD MLOAD ISZERO ISZERO PUSH1 0x40 DUP4 ADD MSTORE PUSH1 0x60 DUP4 ADD MLOAD ISZERO ISZERO PUSH1 0x60 DUP4 ADD MSTORE PUSH1 0x80 DUP4 ADD MLOAD PUSH3 0x24CD PUSH1 0x80 DUP5 ADD DUP3 ISZERO ISZERO SWAP1 MSTORE JUMP JUMPDEST POP PUSH1 0xA0 DUP4 ADD MLOAD PUSH3 0x24E2 PUSH1 0xA0 DUP5 ADD DUP3 ISZERO ISZERO SWAP1 MSTORE JUMP JUMPDEST POP PUSH1 0xC0 DUP4 ADD MLOAD PUSH3 0x24F7 PUSH1 0xC0 DUP5 ADD DUP3 ISZERO ISZERO SWAP1 MSTORE JUMP JUMPDEST POP PUSH1 0xE0 DUP4 ADD MLOAD PUSH3 0x250C PUSH1 0xE0 DUP5 ADD DUP3 ISZERO ISZERO SWAP1 MSTORE JUMP JUMPDEST POP SWAP3 SWAP2 POP POP JUMP JUMPDEST PUSH0 DUP1 PUSH0 DUP4 DUP6 SUB PUSH2 0x120 DUP2 SLT ISZERO PUSH3 0x2528 JUMPI PUSH0 DUP1 REVERT JUMPDEST PUSH3 0x2534 DUP7 DUP7 PUSH3 0x224F JUMP JUMPDEST SWAP4 POP PUSH1 0x60 PUSH1 0x9F NOT DUP3 ADD SLT ISZERO PUSH3 0x2548 JUMPI PUSH0 DUP1 REVERT JUMPDEST POP PUSH3 0x2553 PUSH3 0x220A JUMP JUMPDEST PUSH1 0xA0 DUP6 ADD CALLDATALOAD PUSH3 0x2563 DUP2 PUSH3 0x2240 JUMP JUMPDEST DUP2 MSTORE PUSH1 0xC0 DUP6 ADD CALLDATALOAD PUSH3 0x2575 DUP2 PUSH3 0x2240 JUMP JUMPDEST PUSH1 0x20 DUP3 ADD MSTORE PUSH1 0xE0 DUP6 ADD CALLDATALOAD PUSH1 0x40 DUP3 ADD MSTORE SWAP2 POP PUSH2 0x100 DUP5 ADD CALLDATALOAD PUSH3 0x2399 DUP2 PUSH3 0x20DC JUMP JUMPDEST PUSH0 DUP1 PUSH0 DUP1 PUSH0 DUP1 PUSH2 0x120 DUP8 DUP10 SUB SLT ISZERO PUSH3 0x25AE JUMPI PUSH0 DUP1 REVERT JUMPDEST DUP7 CALLDATALOAD PUSH3 0x25BB DUP2 PUSH3 0x20DC JUMP JUMPDEST SWAP6 POP PUSH3 0x25CC DUP9 PUSH1 0x20 DUP10 ADD PUSH3 0x210F JUMP JUMPDEST SWAP5 POP PUSH1 0xC0 DUP8 ADD CALLDATALOAD PUSH3 0x25DE DUP2 PUSH3 0x20DC JUMP JUMPDEST SWAP4 POP PUSH1 0xE0 DUP8 ADD CALLDATALOAD PUSH3 0x25F0 DUP2 PUSH3 0x2240 JUMP JUMPDEST SWAP3 POP PUSH2 0x100 DUP8 ADD CALLDATALOAD PUSH8 0xFFFFFFFFFFFFFFFF DUP2 GT ISZERO PUSH3 0x21EA JUMPI PUSH0 DUP1 REVERT JUMPDEST PUSH0 DUP1 PUSH1 0x20 DUP4 DUP6 SUB SLT ISZERO PUSH3 0x261F JUMPI PUSH0 DUP1 REVERT JUMPDEST DUP3 CALLDATALOAD PUSH8 0xFFFFFFFFFFFFFFFF DUP2 GT ISZERO PUSH3 0x2636 JUMPI PUSH0 DUP1 REVERT JUMPDEST PUSH3 0x2644 DUP6 DUP3 DUP7 ADD PUSH3 0x2137 JUMP JUMPDEST SWAP1 SWAP7 SWAP1 SWAP6 POP SWAP4 POP POP POP POP JUMP JUMPDEST PUSH0 DUP2 MLOAD DUP1 DUP5 MSTORE PUSH0 JUMPDEST DUP2 DUP2 LT ISZERO PUSH3 0x2676 JUMPI PUSH1 0x20 DUP2 DUP6 ADD DUP2 ADD MLOAD DUP7 DUP4 ADD DUP3 ADD MSTORE ADD PUSH3 0x2658 JUMP JUMPDEST POP PUSH0 PUSH1 0x20 DUP3 DUP7 ADD ADD MSTORE PUSH1 0x20 PUSH1 0x1F NOT PUSH1 0x1F DUP4 ADD AND DUP6 ADD ADD SWAP2 POP POP SWAP3 SWAP2 POP POP JUMP JUMPDEST PUSH1 0x20 DUP2 MSTORE PUSH0 PUSH3 0xD26 PUSH1 0x20 DUP4 ADD DUP5 PUSH3 0x2650 JUMP JUMPDEST PUSH0 DUP1 PUSH0 DUP1 PUSH0 DUP1 PUSH2 0x120 DUP8 DUP10 SUB SLT ISZERO PUSH3 0x26C0 JUMPI PUSH0 DUP1 REVERT JUMPDEST DUP7 CALLDATALOAD PUSH3 0x26CD DUP2 PUSH3 0x20DC JUMP JUMPDEST SWAP6 POP PUSH3 0x26DE DUP9 PUSH1 0x20 DUP10 ADD PUSH3 0x210F JUMP JUMPDEST SWAP5 POP PUSH1 0xC0 DUP8 ADD CALLDATALOAD SWAP4 POP PUSH1 0xE0 DUP8 ADD CALLDATALOAD SWAP3 POP PUSH2 0x100 DUP8 ADD CALLDATALOAD PUSH8 0xFFFFFFFFFFFFFFFF DUP2 GT ISZERO PUSH3 0x21EA JUMPI PUSH0 DUP1 REVERT JUMPDEST PUSH1 0x20 DUP1 DUP3 MSTORE PUSH1 0x1C SWAP1 DUP3 ADD MSTORE PUSH32 0x4661697254726164653A20546F6B656E20616C72656164792073657400000000 PUSH1 0x40 DUP3 ADD MSTORE PUSH1 0x60 ADD SWAP1 JUMP JUMPDEST DUP1 SLOAD PUSH0 SWAP1 PUSH1 0x1 DUP2 DUP2 SHR SWAP1 DUP1 DUP4 AND DUP1 PUSH3 0x275A JUMPI PUSH1 0x7F DUP4 AND SWAP3 POP JUMPDEST PUSH1 0x20 DUP1 DUP5 LT DUP3 SUB PUSH3 0x277A JUMPI PUSH4 0x4E487B71 PUSH1 0xE0 SHL PUSH0 MSTORE PUSH1 0x22 PUSH1 0x4 MSTORE PUSH1 0x24 PUSH0 REVERT JUMPDEST DUP4 DUP9 MSTORE PUSH1 0x20 DUP9 ADD DUP3 DUP1 ISZERO PUSH3 0x2798 JUMPI PUSH1 0x1 DUP2 EQ PUSH3 0x27AF JUMPI PUSH3 0x27DA JUMP JUMPDEST PUSH1 0xFF NOT DUP8 AND DUP3 MSTORE DUP6 ISZERO ISZERO PUSH1 0x5 SHL DUP3 ADD SWAP8 POP PUSH3 0x27DA JUMP JUMPDEST PUSH0 DUP10 DUP2 MSTORE PUSH1 0x20 SWAP1 KECCAK256 PUSH0 JUMPDEST DUP8 DUP2 LT ISZERO PUSH3 0x27D4 JUMPI DUP2 SLOAD DUP5 DUP3 ADD MSTORE SWAP1 DUP7 ADD SWAP1 DUP5 ADD PUSH3 0x27B9 JUMP JUMPDEST DUP4 ADD SWAP9 POP POP JUMPDEST POP POP POP POP POP POP POP SWAP3 SWAP2 POP POP JUMP JUMPDEST PUSH1 0x60 DUP2 MSTORE PUSH0 PUSH3 0x27FB PUSH1 0x60 DUP4 ADD DUP7 PUSH3 0x2740 JUMP JUMPDEST DUP3 DUP2 SUB PUSH1 0x20 DUP5 ADD MSTORE PUSH3 0x280F DUP2 DUP7 PUSH3 0x2740 JUMP JUMPDEST SWAP2 POP POP PUSH1 0xFF DUP4 AND PUSH1 0x40 DUP4 ADD MSTORE SWAP5 SWAP4 POP POP POP POP JUMP JUMPDEST DUP1 MLOAD PUSH1 0x1 PUSH1 0x1 PUSH1 0xA0 SHL SUB SWAP1 DUP2 AND DUP4 MSTORE PUSH1 0x20 DUP1 DUP4 ADD MLOAD DUP3 AND SWAP1 DUP5 ADD MSTORE PUSH1 0x40 DUP1 DUP4 ADD MLOAD PUSH3 0xFFFFFF AND SWAP1 DUP5 ADD MSTORE PUSH1 0x60 DUP1 DUP4 ADD MLOAD PUSH1 0x2 SIGNEXTEND SWAP1 DUP5 ADD MSTORE PUSH1 0x80 SWAP2 DUP3 ADD MLOAD AND SWAP2 ADD MSTORE JUMP JUMPDEST PUSH0 PUSH2 0x120 PUSH3 0x2876 DUP4 DUP8 PUSH3 0x2823 JUMP JUMPDEST DUP5 MLOAD ISZERO ISZERO PUSH1 0xA0 DUP5 ADD MSTORE PUSH1 0x20 DUP6 ADD MLOAD PUSH1 0xC0 DUP5 ADD MSTORE PUSH1 0x40 DUP6 ADD MLOAD PUSH1 0x1 PUSH1 0x1 PUSH1 0xA0 SHL SUB AND PUSH1 0xE0 DUP5 ADD MSTORE PUSH2 0x100 DUP4 ADD DUP2 SWAP1 MSTORE PUSH3 0x28B2 DUP2 DUP5 ADD DUP6 PUSH3 0x2650 JUMP JUMPDEST SWAP7 SWAP6 POP POP POP POP POP POP JUMP JUMPDEST PUSH0 PUSH1 0x20 DUP3 DUP5 SUB SLT ISZERO PUSH3 0x28CD JUMPI PUSH0 DUP1 REVERT JUMPDEST POP MLOAD SWAP2 SWAP1 POP JUMP JUMPDEST PUSH0 PUSH1 0x20 DUP3 DUP5 SUB SLT ISZERO PUSH3 0x28E5 JUMPI PUSH0 DUP1 REVERT JUMPDEST DUP2 MLOAD PUSH3 0xD26 DUP2 PUSH3 0x2307 JUMP JUMPDEST PUSH4 0x4E487B71 PUSH1 0xE0 SHL PUSH0 MSTORE PUSH1 0x11 PUSH1 0x4 MSTORE PUSH1 0x24 PUSH0 REVERT JUMPDEST PUSH0 DUP2 PUSH1 0xF SIGNEXTEND PUSH16 0x7FFFFFFFFFFFFFFFFFFFFFFFFFFFFFFF NOT DUP2 SUB PUSH3 0x292E JUMPI PUSH3 0x292E PUSH3 0x28F2 JUMP JUMPDEST PUSH0 SUB SWAP3 SWAP2 POP POP JUMP JUMPDEST PUSH1 0x1 PUSH1 0x1 PUSH1 0xA0 SHL SUB SWAP4 DUP5 AND DUP2 MSTORE SWAP2 SWAP1 SWAP3 AND PUSH1 0x20 DUP3 ADD MSTORE PUSH1 0x1 PUSH1 0x1 PUSH1 0x80 SHL SUB SWAP1 SWAP2 AND PUSH1 0x40 DUP3 ADD MSTORE PUSH1 0x60 ADD SWAP1 JUMP JUMPDEST PUSH0 PUSH2 0x120 PUSH3 0x2972 DUP4 DUP8 PUSH3 0x2823 JUMP JUMPDEST DUP5 MLOAD PUSH1 0x2 SWAP1 DUP2 SIGNEXTEND PUSH1 0xA0 DUP6 ADD MSTORE PUSH1 0x20 DUP7 ADD MLOAD SWAP1 SIGNEXTEND PUSH1 0xC0 DUP5 ADD MSTORE PUSH1 0x40 DUP6 ADD MLOAD PUSH1 0xE0 DUP5 ADD MSTORE DUP1 PUSH2 0x100 DUP5 ADD MSTORE PUSH3 0x28B2 DUP2 DUP5 ADD DUP6 PUSH3 0x2650 JUMP JUMPDEST DUP2 DUP4 DUP3 CALLDATACOPY PUSH0 SWAP2 ADD SWAP1 DUP2 MSTORE SWAP2 SWAP1 POP JUMP JUMPDEST DUP1 SLOAD PUSH1 0x1 PUSH1 0x1 PUSH1 0xA0 SHL SUB SWAP1 DUP2 AND DUP4 MSTORE PUSH1 0x1 DUP3 ADD SLOAD DUP1 DUP3 AND PUSH1 0x20 DUP6 ADD MSTORE PUSH1 0xA0 DUP2 SWAP1 SHR PUSH3 0xFFFFFF AND PUSH1 0x40 DUP6 ADD MSTORE PUSH1 0xB8 SHR PUSH1 0x2 SWAP1 DUP2 SIGNEXTEND PUSH1 0x60 DUP6 ADD MSTORE SWAP1 SWAP2 ADD SLOAD AND PUSH1 0x80 SWAP1 SWAP2 ADD MSTORE JUMP JUMPDEST PUSH3 0x2A09 DUP2 DUP6 PUSH3 0x29B8 JUMP JUMPDEST PUSH1 0x1 PUSH1 0x1 PUSH1 0xA0 SHL SUB DUP4 AND PUSH1 0xA0 DUP3 ADD MSTORE PUSH1 0xE0 PUSH1 0xC0 DUP3 ADD DUP2 SWAP1 MSTORE PUSH0 SWAP1 PUSH3 0x2A31 SWAP1 DUP4 ADD DUP5 PUSH3 0x2650 JUMP JUMPDEST SWAP6 SWAP5 POP POP POP POP POP JUMP JUMPDEST PUSH0 PUSH1 0x20 DUP3 DUP5 SUB SLT ISZERO PUSH3 0x2A4B JUMPI PUSH0 DUP1 REVERT JUMPDEST DUP2 MLOAD PUSH3 0xD26 DUP2 PUSH3 0x2240 JUMP JUMPDEST PUSH4 0x4E487B71 PUSH1 0xE0 SHL PUSH0 MSTORE PUSH1 0x32 PUSH1 0x4 MSTORE PUSH1 0x24 PUSH0 REVERT JUMPDEST PUSH0 PUSH1 0x1 DUP3 ADD PUSH3 0x2A80 JUMPI PUSH3 0x2A80 PUSH3 0x28F2 JUMP JUMPDEST POP PUSH1 0x1 ADD SWAP1 JUMP JUMPDEST PUSH4 0x4E487B71 PUSH1 0xE0 SHL PUSH0 MSTORE PUSH1 0x12 PUSH1 0x4 MSTORE PUSH1 0x24 PUSH0 REVERT JUMPDEST PUSH0 DUP3 PUSH3 0x2AB6 JUMPI PUSH4 0x4E487B71 PUSH1 0xE0 SHL PUSH0 MSTORE PUSH1 0x12 PUSH1 0x4 MSTORE PUSH1 0x24 PUSH0 REVERT JUMPDEST POP DIV SWAP1 JUMP JUMPDEST PUSH2 0x100 DUP2 ADD PUSH3 0x2ACC DUP3 DUP6 PUSH3 0x29B8 JUMP JUMPDEST DUP3 MLOAD PUSH1 0x2 SWAP1 DUP2 SIGNEXTEND PUSH1 0xA0 DUP5 ADD MSTORE PUSH1 0x20 DUP5 ADD MLOAD SWAP1 SIGNEXTEND PUSH1 0xC0 DUP4 ADD MSTORE PUSH1 0x40 DUP4 ADD MLOAD PUSH1 0xE0 DUP4 ADD MSTORE PUSH3 0xD26 JUMP JUMPDEST PUSH1 0xA0 DUP2 ADD PUSH3 0x167F DUP3 DUP5 PUSH3 0x2823 JUMP INVALID PUSH1 0xA0 PUSH1 0x40 MSTORE CALLVALUE DUP1 ISZERO PUSH3 0x10 JUMPI PUSH0 DUP1 REVERT JUMPDEST POP PUSH1 0x40 MLOAD PUSH3 0xF8F CODESIZE SUB DUP1 PUSH3 0xF8F DUP4 CODECOPY DUP2 ADD PUSH1 0x40 DUP2 SWAP1 MSTORE PUSH3 0x33 SWAP2 PUSH3 0x17A JUMP JUMPDEST PUSH3 0x3E CALLER PUSH3 0x81 JUMP JUMPDEST PUSH0 PUSH3 0x4B DUP5 DUP3 PUSH3 0x285 JUMP JUMPDEST POP PUSH1 0x1 PUSH3 0x5A DUP4 DUP3 PUSH3 0x285 JUMP JUMPDEST POP PUSH1 0x2 DUP1 SLOAD PUSH1 0xFF NOT AND PUSH1 0xFF SWAP3 SWAP1 SWAP3 AND SWAP2 SWAP1 SWAP2 OR SWAP1 SSTORE POP DUP1 MLOAD PUSH1 0x20 SWAP1 SWAP2 ADD KECCAK256 PUSH1 0x80 MSTORE PUSH3 0x34D JUMP JUMPDEST PUSH1 0x1 PUSH1 0x1 PUSH1 0xA0 SHL SUB AND PUSH4 0x8B78C6D8 NOT DUP2 SWAP1 SSTORE DUP1 PUSH0 PUSH32 0x8BE0079C531659141344CD1FD0A4F28419497F9722A3DAAFE3B4186F6B6457E0 DUP2 DUP1 LOG3 POP JUMP JUMPDEST PUSH4 0x4E487B71 PUSH1 0xE0 SHL PUSH0 MSTORE PUSH1 0x41 PUSH1 0x4 MSTORE PUSH1 0x24 PUSH0 REVERT JUMPDEST PUSH0 DUP3 PUSH1 0x1F DUP4 ADD SLT PUSH3 0xE0 JUMPI PUSH0 DUP1 REVERT JUMPDEST DUP2 MLOAD PUSH1 0x1 PUSH1 0x1 PUSH1 0x40 SHL SUB DUP1 DUP3 GT ISZERO PUSH3 0xFD JUMPI PUSH3 0xFD PUSH3 0xBC JUMP JUMPDEST PUSH1 0x40 MLOAD PUSH1 0x1F DUP4 ADD PUSH1 0x1F NOT SWAP1 DUP2 AND PUSH1 0x3F ADD AND DUP2 ADD SWAP1 DUP3 DUP3 GT DUP2 DUP4 LT OR ISZERO PUSH3 0x128 JUMPI PUSH3 0x128 PUSH3 0xBC JUMP JUMPDEST DUP2 PUSH1 0x40 MSTORE DUP4 DUP2 MSTORE PUSH1 0x20 SWAP3 POP DUP7 DUP4 DUP6 DUP9 ADD ADD GT ISZERO PUSH3 0x144 JUMPI PUSH0 DUP1 REVERT JUMPDEST PUSH0 SWAP2 POP JUMPDEST DUP4 DUP3 LT ISZERO PUSH3 0x167 JUMPI DUP6 DUP3 ADD DUP4 ADD MLOAD DUP2 DUP4 ADD DUP5 ADD MSTORE SWAP1 DUP3 ADD SWAP1 PUSH3 0x148 JUMP JUMPDEST PUSH0 SWAP4 DUP2 ADD SWAP1 SWAP3 ADD SWAP3 SWAP1 SWAP3 MSTORE SWAP5 SWAP4 POP POP POP POP JUMP JUMPDEST PUSH0 DUP1 PUSH0 PUSH1 0x60 DUP5 DUP7 SUB SLT ISZERO PUSH3 0x18D JUMPI PUSH0 DUP1 REVERT JUMPDEST DUP4 MLOAD PUSH1 0x1 PUSH1 0x1 PUSH1 0x40 SHL SUB DUP1 DUP3 GT ISZERO PUSH3 0x1A4 JUMPI PUSH0 DUP1 REVERT JUMPDEST PUSH3 0x1B2 DUP8 DUP4 DUP9 ADD PUSH3 0xD0 JUMP JUMPDEST SWAP5 POP PUSH1 0x20 DUP7 ADD MLOAD SWAP2 POP DUP1 DUP3 GT ISZERO PUSH3 0x1C8 JUMPI PUSH0 DUP1 REVERT JUMPDEST POP PUSH3 0x1D7 DUP7 DUP3 DUP8 ADD PUSH3 0xD0 JUMP JUMPDEST SWAP3 POP POP PUSH1 0x40 DUP5 ADD MLOAD PUSH1 0xFF DUP2 AND DUP2 EQ PUSH3 0x1EE JUMPI PUSH0 DUP1 REVERT JUMPDEST DUP1 SWAP2 POP POP SWAP3 POP SWAP3 POP SWAP3 JUMP JUMPDEST PUSH1 0x1 DUP2 DUP2 SHR SWAP1 DUP3 AND DUP1 PUSH3 0x20E JUMPI PUSH1 0x7F DUP3 AND SWAP2 POP JUMPDEST PUSH1 0x20 DUP3 LT DUP2 SUB PUSH3 0x22D JUMPI PUSH4 0x4E487B71 PUSH1 0xE0 SHL PUSH0 MSTORE PUSH1 0x22 PUSH1 0x4 MSTORE PUSH1 0x24 PUSH0 REVERT JUMPDEST POP SWAP2 SWAP1 POP JUMP JUMPDEST PUSH1 0x1F DUP3 GT ISZERO PUSH3 0x280 JUMPI PUSH0 DUP2 DUP2 MSTORE PUSH1 0x20 DUP2 KECCAK256 PUSH1 0x1F DUP6 ADD PUSH1 0x5 SHR DUP2 ADD PUSH1 0x20 DUP7 LT ISZERO PUSH3 0x25B JUMPI POP DUP1 JUMPDEST PUSH1 0x1F DUP6 ADD PUSH1 0x5 SHR DUP3 ADD SWAP2 POP JUMPDEST DUP2 DUP2 LT ISZERO PUSH3 0x27C JUMPI DUP3 DUP2 SSTORE PUSH1 0x1 ADD PUSH3 0x267 JUMP JUMPDEST POP POP POP JUMPDEST POP POP POP JUMP JUMPDEST DUP2 MLOAD PUSH1 0x1 PUSH1 0x1 PUSH1 0x40 SHL SUB DUP2 GT ISZERO PUSH3 0x2A1 JUMPI PUSH3 0x2A1 PUSH3 0xBC JUMP JUMPDEST PUSH3 0x2B9 DUP2 PUSH3 0x2B2 DUP5 SLOAD PUSH3 0x1F9 JUMP JUMPDEST DUP5 PUSH3 0x233 JUMP JUMPDEST PUSH1 0x20 DUP1 PUSH1 0x1F DUP4 GT PUSH1 0x1 DUP2 EQ PUSH3 0x2EF JUMPI PUSH0 DUP5 ISZERO PUSH3 0x2D7 JUMPI POP DUP6 DUP4 ADD MLOAD JUMPDEST PUSH0 NOT PUSH1 0x3 DUP7 SWAP1 SHL SHR NOT AND PUSH1 0x1 DUP6 SWAP1 SHL OR DUP6 SSTORE PUSH3 0x27C JUMP JUMPDEST PUSH0 DUP6 DUP2 MSTORE PUSH1 0x20 DUP2 KECCAK256 PUSH1 0x1F NOT DUP7 AND SWAP2 JUMPDEST DUP3 DUP2 LT ISZERO PUSH3 0x31F JUMPI DUP9 DUP7 ADD MLOAD DUP3 SSTORE SWAP5 DUP5 ADD SWAP5 PUSH1 0x1 SWAP1 SWAP2 ADD SWAP1 DUP5 ADD PUSH3 0x2FE JUMP JUMPDEST POP DUP6 DUP3 LT ISZERO PUSH3 0x33D JUMPI DUP8 DUP6 ADD MLOAD PUSH0 NOT PUSH1 0x3 DUP9 SWAP1 SHL PUSH1 0xF8 AND SHR NOT AND DUP2 SSTORE JUMPDEST POP POP POP POP POP PUSH1 0x1 SWAP1 DUP2 SHL ADD SWAP1 SSTORE POP JUMP JUMPDEST PUSH1 0x80 MLOAD PUSH2 0xC22 PUSH3 0x36D PUSH0 CODECOPY PUSH0 DUP2 DUP2 PUSH2 0x4E7 ADD MSTORE PUSH2 0x61B ADD MSTORE PUSH2 0xC22 PUSH0 RETURN INVALID PUSH1 0x80 PUSH1 0x40 MSTORE PUSH1 0x4 CALLDATASIZE LT PUSH2 0x11B JUMPI PUSH0 CALLDATALOAD PUSH1 0xE0 SHR DUP1 PUSH4 0x715018A6 GT PUSH2 0x9D JUMPI DUP1 PUSH4 0xD505ACCF GT PUSH2 0x62 JUMPI DUP1 PUSH4 0xD505ACCF EQ PUSH2 0x2EB JUMPI DUP1 PUSH4 0xDD62ED3E EQ PUSH2 0x30A JUMPI DUP1 PUSH4 0xF04E283E EQ PUSH2 0x33E JUMPI DUP1 PUSH4 0xF2FDE38B EQ PUSH2 0x351 JUMPI DUP1 PUSH4 0xFEE81CF4 EQ PUSH2 0x364 JUMPI PUSH0 DUP1 REVERT JUMPDEST DUP1 PUSH4 0x715018A6 EQ PUSH2 0x254 JUMPI DUP1 PUSH4 0x7ECEBE00 EQ PUSH2 0x25C JUMPI DUP1 PUSH4 0x8DA5CB5B EQ PUSH2 0x28D JUMPI DUP1 PUSH4 0x95D89B41 EQ PUSH2 0x2B8 JUMPI DUP1 PUSH4 0xA9059CBB EQ PUSH2 0x2CC JUMPI PUSH0 DUP1 REVERT JUMPDEST DUP1 PUSH4 0x313CE567 GT PUSH2 0xE3 JUMPI DUP1 PUSH4 0x313CE567 EQ PUSH2 0x1C7 JUMPI DUP1 PUSH4 0x3644E515 EQ PUSH2 0x1E8 JUMPI DUP1 PUSH4 0x40C10F19 EQ PUSH2 0x1FC JUMPI DUP1 PUSH4 0x54D1F13D EQ PUSH2 0x21B JUMPI DUP1 PUSH4 0x70A08231 EQ PUSH2 0x223 JUMPI PUSH0 DUP1 REVERT JUMPDEST DUP1 PUSH4 0x6FDDE03 EQ PUSH2 0x11F JUMPI DUP1 PUSH4 0x95EA7B3 EQ PUSH2 0x149 JUMPI DUP1 PUSH4 0x18160DDD EQ PUSH2 0x178 JUMPI DUP1 PUSH4 0x23B872DD EQ PUSH2 0x19E JUMPI DUP1 PUSH4 0x25692962 EQ PUSH2 0x1BD JUMPI JUMPDEST PUSH0 DUP1 REVERT JUMPDEST CALLVALUE DUP1 ISZERO PUSH2 0x12A JUMPI PUSH0 DUP1 REVERT JUMPDEST POP PUSH2 0x133 PUSH2 0x395 JUMP JUMPDEST PUSH1 0x40 MLOAD PUSH2 0x140 SWAP2 SWAP1 PUSH2 0xA36 JUMP JUMPDEST PUSH1 0x40 MLOAD DUP1 SWAP2 SUB SWAP1 RETURN JUMPDEST CALLVALUE DUP1 ISZERO PUSH2 0x154 JUMPI PUSH0 DUP1 REVERT JUMPDEST POP PUSH2 0x168 PUSH2 0x163 CALLDATASIZE PUSH1 0x4 PUSH2 0xA9C JUMP JUMPDEST PUSH2 0x424 JUMP JUMPDEST PUSH1 0x40 MLOAD SWAP1 ISZERO ISZERO DUP2 MSTORE PUSH1 0x20 ADD PUSH2 0x140 JUMP JUMPDEST CALLVALUE DUP1 ISZERO PUSH2 0x183 JUMPI PUSH0 DUP1 REVERT JUMPDEST POP PUSH9 0x5345CDF77EB68F44C SLOAD JUMPDEST PUSH1 0x40 MLOAD SWAP1 DUP2 MSTORE PUSH1 0x20 ADD PUSH2 0x140 JUMP JUMPDEST CALLVALUE DUP1 ISZERO PUSH2 0x1A9 JUMPI PUSH0 DUP1 REVERT JUMPDEST POP PUSH2 0x168 PUSH2 0x1B8 CALLDATASIZE PUSH1 0x4 PUSH2 0xAC4 JUMP JUMPDEST PUSH2 0x473 JUMP JUMPDEST PUSH2 0x1C5 PUSH2 0x497 JUMP JUMPDEST STOP JUMPDEST CALLVALUE DUP1 ISZERO PUSH2 0x1D2 JUMPI PUSH0 DUP1 REVERT JUMPDEST POP PUSH1 0x2 SLOAD PUSH1 0x40 MLOAD PUSH1 0xFF SWAP1 SWAP2 AND DUP2 MSTORE PUSH1 0x20 ADD PUSH2 0x140 JUMP JUMPDEST CALLVALUE DUP1 ISZERO PUSH2 0x1F3 JUMPI PUSH0 DUP1 REVERT JUMPDEST POP PUSH2 0x190 PUSH2 0x4E4 JUMP JUMPDEST CALLVALUE DUP1 ISZERO PUSH2 0x207 JUMPI PUSH0 DUP1 REVERT JUMPDEST POP PUSH2 0x1C5 PUSH2 0x216 CALLDATASIZE PUSH1 0x4 PUSH2 0xA9C JUMP JUMPDEST PUSH2 0x586 JUMP JUMPDEST PUSH2 0x1C5 PUSH2 0x5A4 JUMP JUMPDEST CALLVALUE DUP1 ISZERO PUSH2 0x22E JUMPI PUSH0 DUP1 REVERT JUMPDEST POP PUSH2 0x190 PUSH2 0x23D CALLDATASIZE PUSH1 0x4 PUSH2 0xAFD JUMP JUMPDEST PUSH4 0x87A211A2 PUSH1 0xC SWAP1 DUP2 MSTORE PUSH0 SWAP2 SWAP1 SWAP2 MSTORE PUSH1 0x20 SWAP1 KECCAK256 SLOAD SWAP1 JUMP JUMPDEST PUSH2 0x1C5 PUSH2 0x5DD JUMP JUMPDEST CALLVALUE DUP1 ISZERO PUSH2 0x267 JUMPI PUSH0 DUP1 REVERT JUMPDEST POP PUSH2 0x190 PUSH2 0x276 CALLDATASIZE PUSH1 0x4 PUSH2 0xAFD JUMP JUMPDEST PUSH4 0x38377508 PUSH1 0xC SWAP1 DUP2 MSTORE PUSH0 SWAP2 SWAP1 SWAP2 MSTORE PUSH1 0x20 SWAP1 KECCAK256 SLOAD SWAP1 JUMP JUMPDEST CALLVALUE DUP1 ISZERO PUSH2 0x298 JUMPI PUSH0 DUP1 REVERT JUMPDEST POP PUSH4 0x8B78C6D8 NOT SLOAD PUSH1 0x40 MLOAD PUSH1 0x1 PUSH1 0x1 PUSH1 0xA0 SHL SUB SWAP1 SWAP2 AND DUP2 MSTORE PUSH1 0x20 ADD PUSH2 0x140 JUMP JUMPDEST CALLVALUE DUP1 ISZERO PUSH2 0x2C3 JUMPI PUSH0 DUP1 REVERT JUMPDEST POP PUSH2 0x133 PUSH2 0x5F0 JUMP JUMPDEST CALLVALUE DUP1 ISZERO PUSH2 0x2D7 JUMPI PUSH0 DUP1 REVERT JUMPDEST POP PUSH2 0x168 PUSH2 0x2E6 CALLDATASIZE PUSH1 0x4 PUSH2 0xA9C JUMP JUMPDEST PUSH2 0x5FF JUMP JUMPDEST CALLVALUE DUP1 ISZERO PUSH2 0x2F6 JUMPI PUSH0 DUP1 REVERT JUMPDEST POP PUSH2 0x1C5 PUSH2 0x305 CALLDATASIZE PUSH1 0x4 PUSH2 0xB16 JUMP JUMPDEST PUSH2 0x619 JUMP JUMPDEST CALLVALUE DUP1 ISZERO PUSH2 0x315 JUMPI PUSH0 DUP1 REVERT JUMPDEST POP PUSH2 0x190 PUSH2 0x324 CALLDATASIZE PUSH1 0x4 PUSH2 0xB83 JUMP JUMPDEST PUSH1 0x20 MSTORE PUSH4 0x7F5E9F20 PUSH1 0xC SWAP1 DUP2 MSTORE PUSH0 SWAP2 SWAP1 SWAP2 MSTORE PUSH1 0x34 SWAP1 KECCAK256 SLOAD SWAP1 JUMP JUMPDEST PUSH2 0x1C5 PUSH2 0x34C CALLDATASIZE PUSH1 0x4 PUSH2 0xAFD JUMP JUMPDEST PUSH2 0x7C1 JUMP JUMPDEST PUSH2 0x1C5 PUSH2 0x35F CALLDATASIZE PUSH1 0x4 PUSH2 0xAFD JUMP JUMPDEST PUSH2 0x7FE JUMP JUMPDEST CALLVALUE DUP1 ISZERO PUSH2 0x36F JUMPI PUSH0 DUP1 REVERT JUMPDEST POP PUSH2 0x190 PUSH2 0x37E CALLDATASIZE PUSH1 0x4 PUSH2 0xAFD JUMP JUMPDEST PUSH4 0x389A75E1 PUSH1 0xC SWAP1 DUP2 MSTORE PUSH0 SWAP2 SWAP1 SWAP2 MSTORE PUSH1 0x20 SWAP1 KECCAK256 SLOAD SWAP1 JUMP JUMPDEST PUSH1 0x60 PUSH0 DUP1 SLOAD PUSH2 0x3A3 SWAP1 PUSH2 0xBB4 JUMP JUMPDEST DUP1 PUSH1 0x1F ADD PUSH1 0x20 DUP1 SWAP2 DIV MUL PUSH1 0x20 ADD PUSH1 0x40 MLOAD SWAP1 DUP2 ADD PUSH1 0x40 MSTORE DUP1 SWAP3 SWAP2 SWAP1 DUP2 DUP2 MSTORE PUSH1 0x20 ADD DUP3 DUP1 SLOAD PUSH2 0x3CF SWAP1 PUSH2 0xBB4 JUMP JUMPDEST DUP1 ISZERO PUSH2 0x41A JUMPI DUP1 PUSH1 0x1F LT PUSH2 0x3F1 JUMPI PUSH2 0x100 DUP1 DUP4 SLOAD DIV MUL DUP4 MSTORE SWAP2 PUSH1 0x20 ADD SWAP2 PUSH2 0x41A JUMP JUMPDEST DUP3 ADD SWAP2 SWAP1 PUSH0 MSTORE PUSH1 0x20 PUSH0 KECCAK256 SWAP1 JUMPDEST DUP2 SLOAD DUP2 MSTORE SWAP1 PUSH1 0x1 ADD SWAP1 PUSH1 0x20 ADD DUP1 DUP4 GT PUSH2 0x3FD JUMPI DUP3 SWAP1 SUB PUSH1 0x1F AND DUP3 ADD SWAP2 JUMPDEST POP POP POP POP POP SWAP1 POP SWAP1 JUMP JUMPDEST PUSH0 DUP3 PUSH1 0x20 MSTORE PUSH4 0x7F5E9F20 PUSH1 0xC MSTORE CALLER PUSH0 MSTORE DUP2 PUSH1 0x34 PUSH1 0xC KECCAK256 SSTORE DUP2 PUSH0 MSTORE PUSH1 0x2C MLOAD PUSH1 0x60 SHR CALLER PUSH32 0x8C5BE1E5EBEC7D5BD14F71427D1E84F3DD0314C0F7B2291E5B200AC8C7C3B925 PUSH1 0x20 PUSH0 LOG3 POP PUSH1 0x1 SWAP3 SWAP2 POP POP JUMP JUMPDEST PUSH0 PUSH2 0x48F PUSH2 0x480 DUP6 PUSH2 0x824 JUMP JUMPDEST PUSH2 0x489 DUP6 PUSH2 0x824 JUMP JUMPDEST DUP5 PUSH2 0x832 JUMP JUMPDEST SWAP5 SWAP4 POP POP POP POP JUMP JUMPDEST PUSH0 PUSH3 0x2A300 PUSH8 0xFFFFFFFFFFFFFFFF AND TIMESTAMP ADD SWAP1 POP PUSH4 0x389A75E1 PUSH1 0xC MSTORE CALLER PUSH0 MSTORE DUP1 PUSH1 0x20 PUSH1 0xC KECCAK256 SSTORE CALLER PUSH32 0xDBF36A107DA19E49527A7176A1BABF963B4B0FF8CDE35EE35D6CD8F1F9AC7E1D PUSH0 DUP1 LOG2 POP JUMP JUMPDEST PUSH0 PUSH32 0x0 DUP1 PUSH2 0x51D JUMPI PUSH2 0x513 PUSH2 0x395 JUMP JUMPDEST DUP1 MLOAD SWAP1 PUSH1 0x20 ADD KECCAK256 SWAP1 POP JUMPDEST PUSH1 0x40 MLOAD PUSH32 0x8B73C3C69BB8FE3D512ECC4CF759CC79239F7B179B0FFACAA9A75D522B39400F DUP2 MSTORE DUP2 PUSH1 0x20 DUP3 ADD MSTORE PUSH32 0xC89EFDAA54C0F20C7ADF612882DF0950F5A951637E0307CDCB4C672F298B8BC6 PUSH1 0x40 DUP3 ADD MSTORE CHAINID PUSH1 0x60 DUP3 ADD MSTORE ADDRESS PUSH1 0x80 DUP3 ADD MSTORE PUSH1 0xA0 DUP2 KECCAK256 SWAP3 POP POP POP SWAP1 JUMP JUMPDEST PUSH2 0x58E PUSH2 0x8EC JUMP JUMPDEST PUSH2 0x5A0 PUSH2 0x59A DUP4 PUSH2 0x824 JUMP JUMPDEST DUP3 PUSH2 0x906 JUMP JUMPDEST POP POP JUMP JUMPDEST PUSH4 0x389A75E1 PUSH1 0xC MSTORE CALLER PUSH0 MSTORE PUSH0 PUSH1 0x20 PUSH1 0xC KECCAK256 SSTORE CALLER PUSH32 0xFA7B8EAB7DA67F412CC9575ED43464468F9BFBAE89D1675917346CA6D8FE3C92 PUSH0 DUP1 LOG2 JUMP JUMPDEST PUSH2 0x5E5 PUSH2 0x8EC JUMP JUMPDEST PUSH2 0x5EE PUSH0 PUSH2 0x982 JUMP JUMPDEST JUMP JUMPDEST PUSH1 0x60 PUSH1 0x1 DUP1 SLOAD PUSH2 0x3A3 SWAP1 PUSH2 0xBB4 JUMP JUMPDEST PUSH0 PUSH2 0x612 PUSH2 0x60C DUP5 PUSH2 0x824 JUMP JUMPDEST DUP4 PUSH2 0x9BF JUMP JUMPDEST SWAP4 SWAP3 POP POP POP JUMP JUMPDEST PUSH32 0x0 DUP1 PUSH2 0x651 JUMPI PUSH2 0x647 PUSH2 0x395 JUMP JUMPDEST DUP1 MLOAD SWAP1 PUSH1 0x20 ADD KECCAK256 SWAP1 POP JUMPDEST DUP5 TIMESTAMP GT ISZERO PUSH2 0x666 JUMPI PUSH4 0x1A15A3CC PUSH0 MSTORE PUSH1 0x4 PUSH1 0x1C REVERT JUMPDEST PUSH1 0x40 MLOAD DUP9 PUSH1 0x60 SHL PUSH1 0x60 SHR SWAP9 POP DUP8 PUSH1 0x60 SHL PUSH1 0x60 SHR SWAP8 POP PUSH6 0x383775081901 PUSH1 0xE MSTORE DUP9 PUSH0 MSTORE PUSH1 0x20 PUSH1 0xC KECCAK256 DUP1 SLOAD PUSH32 0x8B73C3C69BB8FE3D512ECC4CF759CC79239F7B179B0FFACAA9A75D522B39400F DUP4 MSTORE DUP4 PUSH1 0x20 DUP5 ADD MSTORE PUSH32 0xC89EFDAA54C0F20C7ADF612882DF0950F5A951637E0307CDCB4C672F298B8BC6 PUSH1 0x40 DUP5 ADD MSTORE CHAINID PUSH1 0x60 DUP5 ADD MSTORE ADDRESS PUSH1 0x80 DUP5 ADD MSTORE PUSH1 0xA0 DUP4 KECCAK256 PUSH1 0x2E MSTORE PUSH32 0x6E71EDAE12B1B97F4D1F60370FEF10105FA2FAAE0126114A169C64845D6126C9 DUP4 MSTORE DUP11 PUSH1 0x20 DUP5 ADD MSTORE DUP10 PUSH1 0x40 DUP5 ADD MSTORE DUP9 PUSH1 0x60 DUP5 ADD MSTORE DUP1 PUSH1 0x80 DUP5 ADD MSTORE DUP8 PUSH1 0xA0 DUP5 ADD MSTORE PUSH1 0xC0 DUP4 KECCAK256 PUSH1 0x4E MSTORE PUSH1 0x42 PUSH1 0x2C KECCAK256 PUSH0 MSTORE DUP7 PUSH1 0xFF AND PUSH1 0x20 MSTORE DUP6 PUSH1 0x40 MSTORE DUP5 PUSH1 0x60 MSTORE PUSH1 0x20 DUP1 PUSH1 0x80 PUSH0 PUSH1 0x1 GAS STATICCALL DUP12 RETURNDATASIZE MLOAD EQ PUSH2 0x76E JUMPI PUSH4 0xDDAFBAEF PUSH0 MSTORE PUSH1 0x4 PUSH1 0x1C REVERT JUMPDEST ADD SWAP1 SSTORE PUSH4 0x3FAF4F9 PUSH1 0xA5 SHL DUP9 OR PUSH1 0x40 MSTORE PUSH1 0x34 PUSH1 0x2C KECCAK256 DUP8 SWAP1 SSTORE DUP8 DUP10 PUSH32 0x8C5BE1E5EBEC7D5BD14F71427D1E84F3DD0314C0F7B2291E5B200AC8C7C3B925 PUSH1 0x20 PUSH1 0x60 DUP6 ADD LOG3 PUSH1 0x40 MSTORE POP POP PUSH0 PUSH1 0x60 MSTORE POP POP POP POP POP POP JUMP JUMPDEST PUSH2 0x7C9 PUSH2 0x8EC JUMP JUMPDEST PUSH4 0x389A75E1 PUSH1 0xC MSTORE DUP1 PUSH0 MSTORE PUSH1 0x20 PUSH1 0xC KECCAK256 DUP1 SLOAD TIMESTAMP GT ISZERO PUSH2 0x7EF JUMPI PUSH4 0x6F5E8818 PUSH0 MSTORE PUSH1 0x4 PUSH1 0x1C REVERT JUMPDEST PUSH0 SWAP1 SSTORE PUSH2 0x7FB DUP2 PUSH2 0x982 JUMP JUMPDEST POP JUMP JUMPDEST PUSH2 0x806 PUSH2 0x8EC JUMP JUMPDEST DUP1 PUSH1 0x60 SHL PUSH2 0x81B JUMPI PUSH4 0x7448FBAE PUSH0 MSTORE PUSH1 0x4 PUSH1 0x1C REVERT JUMPDEST PUSH2 0x7FB DUP2 PUSH2 0x982 JUMP JUMPDEST PUSH0 GAS PUSH1 0xA0 SHL DUP3 OR SWAP1 POP SWAP2 SWAP1 POP JUMP JUMPDEST PUSH0 DUP4 PUSH1 0x60 SHL CALLER PUSH1 0x20 MSTORE PUSH4 0x7F5E9F20 DUP2 OR PUSH1 0xC MSTORE PUSH1 0x34 PUSH1 0xC KECCAK256 DUP1 SLOAD PUSH1 0x1 DUP2 ADD ISZERO PUSH2 0x870 JUMPI DUP1 DUP6 GT ISZERO PUSH2 0x86A JUMPI PUSH4 0x13BE252B PUSH0 MSTORE PUSH1 0x4 PUSH1 0x1C REVERT JUMPDEST DUP5 DUP2 SUB DUP3 SSTORE JUMPDEST POP POP PUSH4 0x87A211A2 DUP2 OR PUSH1 0xC MSTORE PUSH1 0x20 PUSH1 0xC KECCAK256 DUP1 SLOAD DUP1 DUP6 GT ISZERO PUSH2 0x898 JUMPI PUSH4 0xF4D678B8 PUSH0 MSTORE PUSH1 0x4 PUSH1 0x1C REVERT JUMPDEST DUP5 DUP2 SUB DUP3 SSTORE POP POP DUP4 PUSH0 MSTORE PUSH1 0x20 PUSH1 0xC KECCAK256 DUP4 DUP2 SLOAD ADD DUP2 SSTORE POP DUP3 PUSH1 0x20 MSTORE PUSH1 0xC MLOAD PUSH1 0x60 SHR DUP2 PUSH1 0x60 SHR PUSH32 0xDDF252AD1BE2C89B69C2B068FC378DAA952BA7F163C4A11628F55A4DF523B3EF PUSH1 0x20 DUP1 LOG3 POP POP PUSH1 0x1 SWAP4 SWAP3 POP POP POP JUMP JUMPDEST PUSH4 0x8B78C6D8 NOT SLOAD CALLER EQ PUSH2 0x5EE JUMPI PUSH4 0x82B42900 PUSH0 MSTORE PUSH1 0x4 PUSH1 0x1C REVERT JUMPDEST PUSH9 0x5345CDF77EB68F44C SLOAD DUP2 DUP2 ADD DUP2 DUP2 LT ISZERO PUSH2 0x929 JUMPI PUSH4 0xE5CFE957 PUSH0 MSTORE PUSH1 0x4 PUSH1 0x1C REVERT JUMPDEST DUP1 PUSH9 0x5345CDF77EB68F44C SSTORE POP POP PUSH4 0x87A211A2 PUSH1 0xC MSTORE DUP2 PUSH0 MSTORE PUSH1 0x20 PUSH1 0xC KECCAK256 DUP2 DUP2 SLOAD ADD DUP2 SSTORE POP DUP1 PUSH1 0x20 MSTORE PUSH1 0xC MLOAD PUSH1 0x60 SHR PUSH0 PUSH32 0xDDF252AD1BE2C89B69C2B068FC378DAA952BA7F163C4A11628F55A4DF523B3EF PUSH1 0x20 DUP1 LOG3 POP POP JUMP JUMPDEST PUSH4 0x8B78C6D8 NOT DUP1 SLOAD PUSH1 0x1 PUSH1 0x1 PUSH1 0xA0 SHL SUB SWAP1 SWAP3 AND SWAP2 DUP3 SWAP1 PUSH32 0x8BE0079C531659141344CD1FD0A4F28419497F9722A3DAAFE3B4186F6B6457E0 PUSH0 DUP1 LOG3 SSTORE JUMP JUMPDEST PUSH0 PUSH4 0x87A211A2 PUSH1 0xC MSTORE CALLER PUSH0 MSTORE PUSH1 0x20 PUSH1 0xC KECCAK256 DUP1 SLOAD DUP1 DUP5 GT ISZERO PUSH2 0x9E7 JUMPI PUSH4 0xF4D678B8 PUSH0 MSTORE PUSH1 0x4 PUSH1 0x1C REVERT JUMPDEST DUP4 DUP2 SUB DUP3 SSTORE POP POP DUP3 PUSH0 MSTORE PUSH1 0x20 PUSH1 0xC KECCAK256 DUP3 DUP2 SLOAD ADD DUP2 SSTORE POP DUP2 PUSH1 0x20 MSTORE PUSH1 0xC MLOAD PUSH1 0x60 SHR CALLER PUSH32 0xDDF252AD1BE2C89B69C2B068FC378DAA952BA7F163C4A11628F55A4DF523B3EF PUSH1 0x20 DUP1 LOG3 POP PUSH1 0x1 SWAP3 SWAP2 POP POP JUMP JUMPDEST PUSH0 PUSH1 0x20 DUP1 DUP4 MSTORE DUP4 MLOAD DUP1 DUP3 DUP6 ADD MSTORE PUSH0 JUMPDEST DUP2 DUP2 LT ISZERO PUSH2 0xA61 JUMPI DUP6 DUP2 ADD DUP4 ADD MLOAD DUP6 DUP3 ADD PUSH1 0x40 ADD MSTORE DUP3 ADD PUSH2 0xA45 JUMP JUMPDEST POP PUSH0 PUSH1 0x40 DUP3 DUP7 ADD ADD MSTORE PUSH1 0x40 PUSH1 0x1F NOT PUSH1 0x1F DUP4 ADD AND DUP6 ADD ADD SWAP3 POP POP POP SWAP3 SWAP2 POP POP JUMP JUMPDEST DUP1 CALLDATALOAD PUSH1 0x1 PUSH1 0x1 PUSH1 0xA0 SHL SUB DUP2 AND DUP2 EQ PUSH2 0xA97 JUMPI PUSH0 DUP1 REVERT JUMPDEST SWAP2 SWAP1 POP JUMP JUMPDEST PUSH0 DUP1 PUSH1 0x40 DUP4 DUP6 SUB SLT ISZERO PUSH2 0xAAD JUMPI PUSH0 DUP1 REVERT JUMPDEST PUSH2 0xAB6 DUP4 PUSH2 0xA81 JUMP JUMPDEST SWAP5 PUSH1 0x20 SWAP4 SWAP1 SWAP4 ADD CALLDATALOAD SWAP4 POP POP POP JUMP JUMPDEST PUSH0 DUP1 PUSH0 PUSH1 0x60 DUP5 DUP7 SUB SLT ISZERO PUSH2 0xAD6 JUMPI PUSH0 DUP1 REVERT JUMPDEST PUSH2 0xADF DUP5 PUSH2 0xA81 JUMP JUMPDEST SWAP3 POP PUSH2 0xAED PUSH1 0x20 DUP6 ADD PUSH2 0xA81 JUMP JUMPDEST SWAP2 POP PUSH1 0x40 DUP5 ADD CALLDATALOAD SWAP1 POP SWAP3 POP SWAP3 POP SWAP3 JUMP JUMPDEST PUSH0 PUSH1 0x20 DUP3 DUP5 SUB SLT ISZERO PUSH2 0xB0D JUMPI PUSH0 DUP1 REVERT JUMPDEST PUSH2 0x612 DUP3 PUSH2 0xA81 JUMP JUMPDEST PUSH0 DUP1 PUSH0 DUP1 PUSH0 DUP1 PUSH0 PUSH1 0xE0 DUP9 DUP11 SUB SLT ISZERO PUSH2 0xB2C JUMPI PUSH0 DUP1 REVERT JUMPDEST PUSH2 0xB35 DUP9 PUSH2 0xA81 JUMP JUMPDEST SWAP7 POP PUSH2 0xB43 PUSH1 0x20 DUP10 ADD PUSH2 0xA81 JUMP JUMPDEST SWAP6 POP PUSH1 0x40 DUP9 ADD CALLDATALOAD SWAP5 POP PUSH1 0x60 DUP9 ADD CALLDATALOAD SWAP4 POP PUSH1 0x80 DUP9 ADD CALLDATALOAD PUSH1 0xFF DUP2 AND DUP2 EQ PUSH2 0xB66 JUMPI PUSH0 DUP1 REVERT JUMPDEST SWAP7 SWAP10 SWAP6 SWAP9 POP SWAP4 SWAP7 SWAP3 SWAP6 SWAP5 PUSH1 0xA0 DUP5 ADD CALLDATALOAD SWAP5 POP PUSH1 0xC0 SWAP1 SWAP4 ADD CALLDATALOAD SWAP3 SWAP2 POP POP JUMP JUMPDEST PUSH0 DUP1 PUSH1 0x40 DUP4 DUP6 SUB SLT ISZERO PUSH2 0xB94 JUMPI PUSH0 DUP1 REVERT JUMPDEST PUSH2 0xB9D DUP4 PUSH2 0xA81 JUMP JUMPDEST SWAP2 POP PUSH2 0xBAB PUSH1 0x20 DUP5 ADD PUSH2 0xA81 JUMP JUMPDEST SWAP1 POP SWAP3 POP SWAP3 SWAP1 POP JUMP JUMPDEST PUSH1 0x1 DUP2 DUP2 SHR SWAP1 DUP3 AND DUP1 PUSH2 0xBC8 JUMPI PUSH1 0x7F DUP3 AND SWAP2 POP JUMPDEST PUSH1 0x20 DUP3 LT DUP2 SUB PUSH2 0xBE6 JUMPI PUSH4 0x4E487B71 PUSH1 0xE0 SHL PUSH0 MSTORE PUSH1 0x22 PUSH1 0x4 MSTORE PUSH1 0x24 PUSH0 REVERT JUMPDEST POP SWAP2 SWAP1 POP JUMP INVALID LOG2 PUSH5 0x6970667358 0x22 SLT KECCAK256 EXTCODECOPY SWAP10 PUSH15 0x304E87467CF3756DAF3F80CD75CF4B AND CHAINID 0xD 0xD5 JUMPDEST 0xB1 0xAB DUP4 0xAB PREVRANDAO 0x5D 0xE7 PUSH15 0x5964736F6C6343000814003360A060 BLOCKHASH MSTORE CALLVALUE DUP1 ISZERO PUSH2 0xF JUMPI PUSH0 DUP1 REVERT JUMPDEST POP PUSH1 0x40 MLOAD PUSH2 0xEDF CODESIZE SUB DUP1 PUSH2 0xEDF DUP4 CODECOPY DUP2 ADD PUSH1 0x40 DUP2 SWAP1 MSTORE PUSH2 0x2E SWAP2 PUSH2 0x3F JUMP JUMPDEST PUSH1 0x1 PUSH1 0x1 PUSH1 0xA0 SHL SUB AND PUSH1 0x80 MSTORE PUSH2 0x6C JUMP JUMPDEST PUSH0 PUSH1 0x20 DUP3 DUP5 SUB SLT ISZERO PUSH2 0x4F JUMPI PUSH0 DUP1 REVERT JUMPDEST DUP2 MLOAD PUSH1 0x1 PUSH1 0x1 PUSH1 0xA0 SHL SUB DUP2 AND DUP2 EQ PUSH2 0x65 JUMPI PUSH0 DUP1 REVERT JUMPDEST SWAP4 SWAP3 POP POP POP JUMP JUMPDEST PUSH1 0x80 MLOAD PUSH2 0xE10 PUSH2 0xCF PUSH0 CODECOPY PUSH0 DUP2 DUP2 PUSH1 0x48 ADD MSTORE DUP2 DUP2 PUSH1 0xD7 ADD MSTORE DUP2 DUP2 PUSH2 0x1E0 ADD MSTORE DUP2 DUP2 PUSH2 0x21B ADD MSTORE DUP2 DUP2 PUSH2 0x31F ADD MSTORE DUP2 DUP2 PUSH2 0x3F3 ADD MSTORE DUP2 DUP2 PUSH2 0x4A0 ADD MSTORE DUP2 DUP2 PUSH2 0x555 ADD MSTORE DUP2 DUP2 PUSH2 0x5F0 ADD MSTORE DUP2 DUP2 PUSH2 0x69C ADD MSTORE DUP2 DUP2 PUSH2 0x730 ADD MSTORE PUSH2 0x7CD ADD MSTORE PUSH2 0xE10 PUSH0 RETURN INVALID PUSH1 0x80 PUSH1 0x40 MSTORE PUSH1 0x4 CALLDATASIZE LT PUSH2 0x33 JUMPI PUSH0 CALLDATALOAD PUSH1 0xE0 SHR DUP1 PUSH4 0x481C6A75 EQ PUSH2 0x37 JUMPI DUP1 PUSH4 0x555A4733 EQ PUSH2 0x87 JUMPI DUP1 PUSH4 0xAB6291FE EQ PUSH2 0xA8 JUMPI JUMPDEST PUSH0 DUP1 REVERT JUMPDEST CALLVALUE DUP1 ISZERO PUSH2 0x42 JUMPI PUSH0 DUP1 REVERT JUMPDEST POP PUSH2 0x6A PUSH32 0x0 DUP2 JUMP JUMPDEST PUSH1 0x40 MLOAD PUSH1 0x1 PUSH1 0x1 PUSH1 0xA0 SHL SUB SWAP1 SWAP2 AND DUP2 MSTORE PUSH1 0x20 ADD JUMPDEST PUSH1 0x40 MLOAD DUP1 SWAP2 SUB SWAP1 RETURN JUMPDEST PUSH2 0x9A PUSH2 0x95 CALLDATASIZE PUSH1 0x4 PUSH2 0xA5D JUMP JUMPDEST PUSH2 0xD4 JUMP JUMPDEST PUSH1 0x40 MLOAD SWAP1 DUP2 MSTORE PUSH1 0x20 ADD PUSH2 0x7E JUMP JUMPDEST CALLVALUE DUP1 ISZERO PUSH2 0xB3 JUMPI PUSH0 DUP1 REVERT JUMPDEST POP PUSH2 0xC7 PUSH2 0xC2 CALLDATASIZE PUSH1 0x4 PUSH2 0xA91 JUMP JUMPDEST PUSH2 0x1D3 JUMP JUMPDEST PUSH1 0x40 MLOAD PUSH2 0x7E SWAP2 SWAP1 PUSH2 0xB4A JUMP JUMPDEST PUSH0 PUSH32 0x0 PUSH1 0x1 PUSH1 0x1 PUSH1 0xA0 SHL SUB AND PUSH4 0x81548319 PUSH1 0x40 MLOAD DUP1 PUSH1 0x60 ADD PUSH1 0x40 MSTORE DUP1 CALLER PUSH1 0x1 PUSH1 0x1 PUSH1 0xA0 SHL SUB AND DUP2 MSTORE PUSH1 0x20 ADD DUP7 DUP2 MSTORE PUSH1 0x20 ADD DUP6 DUP2 MSTORE POP PUSH1 0x40 MLOAD PUSH1 0x20 ADD PUSH2 0x138 SWAP2 SWAP1 PUSH2 0xBA6 JUMP JUMPDEST PUSH1 0x40 MLOAD PUSH1 0x20 DUP2 DUP4 SUB SUB DUP2 MSTORE SWAP1 PUSH1 0x40 MSTORE PUSH1 0x40 MLOAD DUP3 PUSH4 0xFFFFFFFF AND PUSH1 0xE0 SHL DUP2 MSTORE PUSH1 0x4 ADD PUSH2 0x163 SWAP2 SWAP1 PUSH2 0xB4A JUMP JUMPDEST PUSH0 PUSH1 0x40 MLOAD DUP1 DUP4 SUB DUP2 PUSH0 DUP8 GAS CALL ISZERO DUP1 ISZERO PUSH2 0x17E JUMPI RETURNDATASIZE PUSH0 DUP1 RETURNDATACOPY RETURNDATASIZE PUSH0 REVERT JUMPDEST POP POP POP POP PUSH1 0x40 MLOAD RETURNDATASIZE PUSH0 DUP3 RETURNDATACOPY PUSH1 0x1F RETURNDATASIZE SWAP1 DUP2 ADD PUSH1 0x1F NOT AND DUP3 ADD PUSH1 0x40 MSTORE PUSH2 0x1A5 SWAP2 SWAP1 DUP2 ADD SWAP1 PUSH2 0xBF9 JUMP JUMPDEST DUP1 PUSH1 0x20 ADD SWAP1 MLOAD DUP2 ADD SWAP1 PUSH2 0x1B8 SWAP2 SWAP1 PUSH2 0xCA1 JUMP JUMPDEST SWAP1 POP SELFBALANCE DUP1 ISZERO PUSH2 0x1CC JUMPI PUSH2 0x1CC PUSH0 CALLER DUP4 PUSH2 0x876 JUMP JUMPDEST POP SWAP3 SWAP2 POP POP JUMP JUMPDEST PUSH1 0x60 CALLER PUSH1 0x1 PUSH1 0x1 PUSH1 0xA0 SHL SUB PUSH32 0x0 AND EQ PUSH2 0x209 JUMPI PUSH0 DUP1 REVERT JUMPDEST PUSH0 PUSH2 0x216 DUP4 DUP6 ADD DUP6 PUSH2 0xCB8 JUMP JUMPDEST SWAP1 POP PUSH0 PUSH32 0x0 PUSH1 0x1 PUSH1 0x1 PUSH1 0xA0 SHL SUB AND PUSH4 0x61AE449A DUP4 PUSH1 0x20 ADD MLOAD DUP5 PUSH1 0x40 ADD MLOAD PUSH0 PUSH8 0xFFFFFFFFFFFFFFFF DUP2 GT ISZERO PUSH2 0x26B JUMPI PUSH2 0x26B PUSH2 0x90E JUMP JUMPDEST PUSH1 0x40 MLOAD SWAP1 DUP1 DUP3 MSTORE DUP1 PUSH1 0x1F ADD PUSH1 0x1F NOT AND PUSH1 0x20 ADD DUP3 ADD PUSH1 0x40 MSTORE DUP1 ISZERO PUSH2 0x295 JUMPI PUSH1 0x20 DUP3 ADD DUP2 DUP1 CALLDATASIZE DUP4 CALLDATACOPY ADD SWAP1 POP JUMPDEST POP PUSH1 0x40 MLOAD DUP5 PUSH4 0xFFFFFFFF AND PUSH1 0xE0 SHL DUP2 MSTORE PUSH1 0x4 ADD PUSH2 0x2B4 SWAP4 SWAP3 SWAP2 SWAP1 PUSH2 0xD09 JUMP JUMPDEST PUSH1 0x20 PUSH1 0x40 MLOAD DUP1 DUP4 SUB DUP2 PUSH0 DUP8 GAS CALL ISZERO DUP1 ISZERO PUSH2 0x2D0 JUMPI RETURNDATASIZE PUSH0 DUP1 RETURNDATACOPY RETURNDATASIZE PUSH0 REVERT JUMPDEST POP POP POP POP PUSH1 0x40 MLOAD RETURNDATASIZE PUSH1 0x1F NOT PUSH1 0x1F DUP3 ADD AND DUP3 ADD DUP1 PUSH1 0x40 MSTORE POP DUP2 ADD SWAP1 PUSH2 0x2F4 SWAP2 SWAP1 PUSH2 0xCA1 JUMP JUMPDEST SWAP1 POP PUSH0 PUSH2 0x301 DUP3 PUSH1 0x80 SHR SWAP1 JUMP JUMPDEST PUSH1 0xF SIGNEXTEND SGT ISZERO PUSH2 0x50E JUMPI PUSH1 0x20 DUP3 ADD MLOAD MLOAD PUSH1 0x1 PUSH1 0x1 PUSH1 0xA0 SHL SUB AND PUSH2 0x3D7 JUMPI PUSH32 0x0 PUSH1 0x1 PUSH1 0x1 PUSH1 0xA0 SHL SUB AND PUSH4 0x6A256B29 PUSH2 0x356 DUP4 PUSH1 0x80 SHR SWAP1 JUMP JUMPDEST PUSH1 0x20 DUP6 ADD MLOAD MLOAD PUSH1 0x40 MLOAD PUSH1 0x1 PUSH1 0x1 PUSH1 0xE0 SHL SUB NOT PUSH1 0xE0 DUP6 SWAP1 SHL AND DUP2 MSTORE PUSH1 0x1 PUSH1 0x1 PUSH1 0xA0 SHL SUB SWAP1 SWAP2 AND PUSH1 0x4 DUP3 ADD MSTORE PUSH1 0x1 PUSH1 0x1 PUSH1 0x80 SHL SUB SWAP2 SWAP1 SWAP2 AND SWAP1 PUSH1 0x24 ADD PUSH1 0x20 PUSH1 0x40 MLOAD DUP1 DUP4 SUB DUP2 DUP6 DUP9 GAS CALL ISZERO DUP1 ISZERO PUSH2 0x3AC JUMPI RETURNDATASIZE PUSH0 DUP1 RETURNDATACOPY RETURNDATASIZE PUSH0 REVERT JUMPDEST POP POP POP POP POP PUSH1 0x40 MLOAD RETURNDATASIZE PUSH1 0x1F NOT PUSH1 0x1F DUP3 ADD AND DUP3 ADD DUP1 PUSH1 0x40 MSTORE POP DUP2 ADD SWAP1 PUSH2 0x3D1 SWAP2 SWAP1 PUSH2 0xCA1 JUMP JUMPDEST POP PUSH2 0x50E JUMP JUMPDEST DUP2 PUSH1 0x20 ADD MLOAD PUSH0 ADD MLOAD PUSH1 0x1 PUSH1 0x1 PUSH1 0xA0 SHL SUB AND PUSH4 0x23B872DD DUP4 PUSH0 ADD MLOAD PUSH32 0x0 PUSH2 0x41C DUP6 PUSH1 0x80 SHR SWAP1 JUMP JUMPDEST PUSH1 0x40 MLOAD DUP5 PUSH4 0xFFFFFFFF AND PUSH1 0xE0 SHL DUP2 MSTORE PUSH1 0x4 ADD PUSH2 0x43A SWAP4 SWAP3 SWAP2 SWAP1 PUSH2 0xD56 JUMP JUMPDEST PUSH1 0x20 PUSH1 0x40 MLOAD DUP1 DUP4 SUB DUP2 PUSH0 DUP8 GAS CALL ISZERO DUP1 ISZERO PUSH2 0x456 JUMPI RETURNDATASIZE PUSH0 DUP1 RETURNDATACOPY RETURNDATASIZE PUSH0 REVERT JUMPDEST POP POP POP POP PUSH1 0x40 MLOAD RETURNDATASIZE PUSH1 0x1F NOT PUSH1 0x1F DUP3 ADD AND DUP3 ADD DUP1 PUSH1 0x40 MSTORE POP DUP2 ADD SWAP1 PUSH2 0x47A SWAP2 SWAP1 PUSH2 0xD82 JUMP JUMPDEST POP PUSH1 0x20 DUP3 ADD MLOAD MLOAD PUSH1 0x40 MLOAD PUSH4 0x6A256B29 PUSH1 0xE0 SHL DUP2 MSTORE PUSH1 0x1 PUSH1 0x1 PUSH1 0xA0 SHL SUB SWAP2 DUP3 AND PUSH1 0x4 DUP3 ADD MSTORE PUSH32 0x0 SWAP1 SWAP2 AND SWAP1 PUSH4 0x6A256B29 SWAP1 PUSH1 0x24 ADD PUSH1 0x20 PUSH1 0x40 MLOAD DUP1 DUP4 SUB DUP2 PUSH0 DUP8 GAS CALL ISZERO DUP1 ISZERO PUSH2 0x4E8 JUMPI RETURNDATASIZE PUSH0 DUP1 RETURNDATACOPY RETURNDATASIZE PUSH0 REVERT JUMPDEST POP POP POP POP PUSH1 0x40 MLOAD RETURNDATASIZE PUSH1 0x1F NOT PUSH1 0x1F DUP3 ADD AND DUP3 ADD DUP1 PUSH1 0x40 MSTORE POP DUP2 ADD SWAP1 PUSH2 0x50C SWAP2 SWAP1 PUSH2 0xCA1 JUMP JUMPDEST POP JUMPDEST PUSH0 DUP2 PUSH1 0xF SIGNEXTEND SGT ISZERO PUSH2 0x70A JUMPI PUSH1 0x20 DUP1 DUP4 ADD MLOAD ADD MLOAD PUSH1 0x1 PUSH1 0x1 PUSH1 0xA0 SHL SUB AND PUSH2 0x5D3 JUMPI PUSH1 0x20 DUP1 DUP4 ADD MLOAD ADD MLOAD PUSH1 0x40 MLOAD PUSH4 0x6A256B29 PUSH1 0xE0 SHL DUP2 MSTORE PUSH1 0x1 PUSH1 0x1 PUSH1 0xA0 SHL SUB SWAP2 DUP3 AND PUSH1 0x4 DUP3 ADD MSTORE PUSH32 0x0 SWAP1 SWAP2 AND SWAP1 PUSH4 0x6A256B29 SWAP1 PUSH1 0x1 PUSH1 0x1 PUSH1 0x80 SHL SUB DUP5 AND SWAP1 PUSH1 0x24 ADD PUSH1 0x20 PUSH1 0x40 MLOAD DUP1 DUP4 SUB DUP2 DUP6 DUP9 GAS CALL ISZERO DUP1 ISZERO PUSH2 0x5A8 JUMPI RETURNDATASIZE PUSH0 DUP1 RETURNDATACOPY RETURNDATASIZE PUSH0 REVERT JUMPDEST POP POP POP POP POP PUSH1 0x40 MLOAD RETURNDATASIZE PUSH1 0x1F NOT PUSH1 0x1F DUP3 ADD AND DUP3 ADD DUP1 PUSH1 0x40 MSTORE POP DUP2 ADD SWAP1 PUSH2 0x5CD SWAP2 SWAP1 PUSH2 0xCA1 JUMP JUMPDEST POP PUSH2 0x70A JUMP JUMPDEST DUP2 PUSH1 0x20 ADD MLOAD PUSH1 0x20 ADD MLOAD PUSH1 0x1 PUSH1 0x1 PUSH1 0xA0 SHL SUB AND PUSH4 0x23B872DD DUP4 PUSH0 ADD MLOAD PUSH32 0x0 PUSH2 0x616 DUP6 SWAP1 JUMP JUMPDEST PUSH1 0x40 MLOAD DUP5 PUSH4 0xFFFFFFFF AND PUSH1 0xE0 SHL DUP2 MSTORE PUSH1 0x4 ADD PUSH2 0x634 SWAP4 SWAP3 SWAP2 SWAP1 PUSH2 0xD56 JUMP JUMPDEST PUSH1 0x20 PUSH1 0x40 MLOAD DUP1 DUP4 SUB DUP2 PUSH0 DUP8 GAS CALL ISZERO DUP1 ISZERO PUSH2 0x650 JUMPI RETURNDATASIZE PUSH0 DUP1 RETURNDATACOPY RETURNDATASIZE PUSH0 REVERT JUMPDEST POP POP POP POP PUSH1 0x40 MLOAD RETURNDATASIZE PUSH1 0x1F NOT PUSH1 0x1F DUP3 ADD AND DUP3 ADD DUP1 PUSH1 0x40 MSTORE POP DUP2 ADD SWAP1 PUSH2 0x674 SWAP2 SWAP1 PUSH2 0xD82 JUMP JUMPDEST POP PUSH1 0x20 DUP3 DUP2 ADD MLOAD ADD MLOAD PUSH1 0x40 MLOAD PUSH4 0x6A256B29 PUSH1 0xE0 SHL DUP2 MSTORE PUSH1 0x1 PUSH1 0x1 PUSH1 0xA0 SHL SUB SWAP2 DUP3 AND PUSH1 0x4 DUP3 ADD MSTORE PUSH32 0x0 SWAP1 SWAP2 AND SWAP1 PUSH4 0x6A256B29 SWAP1 PUSH1 0x24 ADD PUSH1 0x20 PUSH1 0x40 MLOAD DUP1 DUP4 SUB DUP2 PUSH0 DUP8 GAS CALL ISZERO DUP1 ISZERO PUSH2 0x6E4 JUMPI RETURNDATASIZE PUSH0 DUP1 RETURNDATACOPY RETURNDATASIZE PUSH0 REVERT JUMPDEST POP POP POP POP PUSH1 0x40 MLOAD RETURNDATASIZE PUSH1 0x1F NOT PUSH1 0x1F DUP3 ADD AND DUP3 ADD DUP1 PUSH1 0x40 MSTORE POP DUP2 ADD SWAP1 PUSH2 0x708 SWAP2 SWAP1 PUSH2 0xCA1 JUMP JUMPDEST POP JUMPDEST PUSH0 PUSH2 0x715 DUP3 PUSH1 0x80 SHR SWAP1 JUMP JUMPDEST PUSH1 0xF SIGNEXTEND SLT ISZERO PUSH2 0x7B6 JUMPI PUSH1 0x20 DUP3 ADD MLOAD MLOAD DUP3 MLOAD PUSH1 0x1 PUSH1 0x1 PUSH1 0xA0 SHL SUB PUSH32 0x0 AND SWAP2 PUSH4 0xB0D9C09 SWAP2 PUSH2 0x761 DUP6 PUSH1 0x80 SHR SWAP1 JUMP JUMPDEST PUSH2 0x76A SWAP1 PUSH2 0xDA1 JUMP JUMPDEST PUSH1 0x40 MLOAD DUP5 PUSH4 0xFFFFFFFF AND PUSH1 0xE0 SHL DUP2 MSTORE PUSH1 0x4 ADD PUSH2 0x788 SWAP4 SWAP3 SWAP2 SWAP1 PUSH2 0xD56 JUMP JUMPDEST PUSH0 PUSH1 0x40 MLOAD DUP1 DUP4 SUB DUP2 PUSH0 DUP8 DUP1 EXTCODESIZE ISZERO DUP1 ISZERO PUSH2 0x79F JUMPI PUSH0 DUP1 REVERT JUMPDEST POP GAS CALL ISZERO DUP1 ISZERO PUSH2 0x7B1 JUMPI RETURNDATASIZE PUSH0 DUP1 RETURNDATACOPY RETURNDATASIZE PUSH0 REVERT JUMPDEST POP POP POP POP JUMPDEST PUSH0 DUP2 PUSH1 0xF SIGNEXTEND SLT ISZERO PUSH2 0x851 JUMPI PUSH1 0x20 DUP3 DUP2 ADD MLOAD ADD MLOAD DUP3 MLOAD PUSH32 0x0 PUSH1 0x1 PUSH1 0x1 PUSH1 0xA0 SHL SUB AND SWAP2 PUSH4 0xB0D9C09 SWAP2 PUSH2 0x805 DUP6 PUSH2 0xDA1 JUMP JUMPDEST PUSH1 0x40 MLOAD DUP5 PUSH4 0xFFFFFFFF AND PUSH1 0xE0 SHL DUP2 MSTORE PUSH1 0x4 ADD PUSH2 0x823 SWAP4 SWAP3 SWAP2 SWAP1 PUSH2 0xD56 JUMP JUMPDEST PUSH0 PUSH1 0x40 MLOAD DUP1 DUP4 SUB DUP2 PUSH0 DUP8 DUP1 EXTCODESIZE ISZERO DUP1 ISZERO PUSH2 0x83A JUMPI PUSH0 DUP1 REVERT JUMPDEST POP GAS CALL ISZERO DUP1 ISZERO PUSH2 0x84C JUMPI RETURNDATASIZE PUSH0 DUP1 RETURNDATACOPY RETURNDATASIZE PUSH0 REVERT JUMPDEST POP POP POP POP JUMPDEST PUSH1 0x40 DUP1 MLOAD PUSH1 0x20 DUP2 ADD DUP4 SWAP1 MSTORE ADD PUSH1 0x40 MLOAD PUSH1 0x20 DUP2 DUP4 SUB SUB DUP2 MSTORE SWAP1 PUSH1 0x40 MSTORE SWAP3 POP POP POP SWAP3 SWAP2 POP POP JUMP JUMPDEST PUSH0 PUSH1 0x1 PUSH1 0x1 PUSH1 0xA0 SHL SUB DUP5 AND PUSH2 0x8B2 JUMPI PUSH0 DUP1 PUSH0 DUP1 DUP6 DUP8 GAS CALL SWAP1 POP DUP1 PUSH2 0x8AD JUMPI PUSH1 0x40 MLOAD PUSH4 0x3D2CEC6F PUSH1 0xE2 SHL DUP2 MSTORE PUSH1 0x4 ADD PUSH1 0x40 MLOAD DUP1 SWAP2 SUB SWAP1 REVERT JUMPDEST PUSH2 0x908 JUMP JUMPDEST PUSH1 0x40 MLOAD PUSH4 0xA9059CBB PUSH1 0xE0 SHL PUSH0 MSTORE DUP4 PUSH1 0x4 MSTORE DUP3 PUSH1 0x24 MSTORE PUSH1 0x20 PUSH0 PUSH1 0x44 PUSH0 DUP1 DUP10 GAS CALL RETURNDATASIZE ISZERO PUSH1 0x1F RETURNDATASIZE GT PUSH1 0x1 PUSH0 MLOAD EQ AND OR AND SWAP2 POP PUSH0 PUSH1 0x60 MSTORE DUP1 PUSH1 0x40 MSTORE POP DUP1 PUSH2 0x908 JUMPI PUSH1 0x40 MLOAD PUSH4 0x3C9FD939 PUSH1 0xE2 SHL DUP2 MSTORE PUSH1 0x4 ADD PUSH1 0x40 MLOAD DUP1 SWAP2 SUB SWAP1 REVERT JUMPDEST POP POP POP POP JUMP JUMPDEST PUSH4 0x4E487B71 PUSH1 0xE0 SHL PUSH0 MSTORE PUSH1 0x41 PUSH1 0x4 MSTORE PUSH1 0x24 PUSH0 REVERT JUMPDEST PUSH1 0x40 MLOAD PUSH1 0x60 DUP2 ADD PUSH8 0xFFFFFFFFFFFFFFFF DUP2 GT DUP3 DUP3 LT OR ISZERO PUSH2 0x945 JUMPI PUSH2 0x945 PUSH2 0x90E JUMP JUMPDEST PUSH1 0x40 MSTORE SWAP1 JUMP JUMPDEST PUSH1 0x1 PUSH1 0x1 PUSH1 0xA0 SHL SUB DUP2 AND DUP2 EQ PUSH2 0x95F JUMPI PUSH0 DUP1 REVERT JUMPDEST POP JUMP JUMPDEST DUP1 CALLDATALOAD PUSH1 0x2 DUP2 SWAP1 SIGNEXTEND DUP2 EQ PUSH2 0x973 JUMPI PUSH0 DUP1 REVERT JUMPDEST SWAP2 SWAP1 POP JUMP JUMPDEST PUSH0 PUSH1 0xA0 DUP3 DUP5 SUB SLT ISZERO PUSH2 0x988 JUMPI PUSH0 DUP1 REVERT JUMPDEST PUSH1 0x40 MLOAD PUSH1 0xA0 DUP2 ADD DUP2 DUP2 LT PUSH8 0xFFFFFFFFFFFFFFFF DUP3 GT OR ISZERO PUSH2 0x9AB JUMPI PUSH2 0x9AB PUSH2 0x90E JUMP JUMPDEST PUSH1 0x40 MSTORE SWAP1 POP DUP1 DUP3 CALLDATALOAD PUSH2 0x9BC DUP2 PUSH2 0x94B JUMP JUMPDEST DUP2 MSTORE PUSH1 0x20 DUP4 ADD CALLDATALOAD PUSH2 0x9CC DUP2 PUSH2 0x94B JUMP JUMPDEST PUSH1 0x20 DUP3 ADD MSTORE PUSH1 0x40 DUP4 ADD CALLDATALOAD PUSH3 0xFFFFFF DUP2 AND DUP2 EQ PUSH2 0x9E6 JUMPI PUSH0 DUP1 REVERT JUMPDEST PUSH1 0x40 DUP3 ADD MSTORE PUSH2 0x9F7 PUSH1 0x60 DUP5 ADD PUSH2 0x962 JUMP JUMPDEST PUSH1 0x60 DUP3 ADD MSTORE PUSH1 0x80 DUP4 ADD CALLDATALOAD PUSH2 0xA0A DUP2 PUSH2 0x94B JUMP JUMPDEST PUSH1 0x80 SWAP2 SWAP1 SWAP2 ADD MSTORE SWAP3 SWAP2 POP POP JUMP JUMPDEST PUSH0 PUSH1 0x60 DUP3 DUP5 SUB SLT ISZERO PUSH2 0xA27 JUMPI PUSH0 DUP1 REVERT JUMPDEST PUSH2 0xA2F PUSH2 0x922 JUMP JUMPDEST SWAP1 POP PUSH2 0xA3A DUP3 PUSH2 0x962 JUMP JUMPDEST DUP2 MSTORE PUSH2 0xA48 PUSH1 0x20 DUP4 ADD PUSH2 0x962 JUMP JUMPDEST PUSH1 0x20 DUP3 ADD MSTORE PUSH1 0x40 DUP3 ADD CALLDATALOAD PUSH1 0x40 DUP3 ADD MSTORE SWAP3 SWAP2 POP POP JUMP JUMPDEST PUSH0 DUP1 PUSH2 0x100 DUP4 DUP6 SUB SLT ISZERO PUSH2 0xA6F JUMPI PUSH0 DUP1 REVERT JUMPDEST PUSH2 0xA79 DUP5 DUP5 PUSH2 0x978 JUMP JUMPDEST SWAP2 POP PUSH2 0xA88 DUP5 PUSH1 0xA0 DUP6 ADD PUSH2 0xA17 JUMP JUMPDEST SWAP1 POP SWAP3 POP SWAP3 SWAP1 POP JUMP JUMPDEST PUSH0 DUP1 PUSH1 0x20 DUP4 DUP6 SUB SLT ISZERO PUSH2 0xAA2 JUMPI PUSH0 DUP1 REVERT JUMPDEST DUP3 CALLDATALOAD PUSH8 0xFFFFFFFFFFFFFFFF DUP1 DUP3 GT ISZERO PUSH2 0xAB9 JUMPI PUSH0 DUP1 REVERT JUMPDEST DUP2 DUP6 ADD SWAP2 POP DUP6 PUSH1 0x1F DUP4 ADD SLT PUSH2 0xACC JUMPI PUSH0 DUP1 REVERT JUMPDEST DUP2 CALLDATALOAD DUP2 DUP2 GT ISZERO PUSH2 0xADA JUMPI PUSH0 DUP1 REVERT JUMPDEST DUP7 PUSH1 0x20 DUP3 DUP6 ADD ADD GT ISZERO PUSH2 0xAEB JUMPI PUSH0 DUP1 REVERT JUMPDEST PUSH1 0x20 SWAP3 SWAP1 SWAP3 ADD SWAP7 SWAP2 SWAP6 POP SWAP1 SWAP4 POP POP POP POP JUMP JUMPDEST PUSH0 JUMPDEST DUP4 DUP2 LT ISZERO PUSH2 0xB17 JUMPI DUP2 DUP2 ADD MLOAD DUP4 DUP3 ADD MSTORE PUSH1 0x20 ADD PUSH2 0xAFF JUMP JUMPDEST POP POP PUSH0 SWAP2 ADD MSTORE JUMP JUMPDEST PUSH0 DUP2 MLOAD DUP1 DUP5 MSTORE PUSH2 0xB36 DUP2 PUSH1 0x20 DUP7 ADD PUSH1 0x20 DUP7 ADD PUSH2 0xAFD JUMP JUMPDEST PUSH1 0x1F ADD PUSH1 0x1F NOT AND SWAP3 SWAP1 SWAP3 ADD PUSH1 0x20 ADD SWAP3 SWAP2 POP POP JUMP JUMPDEST PUSH1 0x20 DUP2 MSTORE PUSH0 PUSH2 0xB5C PUSH1 0x20 DUP4 ADD DUP5 PUSH2 0xB1F JUMP JUMPDEST SWAP4 SWAP3 POP POP POP JUMP JUMPDEST DUP1 MLOAD PUSH1 0x1 PUSH1 0x1 PUSH1 0xA0 SHL SUB SWAP1 DUP2 AND DUP4 MSTORE PUSH1 0x20 DUP1 DUP4 ADD MLOAD DUP3 AND SWAP1 DUP5 ADD MSTORE PUSH1 0x40 DUP1 DUP4 ADD MLOAD PUSH3 0xFFFFFF AND SWAP1 DUP5 ADD MSTORE PUSH1 0x60 DUP1 DUP4 ADD MLOAD PUSH1 0x2 SIGNEXTEND SWAP1 DUP5 ADD MSTORE PUSH1 0x80 SWAP2 DUP3 ADD MLOAD AND SWAP2 ADD MSTORE JUMP JUMPDEST DUP2 MLOAD PUSH1 0x1 PUSH1 0x1 PUSH1 0xA0 SHL SUB AND DUP2 MSTORE PUSH1 0x20 DUP1 DUP4 ADD MLOAD PUSH2 0x120 DUP4 ADD SWAP2 PUSH2 0xBCB SWAP1 DUP5 ADD DUP3 PUSH2 0xB63 JUMP JUMPDEST POP PUSH1 0x40 DUP4 DUP2 ADD MLOAD DUP1 MLOAD PUSH1 0x2 SWAP1 DUP2 SIGNEXTEND PUSH1 0xC0 DUP7 ADD MSTORE PUSH1 0x20 DUP3 ADD MLOAD SWAP1 SIGNEXTEND PUSH1 0xE0 DUP6 ADD MSTORE SWAP1 DUP2 ADD MLOAD PUSH2 0x100 DUP5 ADD MSTORE PUSH2 0x1CC JUMP JUMPDEST PUSH0 PUSH1 0x20 DUP3 DUP5 SUB SLT ISZERO PUSH2 0xC09 JUMPI PUSH0 DUP1 REVERT JUMPDEST DUP2 MLOAD PUSH8 0xFFFFFFFFFFFFFFFF DUP1 DUP3 GT ISZERO PUSH2 0xC20 JUMPI PUSH0 DUP1 REVERT JUMPDEST DUP2 DUP5 ADD SWAP2 POP DUP5 PUSH1 0x1F DUP4 ADD SLT PUSH2 0xC33 JUMPI PUSH0 DUP1 REVERT JUMPDEST DUP2 MLOAD DUP2 DUP2 GT ISZERO PUSH2 0xC45 JUMPI PUSH2 0xC45 PUSH2 0x90E JUMP JUMPDEST PUSH1 0x40 MLOAD PUSH1 0x1F DUP3 ADD PUSH1 0x1F NOT SWAP1 DUP2 AND PUSH1 0x3F ADD AND DUP2 ADD SWAP1 DUP4 DUP3 GT DUP2 DUP4 LT OR ISZERO PUSH2 0xC6D JUMPI PUSH2 0xC6D PUSH2 0x90E JUMP JUMPDEST DUP2 PUSH1 0x40 MSTORE DUP3 DUP2 MSTORE DUP8 PUSH1 0x20 DUP5 DUP8 ADD ADD GT ISZERO PUSH2 0xC85 JUMPI PUSH0 DUP1 REVERT JUMPDEST PUSH2 0xC96 DUP4 PUSH1 0x20 DUP4 ADD PUSH1 0x20 DUP9 ADD PUSH2 0xAFD JUMP JUMPDEST SWAP8 SWAP7 POP POP POP POP POP POP POP JUMP JUMPDEST PUSH0 PUSH1 0x20 DUP3 DUP5 SUB SLT ISZERO PUSH2 0xCB1 JUMPI PUSH0 DUP1 REVERT JUMPDEST POP MLOAD SWAP2 SWAP1 POP JUMP JUMPDEST PUSH0 PUSH2 0x120 DUP3 DUP5 SUB SLT ISZERO PUSH2 0xCC9 JUMPI PUSH0 DUP1 REVERT JUMPDEST PUSH2 0xCD1 PUSH2 0x922 JUMP JUMPDEST DUP3 CALLDATALOAD PUSH2 0xCDC DUP2 PUSH2 0x94B JUMP JUMPDEST DUP2 MSTORE PUSH2 0xCEB DUP5 PUSH1 0x20 DUP6 ADD PUSH2 0x978 JUMP JUMPDEST PUSH1 0x20 DUP3 ADD MSTORE PUSH2 0xCFD DUP5 PUSH1 0xC0 DUP6 ADD PUSH2 0xA17 JUMP JUMPDEST PUSH1 0x40 DUP3 ADD MSTORE SWAP4 SWAP3 POP POP POP JUMP JUMPDEST PUSH0 PUSH2 0x120 PUSH2 0xD17 DUP4 DUP8 PUSH2 0xB63 JUMP JUMPDEST DUP5 MLOAD PUSH1 0x2 SWAP1 DUP2 SIGNEXTEND PUSH1 0xA0 DUP6 ADD MSTORE PUSH1 0x20 DUP7 ADD MLOAD SWAP1 SIGNEXTEND PUSH1 0xC0 DUP5 ADD MSTORE PUSH1 0x40 DUP6 ADD MLOAD PUSH1 0xE0 DUP5 ADD MSTORE DUP1 PUSH2 0x100 DUP5 ADD MSTORE PUSH2 0xD4C DUP2 DUP5 ADD DUP6 PUSH2 0xB1F JUMP JUMPDEST SWAP7 SWAP6 POP POP POP POP POP POP JUMP JUMPDEST PUSH1 0x1 PUSH1 0x1 PUSH1 0xA0 SHL SUB SWAP4 DUP5 AND DUP2 MSTORE SWAP2 SWAP1 SWAP3 AND PUSH1 0x20 DUP3 ADD MSTORE PUSH1 0x1 PUSH1 0x1 PUSH1 0x80 SHL SUB SWAP1 SWAP2 AND PUSH1 0x40 DUP3 ADD MSTORE PUSH1 0x60 ADD SWAP1 JUMP JUMPDEST PUSH0 PUSH1 0x20 DUP3 DUP5 SUB SLT ISZERO PUSH2 0xD92 JUMPI PUSH0 DUP1 REVERT JUMPDEST DUP2 MLOAD DUP1 ISZERO ISZERO DUP2 EQ PUSH2 0xB5C JUMPI PUSH0 DUP1 REVERT JUMPDEST PUSH0 DUP2 PUSH1 0xF SIGNEXTEND PUSH16 0x7FFFFFFFFFFFFFFFFFFFFFFFFFFFFFFF NOT DUP2 SUB PUSH2 0xDD2 JUMPI PUSH4 0x4E487B71 PUSH1 0xE0 SHL PUSH0 MSTORE PUSH1 0x11 PUSH1 0x4 MSTORE PUSH1 0x24 PUSH0 REVERT JUMPDEST PUSH0 SUB SWAP3 SWAP2 POP POP JUMP INVALID LOG2 PUSH5 0x6970667358 0x22 SLT KECCAK256 PUSH31 0x1E8682A1BD09CAD4FCDCBC00F0E52A5F748CC5E49CE7321A129C8C092DA36C PUSH5 0x736F6C6343 STOP ADDMOD EQ STOP CALLER PUSH1 0xA0 PUSH1 0x40 MSTORE CALLVALUE DUP1 ISZERO PUSH2 0xF JUMPI PUSH0 DUP1 REVERT JUMPDEST POP PUSH1 0x40 MLOAD PUSH2 0x1316 CODESIZE SUB DUP1 PUSH2 0x1316 DUP4 CODECOPY DUP2 ADD PUSH1 0x40 DUP2 SWAP1 MSTORE PUSH2 0x2E SWAP2 PUSH2 0x3F JUMP JUMPDEST PUSH1 0x1 PUSH1 0x1 PUSH1 0xA0 SHL SUB AND PUSH1 0x80 MSTORE PUSH2 0x6C JUMP JUMPDEST PUSH0 PUSH1 0x20 DUP3 DUP5 SUB SLT ISZERO PUSH2 0x4F JUMPI PUSH0 DUP1 REVERT JUMPDEST DUP2 MLOAD PUSH1 0x1 PUSH1 0x1 PUSH1 0xA0 SHL SUB DUP2 AND DUP2 EQ PUSH2 0x65 JUMPI PUSH0 DUP1 REVERT JUMPDEST SWAP4 SWAP3 POP POP POP JUMP JUMPDEST PUSH1 0x80 MLOAD PUSH2 0x121D PUSH2 0xF9 PUSH0 CODECOPY PUSH0 DUP2 DUP2 PUSH1 0x6E ADD MSTORE DUP2 DUP2 PUSH1 0xD7 ADD MSTORE DUP2 DUP2 PUSH2 0x1EE ADD MSTORE DUP2 DUP2 PUSH2 0x229 ADD MSTORE DUP2 DUP2 PUSH2 0x308 ADD MSTORE DUP2 DUP2 PUSH2 0x3DE ADD MSTORE DUP2 DUP2 PUSH2 0x48B ADD MSTORE DUP2 DUP2 PUSH2 0x4F9 ADD MSTORE DUP2 DUP2 PUSH2 0x52C ADD MSTORE DUP2 DUP2 PUSH2 0x5DE ADD MSTORE DUP2 DUP2 PUSH2 0x66D ADD MSTORE DUP2 DUP2 PUSH2 0x701 ADD MSTORE DUP2 DUP2 PUSH2 0x79C ADD MSTORE DUP2 DUP2 PUSH2 0x849 ADD MSTORE DUP2 DUP2 PUSH2 0x8B7 ADD MSTORE DUP2 DUP2 PUSH2 0x8EA ADD MSTORE DUP2 DUP2 PUSH2 0x9A0 ADD MSTORE PUSH2 0x9E3 ADD MSTORE PUSH2 0x121D PUSH0 RETURN INVALID PUSH1 0x80 PUSH1 0x40 MSTORE PUSH1 0x4 CALLDATASIZE LT PUSH2 0x33 JUMPI PUSH0 CALLDATALOAD PUSH1 0xE0 SHR DUP1 PUSH4 0x2229D0B4 EQ PUSH2 0x37 JUMPI DUP1 PUSH4 0x481C6A75 EQ PUSH2 0x5D JUMPI DUP1 PUSH4 0xAB6291FE EQ PUSH2 0xA8 JUMPI JUMPDEST PUSH0 DUP1 REVERT JUMPDEST PUSH2 0x4A PUSH2 0x45 CALLDATASIZE PUSH1 0x4 PUSH2 0xD83 JUMP JUMPDEST PUSH2 0xD4 JUMP JUMPDEST PUSH1 0x40 MLOAD SWAP1 DUP2 MSTORE PUSH1 0x20 ADD JUMPDEST PUSH1 0x40 MLOAD DUP1 SWAP2 SUB SWAP1 RETURN JUMPDEST CALLVALUE DUP1 ISZERO PUSH2 0x68 JUMPI PUSH0 DUP1 REVERT JUMPDEST POP PUSH2 0x90 PUSH32 0x0 DUP2 JUMP JUMPDEST PUSH1 0x40 MLOAD PUSH1 0x1 PUSH1 0x1 PUSH1 0xA0 SHL SUB SWAP1 SWAP2 AND DUP2 MSTORE PUSH1 0x20 ADD PUSH2 0x54 JUMP JUMPDEST CALLVALUE DUP1 ISZERO PUSH2 0xB3 JUMPI PUSH0 DUP1 REVERT JUMPDEST POP PUSH2 0xC7 PUSH2 0xC2 CALLDATASIZE PUSH1 0x4 PUSH2 0xDF4 JUMP JUMPDEST PUSH2 0x1E1 JUMP JUMPDEST PUSH1 0x40 MLOAD PUSH2 0x54 SWAP2 SWAP1 PUSH2 0xEAD JUMP JUMPDEST PUSH0 PUSH32 0x0 PUSH1 0x1 PUSH1 0x1 PUSH1 0xA0 SHL SUB AND PUSH4 0x81548319 PUSH1 0x40 MLOAD DUP1 PUSH1 0xA0 ADD PUSH1 0x40 MSTORE DUP1 CALLER PUSH1 0x1 PUSH1 0x1 PUSH1 0xA0 SHL SUB AND DUP2 MSTORE PUSH1 0x20 ADD DUP7 DUP2 MSTORE PUSH1 0x20 ADD DUP9 DUP2 MSTORE PUSH1 0x20 ADD DUP8 DUP2 MSTORE PUSH1 0x20 ADD DUP6 DUP2 MSTORE POP PUSH1 0x40 MLOAD PUSH1 0x20 ADD PUSH2 0x144 SWAP2 SWAP1 PUSH2 0xF09 JUMP JUMPDEST PUSH1 0x40 MLOAD PUSH1 0x20 DUP2 DUP4 SUB SUB DUP2 MSTORE SWAP1 PUSH1 0x40 MSTORE PUSH1 0x40 MLOAD DUP3 PUSH4 0xFFFFFFFF AND PUSH1 0xE0 SHL DUP2 MSTORE PUSH1 0x4 ADD PUSH2 0x16F SWAP2 SWAP1 PUSH2 0xEAD JUMP JUMPDEST PUSH0 PUSH1 0x40 MLOAD DUP1 DUP4 SUB DUP2 PUSH0 DUP8 GAS CALL ISZERO DUP1 ISZERO PUSH2 0x18A JUMPI RETURNDATASIZE PUSH0 DUP1 RETURNDATACOPY RETURNDATASIZE PUSH0 REVERT JUMPDEST POP POP POP POP PUSH1 0x40 MLOAD RETURNDATASIZE PUSH0 DUP3 RETURNDATACOPY PUSH1 0x1F RETURNDATASIZE SWAP1 DUP2 ADD PUSH1 0x1F NOT AND DUP3 ADD PUSH1 0x40 MSTORE PUSH2 0x1B1 SWAP2 SWAP1 DUP2 ADD SWAP1 PUSH2 0xF9A JUMP JUMPDEST DUP1 PUSH1 0x20 ADD SWAP1 MLOAD DUP2 ADD SWAP1 PUSH2 0x1C4 SWAP2 SWAP1 PUSH2 0x100C JUMP JUMPDEST SWAP1 POP SELFBALANCE DUP1 ISZERO PUSH2 0x1D8 JUMPI PUSH2 0x1D8 PUSH0 CALLER DUP4 PUSH2 0xA8E JUMP JUMPDEST POP SWAP5 SWAP4 POP POP POP POP JUMP JUMPDEST PUSH1 0x60 CALLER PUSH1 0x1 PUSH1 0x1 PUSH1 0xA0 SHL SUB PUSH32 0x0 AND EQ PUSH2 0x217 JUMPI PUSH0 DUP1 REVERT JUMPDEST PUSH0 PUSH2 0x224 DUP4 DUP6 ADD DUP6 PUSH2 0x1023 JUMP JUMPDEST SWAP1 POP PUSH0 PUSH32 0x0 PUSH1 0x1 PUSH1 0x1 PUSH1 0xA0 SHL SUB AND PUSH4 0xF3CD914C DUP4 PUSH1 0x40 ADD MLOAD DUP5 PUSH1 0x60 ADD MLOAD DUP6 PUSH1 0x80 ADD MLOAD PUSH1 0x40 MLOAD DUP5 PUSH4 0xFFFFFFFF AND PUSH1 0xE0 SHL DUP2 MSTORE PUSH1 0x4 ADD PUSH2 0x283 SWAP4 SWAP3 SWAP2 SWAP1 PUSH2 0x10D7 JUMP JUMPDEST PUSH1 0x20 PUSH1 0x40 MLOAD DUP1 DUP4 SUB DUP2 PUSH0 DUP8 GAS CALL ISZERO DUP1 ISZERO PUSH2 0x29F JUMPI RETURNDATASIZE PUSH0 DUP1 RETURNDATACOPY RETURNDATASIZE PUSH0 REVERT JUMPDEST POP POP POP POP PUSH1 0x40 MLOAD RETURNDATASIZE PUSH1 0x1F NOT PUSH1 0x1F DUP3 ADD AND DUP3 ADD DUP1 PUSH1 0x40 MSTORE POP DUP2 ADD SWAP1 PUSH2 0x2C3 SWAP2 SWAP1 PUSH2 0x100C JUMP JUMPDEST PUSH1 0x60 DUP4 ADD MLOAD MLOAD SWAP1 SWAP2 POP ISZERO PUSH2 0x6AA JUMPI PUSH0 PUSH2 0x2DC DUP3 PUSH1 0x80 SHR SWAP1 JUMP JUMPDEST PUSH1 0xF SIGNEXTEND SGT ISZERO PUSH2 0x5B3 JUMPI DUP2 PUSH1 0x20 ADD MLOAD PUSH1 0x20 ADD MLOAD ISZERO PUSH2 0x4F7 JUMPI PUSH1 0x40 DUP3 ADD MLOAD MLOAD PUSH1 0x1 PUSH1 0x1 PUSH1 0xA0 SHL SUB AND PUSH2 0x3C2 JUMPI PUSH32 0x0 PUSH1 0x1 PUSH1 0x1 PUSH1 0xA0 SHL SUB AND PUSH4 0x6A256B29 PUSH2 0x33F DUP4 PUSH1 0x80 SHR SWAP1 JUMP JUMPDEST PUSH1 0x1 PUSH1 0x1 PUSH1 0x80 SHL SUB AND DUP5 PUSH1 0x40 ADD MLOAD PUSH0 ADD MLOAD PUSH1 0x40 MLOAD DUP4 PUSH4 0xFFFFFFFF AND PUSH1 0xE0 SHL DUP2 MSTORE PUSH1 0x4 ADD PUSH2 0x37B SWAP2 SWAP1 PUSH1 0x1 PUSH1 0x1 PUSH1 0xA0 SHL SUB SWAP2 SWAP1 SWAP2 AND DUP2 MSTORE PUSH1 0x20 ADD SWAP1 JUMP JUMPDEST PUSH1 0x20 PUSH1 0x40 MLOAD DUP1 DUP4 SUB DUP2 DUP6 DUP9 GAS CALL ISZERO DUP1 ISZERO PUSH2 0x397 JUMPI RETURNDATASIZE PUSH0 DUP1 RETURNDATACOPY RETURNDATASIZE PUSH0 REVERT JUMPDEST POP POP POP POP POP PUSH1 0x40 MLOAD RETURNDATASIZE PUSH1 0x1F NOT PUSH1 0x1F DUP3 ADD AND DUP3 ADD DUP1 PUSH1 0x40 MSTORE POP DUP2 ADD SWAP1 PUSH2 0x3BC SWAP2 SWAP1 PUSH2 0x100C JUMP JUMPDEST POP PUSH2 0x5B3 JUMP JUMPDEST DUP2 PUSH1 0x40 ADD MLOAD PUSH0 ADD MLOAD PUSH1 0x1 PUSH1 0x1 PUSH1 0xA0 SHL SUB AND PUSH4 0x23B872DD DUP4 PUSH0 ADD MLOAD PUSH32 0x0 PUSH2 0x407 DUP6 PUSH1 0x80 SHR SWAP1 JUMP JUMPDEST PUSH1 0x40 MLOAD DUP5 PUSH4 0xFFFFFFFF AND PUSH1 0xE0 SHL DUP2 MSTORE PUSH1 0x4 ADD PUSH2 0x425 SWAP4 SWAP3 SWAP2 SWAP1 PUSH2 0x1128 JUMP JUMPDEST PUSH1 0x20 PUSH1 0x40 MLOAD DUP1 DUP4 SUB DUP2 PUSH0 DUP8 GAS CALL ISZERO DUP1 ISZERO PUSH2 0x441 JUMPI RETURNDATASIZE PUSH0 DUP1 RETURNDATACOPY RETURNDATASIZE PUSH0 REVERT JUMPDEST POP POP POP POP PUSH1 0x40 MLOAD RETURNDATASIZE PUSH1 0x1F NOT PUSH1 0x1F DUP3 ADD AND DUP3 ADD DUP1 PUSH1 0x40 MSTORE POP DUP2 ADD SWAP1 PUSH2 0x465 SWAP2 SWAP1 PUSH2 0x1154 JUMP JUMPDEST POP PUSH1 0x40 DUP3 DUP2 ADD MLOAD MLOAD SWAP1 MLOAD PUSH4 0x6A256B29 PUSH1 0xE0 SHL DUP2 MSTORE PUSH1 0x1 PUSH1 0x1 PUSH1 0xA0 SHL SUB SWAP2 DUP3 AND PUSH1 0x4 DUP3 ADD MSTORE PUSH32 0x0 SWAP1 SWAP2 AND SWAP1 PUSH4 0x6A256B29 SWAP1 PUSH1 0x24 ADD PUSH1 0x20 PUSH1 0x40 MLOAD DUP1 DUP4 SUB DUP2 PUSH0 DUP8 GAS CALL ISZERO DUP1 ISZERO PUSH2 0x4D3 JUMPI RETURNDATASIZE PUSH0 DUP1 RETURNDATACOPY RETURNDATASIZE PUSH0 REVERT JUMPDEST POP POP POP POP PUSH1 0x40 MLOAD RETURNDATASIZE PUSH1 0x1F NOT PUSH1 0x1F DUP3 ADD AND DUP3 ADD DUP1 PUSH1 0x40 MSTORE POP DUP2 ADD SWAP1 PUSH2 0x3BC SWAP2 SWAP1 PUSH2 0x100C JUMP JUMPDEST PUSH32 0x0 PUSH1 0x1 PUSH1 0x1 PUSH1 0xA0 SHL SUB AND PUSH4 0xF242432A DUP4 PUSH0 ADD MLOAD PUSH32 0x0 DUP6 PUSH1 0x40 ADD MLOAD PUSH0 ADD MLOAD PUSH1 0x1 PUSH1 0x1 PUSH1 0xA0 SHL SUB AND PUSH2 0x566 DUP7 PUSH1 0x80 SHR SWAP1 JUMP JUMPDEST PUSH1 0x40 MLOAD DUP6 PUSH4 0xFFFFFFFF AND PUSH1 0xE0 SHL DUP2 MSTORE PUSH1 0x4 ADD PUSH2 0x585 SWAP5 SWAP4 SWAP3 SWAP2 SWAP1 PUSH2 0x116F JUMP JUMPDEST PUSH0 PUSH1 0x40 MLOAD DUP1 DUP4 SUB DUP2 PUSH0 DUP8 DUP1 EXTCODESIZE ISZERO DUP1 ISZERO PUSH2 0x59C JUMPI PUSH0 DUP1 REVERT JUMPDEST POP GAS CALL ISZERO DUP1 ISZERO PUSH2 0x5AE JUMPI RETURNDATASIZE PUSH0 DUP1 RETURNDATACOPY RETURNDATASIZE PUSH0 REVERT JUMPDEST POP POP POP POP JUMPDEST PUSH0 DUP2 PUSH1 0xF SIGNEXTEND SLT ISZERO PUSH2 0x6A5 JUMPI PUSH1 0x20 DUP3 ADD MLOAD MLOAD ISZERO PUSH2 0x660 JUMPI PUSH1 0x40 DUP3 ADD MLOAD PUSH1 0x20 ADD MLOAD DUP3 MLOAD PUSH1 0x1 PUSH1 0x1 PUSH1 0xA0 SHL SUB PUSH32 0x0 AND SWAP2 PUSH4 0xB0D9C09 SWAP2 DUP5 JUMPDEST PUSH2 0x610 SWAP1 PUSH2 0x11AE JUMP JUMPDEST PUSH1 0x40 MLOAD DUP5 PUSH4 0xFFFFFFFF AND PUSH1 0xE0 SHL DUP2 MSTORE PUSH1 0x4 ADD PUSH2 0x62E SWAP4 SWAP3 SWAP2 SWAP1 PUSH2 0x1128 JUMP JUMPDEST PUSH0 PUSH1 0x40 MLOAD DUP1 DUP4 SUB DUP2 PUSH0 DUP8 DUP1 EXTCODESIZE ISZERO DUP1 ISZERO PUSH2 0x645 JUMPI PUSH0 DUP1 REVERT JUMPDEST POP GAS CALL ISZERO DUP1 ISZERO PUSH2 0x657 JUMPI RETURNDATASIZE PUSH0 DUP1 RETURNDATACOPY RETURNDATASIZE PUSH0 REVERT JUMPDEST POP POP POP POP PUSH2 0xA69 JUMP JUMPDEST PUSH1 0x40 DUP3 ADD MLOAD PUSH1 0x20 ADD MLOAD DUP3 MLOAD PUSH32 0x0 PUSH1 0x1 PUSH1 0x1 PUSH1 0xA0 SHL SUB AND SWAP2 PUSH4 0xC6C3BBE6 SWAP2 PUSH2 0x610 DUP6 PUSH2 0x11AE JUMP JUMPDEST PUSH2 0xA69 JUMP JUMPDEST PUSH0 DUP2 PUSH1 0xF SIGNEXTEND SGT ISZERO PUSH2 0x96F JUMPI DUP2 PUSH1 0x20 ADD MLOAD PUSH1 0x20 ADD MLOAD ISZERO PUSH2 0x8B5 JUMPI PUSH1 0x40 DUP3 ADD MLOAD PUSH1 0x20 ADD MLOAD PUSH1 0x1 PUSH1 0x1 PUSH1 0xA0 SHL SUB AND PUSH2 0x77F JUMPI PUSH1 0x40 DUP1 DUP4 ADD MLOAD PUSH1 0x20 ADD MLOAD SWAP1 MLOAD PUSH4 0x6A256B29 PUSH1 0xE0 SHL DUP2 MSTORE PUSH1 0x1 PUSH1 0x1 PUSH1 0xA0 SHL SUB SWAP2 DUP3 AND PUSH1 0x4 DUP3 ADD MSTORE PUSH32 0x0 SWAP1 SWAP2 AND SWAP1 PUSH4 0x6A256B29 SWAP1 PUSH1 0x1 PUSH1 0x1 PUSH1 0x80 SHL SUB DUP5 AND SWAP1 PUSH1 0x24 ADD PUSH1 0x20 PUSH1 0x40 MLOAD DUP1 DUP4 SUB DUP2 DUP6 DUP9 GAS CALL ISZERO DUP1 ISZERO PUSH2 0x754 JUMPI RETURNDATASIZE PUSH0 DUP1 RETURNDATACOPY RETURNDATASIZE PUSH0 REVERT JUMPDEST POP POP POP POP POP PUSH1 0x40 MLOAD RETURNDATASIZE PUSH1 0x1F NOT PUSH1 0x1F DUP3 ADD AND DUP3 ADD DUP1 PUSH1 0x40 MSTORE POP DUP2 ADD SWAP1 PUSH2 0x779 SWAP2 SWAP1 PUSH2 0x100C JUMP JUMPDEST POP PUSH2 0x96F JUMP JUMPDEST DUP2 PUSH1 0x40 ADD MLOAD PUSH1 0x20 ADD MLOAD PUSH1 0x1 PUSH1 0x1 PUSH1 0xA0 SHL SUB AND PUSH4 0x23B872DD DUP4 PUSH0 ADD MLOAD PUSH32 0x0 PUSH2 0x7C2 DUP6 SWAP1 JUMP JUMPDEST PUSH1 0x40 MLOAD DUP5 PUSH4 0xFFFFFFFF AND PUSH1 0xE0 SHL DUP2 MSTORE PUSH1 0x4 ADD PUSH2 0x7E0 SWAP4 SWAP3 SWAP2 SWAP1 PUSH2 0x1128 JUMP JUMPDEST PUSH1 0x20 PUSH1 0x40 MLOAD DUP1 DUP4 SUB DUP2 PUSH0 DUP8 GAS CALL ISZERO DUP1 ISZERO PUSH2 0x7FC JUMPI RETURNDATASIZE PUSH0 DUP1 RETURNDATACOPY RETURNDATASIZE PUSH0 REVERT JUMPDEST POP POP POP POP PUSH1 0x40 MLOAD RETURNDATASIZE PUSH1 0x1F NOT PUSH1 0x1F DUP3 ADD AND DUP3 ADD DUP1 PUSH1 0x40 MSTORE POP DUP2 ADD SWAP1 PUSH2 0x820 SWAP2 SWAP1 PUSH2 0x1154 JUMP JUMPDEST POP PUSH1 0x40 DUP3 DUP2 ADD MLOAD PUSH1 0x20 ADD MLOAD SWAP1 MLOAD PUSH4 0x6A256B29 PUSH1 0xE0 SHL DUP2 MSTORE PUSH1 0x1 PUSH1 0x1 PUSH1 0xA0 SHL SUB SWAP2 DUP3 AND PUSH1 0x4 DUP3 ADD MSTORE PUSH32 0x0 SWAP1 SWAP2 AND SWAP1 PUSH4 0x6A256B29 SWAP1 PUSH1 0x24 ADD PUSH1 0x20 PUSH1 0x40 MLOAD DUP1 DUP4 SUB DUP2 PUSH0 DUP8 GAS CALL ISZERO DUP1 ISZERO PUSH2 0x891 JUMPI RETURNDATASIZE PUSH0 DUP1 RETURNDATACOPY RETURNDATASIZE PUSH0 REVERT JUMPDEST POP POP POP POP PUSH1 0x40 MLOAD RETURNDATASIZE PUSH1 0x1F NOT PUSH1 0x1F DUP3 ADD AND DUP3 ADD DUP1 PUSH1 0x40 MSTORE POP DUP2 ADD SWAP1 PUSH2 0x779 SWAP2 SWAP1 PUSH2 0x100C JUMP JUMPDEST PUSH32 0x0 PUSH1 0x1 PUSH1 0x1 PUSH1 0xA0 SHL SUB AND PUSH4 0xF242432A DUP4 PUSH0 ADD MLOAD PUSH32 0x0 DUP6 PUSH1 0x40 ADD MLOAD PUSH1 0x20 ADD MLOAD PUSH1 0x1 PUSH1 0x1 PUSH1 0xA0 SHL SUB AND PUSH2 0x922 DUP7 SWAP1 JUMP JUMPDEST PUSH1 0x40 MLOAD DUP6 PUSH4 0xFFFFFFFF AND PUSH1 0xE0 SHL DUP2 MSTORE PUSH1 0x4 ADD PUSH2 0x941 SWAP5 SWAP4 SWAP3 SWAP2 SWAP1 PUSH2 0x116F JUMP JUMPDEST PUSH0 PUSH1 0x40 MLOAD DUP1 DUP4 SUB DUP2 PUSH0 DUP8 DUP1 EXTCODESIZE ISZERO DUP1 ISZERO PUSH2 0x958 JUMPI PUSH0 DUP1 REVERT JUMPDEST POP GAS CALL ISZERO DUP1 ISZERO PUSH2 0x96A JUMPI RETURNDATASIZE PUSH0 DUP1 RETURNDATACOPY RETURNDATASIZE PUSH0 REVERT JUMPDEST POP POP POP POP JUMPDEST PUSH0 PUSH2 0x97A DUP3 PUSH1 0x80 SHR SWAP1 JUMP JUMPDEST PUSH1 0xF SIGNEXTEND SLT ISZERO PUSH2 0xA69 JUMPI PUSH1 0x20 DUP3 ADD MLOAD MLOAD ISZERO PUSH2 0x9D1 JUMPI PUSH1 0x40 DUP3 ADD MLOAD MLOAD DUP3 MLOAD PUSH1 0x1 PUSH1 0x1 PUSH1 0xA0 SHL SUB PUSH32 0x0 AND SWAP2 PUSH4 0xB0D9C09 SWAP2 PUSH2 0x607 DUP6 PUSH1 0x80 SHR SWAP1 JUMP JUMPDEST PUSH1 0x40 DUP3 ADD MLOAD MLOAD DUP3 MLOAD PUSH1 0x1 PUSH1 0x1 PUSH1 0xA0 SHL SUB PUSH32 0x0 AND SWAP2 PUSH4 0xC6C3BBE6 SWAP2 PUSH2 0xA14 DUP6 PUSH1 0x80 SHR SWAP1 JUMP JUMPDEST PUSH2 0xA1D SWAP1 PUSH2 0x11AE JUMP JUMPDEST PUSH1 0x40 MLOAD DUP5 PUSH4 0xFFFFFFFF AND PUSH1 0xE0 SHL DUP2 MSTORE PUSH1 0x4 ADD PUSH2 0xA3B SWAP4 SWAP3 SWAP2 SWAP1 PUSH2 0x1128 JUMP JUMPDEST PUSH0 PUSH1 0x40 MLOAD DUP1 DUP4 SUB DUP2 PUSH0 DUP8 DUP1 EXTCODESIZE ISZERO DUP1 ISZERO PUSH2 0xA52 JUMPI PUSH0 DUP1 REVERT JUMPDEST POP GAS CALL ISZERO DUP1 ISZERO PUSH2 0xA64 JUMPI RETURNDATASIZE PUSH0 DUP1 RETURNDATACOPY RETURNDATASIZE PUSH0 REVERT JUMPDEST POP POP POP POP JUMPDEST PUSH1 0x40 DUP1 MLOAD PUSH1 0x20 DUP2 ADD DUP4 SWAP1 MSTORE ADD PUSH1 0x40 MLOAD PUSH1 0x20 DUP2 DUP4 SUB SUB DUP2 MSTORE SWAP1 PUSH1 0x40 MSTORE SWAP3 POP POP POP SWAP3 SWAP2 POP POP JUMP JUMPDEST PUSH0 PUSH1 0x1 PUSH1 0x1 PUSH1 0xA0 SHL SUB DUP5 AND PUSH2 0xACA JUMPI PUSH0 DUP1 PUSH0 DUP1 DUP6 DUP8 GAS CALL SWAP1 POP DUP1 PUSH2 0xAC5 JUMPI PUSH1 0x40 MLOAD PUSH4 0x3D2CEC6F PUSH1 0xE2 SHL DUP2 MSTORE PUSH1 0x4 ADD PUSH1 0x40 MLOAD DUP1 SWAP2 SUB SWAP1 REVERT JUMPDEST PUSH2 0xB20 JUMP JUMPDEST PUSH1 0x40 MLOAD PUSH4 0xA9059CBB PUSH1 0xE0 SHL PUSH0 MSTORE DUP4 PUSH1 0x4 MSTORE DUP3 PUSH1 0x24 MSTORE PUSH1 0x20 PUSH0 PUSH1 0x44 PUSH0 DUP1 DUP10 GAS CALL RETURNDATASIZE ISZERO PUSH1 0x1F RETURNDATASIZE GT PUSH1 0x1 PUSH0 MLOAD EQ AND OR AND SWAP2 POP PUSH0 PUSH1 0x60 MSTORE DUP1 PUSH1 0x40 MSTORE POP DUP1 PUSH2 0xB20 JUMPI PUSH1 0x40 MLOAD PUSH4 0x3C9FD939 PUSH1 0xE2 SHL DUP2 MSTORE PUSH1 0x4 ADD PUSH1 0x40 MLOAD DUP1 SWAP2 SUB SWAP1 REVERT JUMPDEST POP POP POP POP JUMP JUMPDEST PUSH4 0x4E487B71 PUSH1 0xE0 SHL PUSH0 MSTORE PUSH1 0x41 PUSH1 0x4 MSTORE PUSH1 0x24 PUSH0 REVERT JUMPDEST PUSH1 0x40 MLOAD PUSH1 0xA0 DUP2 ADD PUSH8 0xFFFFFFFFFFFFFFFF DUP2 GT DUP3 DUP3 LT OR ISZERO PUSH2 0xB5D JUMPI PUSH2 0xB5D PUSH2 0xB26 JUMP JUMPDEST PUSH1 0x40 MSTORE SWAP1 JUMP JUMPDEST PUSH1 0x40 MLOAD PUSH1 0x1F DUP3 ADD PUSH1 0x1F NOT AND DUP2 ADD PUSH8 0xFFFFFFFFFFFFFFFF DUP2 GT DUP3 DUP3 LT OR ISZERO PUSH2 0xB8C JUMPI PUSH2 0xB8C PUSH2 0xB26 JUMP JUMPDEST PUSH1 0x40 MSTORE SWAP2 SWAP1 POP JUMP JUMPDEST PUSH1 0x1 PUSH1 0x1 PUSH1 0xA0 SHL SUB DUP2 AND DUP2 EQ PUSH2 0xBA8 JUMPI PUSH0 DUP1 REVERT JUMPDEST POP JUMP JUMPDEST PUSH0 PUSH1 0xA0 DUP3 DUP5 SUB SLT ISZERO PUSH2 0xBBB JUMPI PUSH0 DUP1 REVERT JUMPDEST PUSH2 0xBC3 PUSH2 0xB3A JUMP JUMPDEST SWAP1 POP DUP2 CALLDATALOAD PUSH2 0xBD0 DUP2 PUSH2 0xB94 JUMP JUMPDEST DUP2 MSTORE PUSH1 0x20 DUP3 ADD CALLDATALOAD PUSH2 0xBE0 DUP2 PUSH2 0xB94 JUMP JUMPDEST PUSH1 0x20 DUP3 ADD MSTORE PUSH1 0x40 DUP3 ADD CALLDATALOAD PUSH3 0xFFFFFF DUP2 AND DUP2 EQ PUSH2 0xBFA JUMPI PUSH0 DUP1 REVERT JUMPDEST PUSH1 0x40 DUP3 ADD MSTORE PUSH1 0x60 DUP3 ADD CALLDATALOAD PUSH1 0x2 DUP2 SWAP1 SIGNEXTEND DUP2 EQ PUSH2 0xC13 JUMPI PUSH0 DUP1 REVERT JUMPDEST PUSH1 0x60 DUP3 ADD MSTORE PUSH1 0x80 DUP3 ADD CALLDATALOAD PUSH2 0xC26 DUP2 PUSH2 0xB94 JUMP JUMPDEST PUSH1 0x80 DUP3 ADD MSTORE SWAP3 SWAP2 POP POP JUMP JUMPDEST DUP1 ISZERO ISZERO DUP2 EQ PUSH2 0xBA8 JUMPI PUSH0 DUP1 REVERT JUMPDEST PUSH0 PUSH1 0x60 DUP3 DUP5 SUB SLT ISZERO PUSH2 0xC4E JUMPI PUSH0 DUP1 REVERT JUMPDEST PUSH1 0x40 MLOAD PUSH1 0x60 DUP2 ADD DUP2 DUP2 LT PUSH8 0xFFFFFFFFFFFFFFFF DUP3 GT OR ISZERO PUSH2 0xC71 JUMPI PUSH2 0xC71 PUSH2 0xB26 JUMP JUMPDEST PUSH1 0x40 MSTORE SWAP1 POP DUP1 DUP3 CALLDATALOAD PUSH2 0xC82 DUP2 PUSH2 0xC31 JUMP JUMPDEST DUP2 MSTORE PUSH1 0x20 DUP4 DUP2 ADD CALLDATALOAD SWAP1 DUP3 ADD MSTORE PUSH1 0x40 DUP4 ADD CALLDATALOAD PUSH2 0xC9C DUP2 PUSH2 0xB94 JUMP JUMPDEST PUSH1 0x40 SWAP2 SWAP1 SWAP2 ADD MSTORE SWAP3 SWAP2 POP POP JUMP JUMPDEST PUSH0 PUSH1 0x40 DUP3 DUP5 SUB SLT ISZERO PUSH2 0xCB9 JUMPI PUSH0 DUP1 REVERT JUMPDEST PUSH1 0x40 MLOAD PUSH1 0x40 DUP2 ADD DUP2 DUP2 LT PUSH8 0xFFFFFFFFFFFFFFFF DUP3 GT OR ISZERO PUSH2 0xCDC JUMPI PUSH2 0xCDC PUSH2 0xB26 JUMP JUMPDEST PUSH1 0x40 MSTORE SWAP1 POP DUP1 DUP3 CALLDATALOAD PUSH2 0xCED DUP2 PUSH2 0xC31 JUMP JUMPDEST DUP2 MSTORE PUSH1 0x20 DUP4 ADD CALLDATALOAD PUSH2 0xCFD DUP2 PUSH2 0xC31 JUMP JUMPDEST PUSH1 0x20 SWAP2 SWAP1 SWAP2 ADD MSTORE SWAP3 SWAP2 POP POP JUMP JUMPDEST PUSH0 PUSH8 0xFFFFFFFFFFFFFFFF DUP3 GT ISZERO PUSH2 0xD23 JUMPI PUSH2 0xD23 PUSH2 0xB26 JUMP JUMPDEST POP PUSH1 0x1F ADD PUSH1 0x1F NOT AND PUSH1 0x20 ADD SWAP1 JUMP JUMPDEST PUSH0 DUP3 PUSH1 0x1F DUP4 ADD SLT PUSH2 0xD40 JUMPI PUSH0 DUP1 REVERT JUMPDEST DUP2 CALLDATALOAD PUSH2 0xD53 PUSH2 0xD4E DUP3 PUSH2 0xD0A JUMP JUMPDEST PUSH2 0xB63 JUMP JUMPDEST DUP2 DUP2 MSTORE DUP5 PUSH1 0x20 DUP4 DUP7 ADD ADD GT ISZERO PUSH2 0xD67 JUMPI PUSH0 DUP1 REVERT JUMPDEST DUP2 PUSH1 0x20 DUP6 ADD PUSH1 0x20 DUP4 ADD CALLDATACOPY PUSH0 SWAP2 DUP2 ADD PUSH1 0x20 ADD SWAP2 SWAP1 SWAP2 MSTORE SWAP4 SWAP3 POP POP POP JUMP JUMPDEST PUSH0 DUP1 PUSH0 DUP1 PUSH2 0x160 DUP6 DUP8 SUB SLT ISZERO PUSH2 0xD97 JUMPI PUSH0 DUP1 REVERT JUMPDEST PUSH2 0xDA1 DUP7 DUP7 PUSH2 0xBAB JUMP JUMPDEST SWAP4 POP PUSH2 0xDB0 DUP7 PUSH1 0xA0 DUP8 ADD PUSH2 0xC3E JUMP JUMPDEST SWAP3 POP PUSH2 0xDC0 DUP7 PUSH2 0x100 DUP8 ADD PUSH2 0xCA9 JUMP JUMPDEST SWAP2 POP PUSH2 0x140 DUP6 ADD CALLDATALOAD PUSH8 0xFFFFFFFFFFFFFFFF DUP2 GT ISZERO PUSH2 0xDDC JUMPI PUSH0 DUP1 REVERT JUMPDEST PUSH2 0xDE8 DUP8 DUP3 DUP9 ADD PUSH2 0xD31 JUMP JUMPDEST SWAP2 POP POP SWAP3 SWAP6 SWAP2 SWAP5 POP SWAP3 POP JUMP JUMPDEST PUSH0 DUP1 PUSH1 0x20 DUP4 DUP6 SUB SLT ISZERO PUSH2 0xE05 JUMPI PUSH0 DUP1 REVERT JUMPDEST DUP3 CALLDATALOAD PUSH8 0xFFFFFFFFFFFFFFFF DUP1 DUP3 GT ISZERO PUSH2 0xE1C JUMPI PUSH0 DUP1 REVERT JUMPDEST DUP2 DUP6 ADD SWAP2 POP DUP6 PUSH1 0x1F DUP4 ADD SLT PUSH2 0xE2F JUMPI PUSH0 DUP1 REVERT JUMPDEST DUP2 CALLDATALOAD DUP2 DUP2 GT ISZERO PUSH2 0xE3D JUMPI PUSH0 DUP1 REVERT JUMPDEST DUP7 PUSH1 0x20 DUP3 DUP6 ADD ADD GT ISZERO PUSH2 0xE4E JUMPI PUSH0 DUP1 REVERT JUMPDEST PUSH1 0x20 SWAP3 SWAP1 SWAP3 ADD SWAP7 SWAP2 SWAP6 POP SWAP1 SWAP4 POP POP POP POP JUMP JUMPDEST PUSH0 JUMPDEST DUP4 DUP2 LT ISZERO PUSH2 0xE7A JUMPI DUP2 DUP2 ADD MLOAD DUP4 DUP3 ADD MSTORE PUSH1 0x20 ADD PUSH2 0xE62 JUMP JUMPDEST POP POP PUSH0 SWAP2 ADD MSTORE JUMP JUMPDEST PUSH0 DUP2 MLOAD DUP1 DUP5 MSTORE PUSH2 0xE99 DUP2 PUSH1 0x20 DUP7 ADD PUSH1 0x20 DUP7 ADD PUSH2 0xE60 JUMP JUMPDEST PUSH1 0x1F ADD PUSH1 0x1F NOT AND SWAP3 SWAP1 SWAP3 ADD PUSH1 0x20 ADD SWAP3 SWAP2 POP POP JUMP JUMPDEST PUSH1 0x20 DUP2 MSTORE PUSH0 PUSH2 0xEBF PUSH1 0x20 DUP4 ADD DUP5 PUSH2 0xE82 JUMP JUMPDEST SWAP4 SWAP3 POP POP POP JUMP JUMPDEST DUP1 MLOAD PUSH1 0x1 PUSH1 0x1 PUSH1 0xA0 SHL SUB SWAP1 DUP2 AND DUP4 MSTORE PUSH1 0x20 DUP1 DUP4 ADD MLOAD DUP3 AND SWAP1 DUP5 ADD MSTORE PUSH1 0x40 DUP1 DUP4 ADD MLOAD PUSH3 0xFFFFFF AND SWAP1 DUP5 ADD MSTORE PUSH1 0x60 DUP1 DUP4 ADD MLOAD PUSH1 0x2 SIGNEXTEND SWAP1 DUP5 ADD MSTORE PUSH1 0x80 SWAP2 DUP3 ADD MLOAD AND SWAP2 ADD MSTORE JUMP JUMPDEST PUSH1 0x20 DUP1 DUP3 MSTORE DUP3 MLOAD PUSH1 0x1 PUSH1 0x1 PUSH1 0xA0 SHL SUB AND DUP3 DUP3 ADD MSTORE DUP3 DUP2 ADD MLOAD DUP1 MLOAD ISZERO ISZERO PUSH1 0x40 DUP1 DUP6 ADD SWAP2 SWAP1 SWAP2 MSTORE SWAP2 ADD MLOAD ISZERO ISZERO PUSH1 0x60 DUP4 ADD MSTORE DUP3 ADD MLOAD PUSH0 SWAP1 PUSH2 0xF4A PUSH1 0x80 DUP5 ADD DUP3 PUSH2 0xEC6 JUMP JUMPDEST POP PUSH1 0x60 DUP4 ADD MLOAD DUP1 MLOAD ISZERO ISZERO PUSH2 0x120 DUP5 ADD MSTORE PUSH1 0x20 DUP2 ADD MLOAD PUSH2 0x140 DUP5 ADD MSTORE PUSH1 0x40 ADD MLOAD PUSH1 0x1 PUSH1 0x1 PUSH1 0xA0 SHL SUB AND PUSH2 0x160 DUP4 ADD MSTORE PUSH1 0x80 DUP4 ADD MLOAD PUSH2 0x180 DUP1 DUP5 ADD MSTORE PUSH2 0xF92 PUSH2 0x1A0 DUP5 ADD DUP3 PUSH2 0xE82 JUMP JUMPDEST SWAP5 SWAP4 POP POP POP POP JUMP JUMPDEST PUSH0 PUSH1 0x20 DUP3 DUP5 SUB SLT ISZERO PUSH2 0xFAA JUMPI PUSH0 DUP1 REVERT JUMPDEST DUP2 MLOAD PUSH8 0xFFFFFFFFFFFFFFFF DUP2 GT ISZERO PUSH2 0xFC0 JUMPI PUSH0 DUP1 REVERT JUMPDEST DUP3 ADD PUSH1 0x1F DUP2 ADD DUP5 SGT PUSH2 0xFD0 JUMPI PUSH0 DUP1 REVERT JUMPDEST DUP1 MLOAD PUSH2 0xFDE PUSH2 0xD4E DUP3 PUSH2 0xD0A JUMP JUMPDEST DUP2 DUP2 MSTORE DUP6 PUSH1 0x20 DUP4 DUP6 ADD ADD GT ISZERO PUSH2 0xFF2 JUMPI PUSH0 DUP1 REVERT JUMPDEST PUSH2 0x1003 DUP3 PUSH1 0x20 DUP4 ADD PUSH1 0x20 DUP7 ADD PUSH2 0xE60 JUMP JUMPDEST SWAP6 SWAP5 POP POP POP POP POP JUMP JUMPDEST PUSH0 PUSH1 0x20 DUP3 DUP5 SUB SLT ISZERO PUSH2 0x101C JUMPI PUSH0 DUP1 REVERT JUMPDEST POP MLOAD SWAP2 SWAP1 POP JUMP JUMPDEST PUSH0 PUSH1 0x20 DUP3 DUP5 SUB SLT ISZERO PUSH2 0x1033 JUMPI PUSH0 DUP1 REVERT JUMPDEST DUP2 CALLDATALOAD PUSH8 0xFFFFFFFFFFFFFFFF DUP1 DUP3 GT ISZERO PUSH2 0x104A JUMPI PUSH0 DUP1 REVERT JUMPDEST SWAP1 DUP4 ADD SWAP1 PUSH2 0x180 DUP3 DUP7 SUB SLT ISZERO PUSH2 0x105E JUMPI PUSH0 DUP1 REVERT JUMPDEST PUSH2 0x1066 PUSH2 0xB3A JUMP JUMPDEST DUP3 CALLDATALOAD PUSH2 0x1071 DUP2 PUSH2 0xB94 JUMP JUMPDEST DUP2 MSTORE PUSH2 0x1080 DUP7 PUSH1 0x20 DUP6 ADD PUSH2 0xCA9 JUMP JUMPDEST PUSH1 0x20 DUP3 ADD MSTORE PUSH2 0x1092 DUP7 PUSH1 0x60 DUP6 ADD PUSH2 0xBAB JUMP JUMPDEST PUSH1 0x40 DUP3 ADD MSTORE PUSH2 0x10A5 DUP7 PUSH2 0x100 DUP6 ADD PUSH2 0xC3E JUMP JUMPDEST PUSH1 0x60 DUP3 ADD MSTORE PUSH2 0x160 DUP4 ADD CALLDATALOAD DUP3 DUP2 GT ISZERO PUSH2 0x10BC JUMPI PUSH0 DUP1 REVERT JUMPDEST PUSH2 0x10C8 DUP8 DUP3 DUP7 ADD PUSH2 0xD31 JUMP JUMPDEST PUSH1 0x80 DUP4 ADD MSTORE POP SWAP6 SWAP5 POP POP POP POP POP JUMP JUMPDEST PUSH0 PUSH2 0x120 PUSH2 0x10E5 DUP4 DUP8 PUSH2 0xEC6 JUMP JUMPDEST DUP5 MLOAD ISZERO ISZERO PUSH1 0xA0 DUP5 ADD MSTORE PUSH1 0x20 DUP6 ADD MLOAD PUSH1 0xC0 DUP5 ADD MSTORE PUSH1 0x40 DUP6 ADD MLOAD PUSH1 0x1 PUSH1 0x1 PUSH1 0xA0 SHL SUB AND PUSH1 0xE0 DUP5 ADD MSTORE DUP1 PUSH2 0x100 DUP5 ADD MSTORE PUSH2 0x111E DUP2 DUP5 ADD DUP6 PUSH2 0xE82 JUMP JUMPDEST SWAP7 SWAP6 POP POP POP POP POP POP JUMP JUMPDEST PUSH1 0x1 PUSH1 0x1 PUSH1 0xA0 SHL SUB SWAP4 DUP5 AND DUP2 MSTORE SWAP2 SWAP1 SWAP3 AND PUSH1 0x20 DUP3 ADD MSTORE PUSH1 0x1 PUSH1 0x1 PUSH1 0x80 SHL SUB SWAP1 SWAP2 AND PUSH1 0x40 DUP3 ADD MSTORE PUSH1 0x60 ADD SWAP1 JUMP JUMPDEST PUSH0 PUSH1 0x20 DUP3 DUP5 SUB SLT ISZERO PUSH2 0x1164 JUMPI PUSH0 DUP1 REVERT JUMPDEST DUP2 MLOAD PUSH2 0xEBF DUP2 PUSH2 0xC31 JUMP JUMPDEST PUSH1 0x1 PUSH1 0x1 PUSH1 0xA0 SHL SUB SWAP5 DUP6 AND DUP2 MSTORE SWAP3 SWAP1 SWAP4 AND PUSH1 0x20 DUP4 ADD MSTORE PUSH1 0x40 DUP3 ADD MSTORE PUSH1 0x1 PUSH1 0x1 PUSH1 0x80 SHL SUB SWAP1 SWAP2 AND PUSH1 0x60 DUP3 ADD MSTORE PUSH1 0xA0 PUSH1 0x80 DUP3 ADD DUP2 SWAP1 MSTORE PUSH0 SWAP1 DUP3 ADD MSTORE PUSH1 0xC0 ADD SWAP1 JUMP JUMPDEST PUSH0 DUP2 PUSH1 0xF SIGNEXTEND PUSH16 0x7FFFFFFFFFFFFFFFFFFFFFFFFFFFFFFF NOT DUP2 SUB PUSH2 0x11DF JUMPI PUSH4 0x4E487B71 PUSH1 0xE0 SHL PUSH0 MSTORE PUSH1 0x11 PUSH1 0x4 MSTORE PUSH1 0x24 PUSH0 REVERT JUMPDEST PUSH0 SUB SWAP3 SWAP2 POP POP JUMP INVALID LOG2 PUSH5 0x6970667358 0x22 SLT KECCAK256 SWAP16 0x27 PUSH6 0xE9AD1CFA05A7 EXTCODECOPY PUSH28 0x986587C96386C158EFB91322D9F6657CB379DD1F0464736F6C634300 ADDMOD EQ STOP CALLER LOG2 PUSH5 0x6970667358 0x22 SLT KECCAK256 SWAP2 DUP7 0xED 0xBF CALLDATACOPY 0xE5 0xD7 DUP16 PUSH32 0x4168A1B553903BD835927A1E64FDAF76AF938E348EC2AC64736F6C6343000814 STOP CALLER "
		},
		"gasEstimates": {
			"creation": {
				"codeDepositCost": "4748400",
				"executionCost": "infinite",
				"totalCost": "infinite"
			},
			"external": {
				"afterDonate(address,(address,address,uint24,int24,address),uint256,uint256,bytes)": "780",
				"afterInitialize(address,(address,address,uint24,int24,address),uint160,int24,bytes)": "infinite",
				"afterModifyPosition(address,(address,address,uint24,int24,address),(int24,int24,int256),int256,bytes)": "infinite",
				"afterSwap(address,(address,address,uint24,int24,address),(bool,int256,uint160),int256,bytes)": "infinite",
				"beforeDonate(address,(address,address,uint24,int24,address),uint256,uint256,bytes)": "846",
				"beforeInitialize(address,(address,address,uint24,int24,address),uint160,bytes)": "infinite",
				"beforeModifyPosition(address,(address,address,uint24,int24,address),(int24,int24,int256),bytes)": "infinite",
				"beforeSwap(address,(address,address,uint24,int24,address),(bool,int256,uint160),bytes)": "infinite",
				"cancelOwnershipHandover()": "6404",
				"completeOwnershipHandover(address)": "infinite",
				"depositEth()": "77341",
				"getHooksCalls()": "1001",
				"handleModifyPosition((address,address,uint24,int24,address),(int24,int24,int256),address)": "infinite",
				"handleSwap((address,address,uint24,int24,address),(bool,int256,uint160),address)": "infinite",
				"isFunder(address)": "2557",
				"launch()": "infinite",
				"lockAcquired(bytes)": "infinite",
				"owner()": "2327",
				"ownershipHandoverExpiresAt(address)": "2623",
				"poolManager()": "infinite",
				"quit()": "infinite",
				"renounceOwnership()": "infinite",
				"requestOwnershipHandover()": "23528",
				"tokenAddress()": "2392",
				"transferOwnership(address)": "infinite",
				"unlockTime()": "2361"
			},
			"internal": {
				"_addLiquidityToPool()": "infinite",
				"_initializePool()": "infinite",
				"_mintTokensToFunders()": "infinite"
			}
		},
		"methodIdentifiers": {
			"afterDonate(address,(address,address,uint24,int24,address),uint256,uint256,bytes)": "e1b4af69",
			"afterInitialize(address,(address,address,uint24,int24,address),uint160,int24,bytes)": "a910f80f",
			"afterModifyPosition(address,(address,address,uint24,int24,address),(int24,int24,int256),int256,bytes)": "30b7cdef",
			"afterSwap(address,(address,address,uint24,int24,address),(bool,int256,uint160),int256,bytes)": "b47b2fb1",
			"beforeDonate(address,(address,address,uint24,int24,address),uint256,uint256,bytes)": "b6a8b0fa",
			"beforeInitialize(address,(address,address,uint24,int24,address),uint160,bytes)": "3440d820",
			"beforeModifyPosition(address,(address,address,uint24,int24,address),(int24,int24,int256),bytes)": "fe9a6f45",
			"beforeSwap(address,(address,address,uint24,int24,address),(bool,int256,uint160),bytes)": "575e24b4",
			"cancelOwnershipHandover()": "54d1f13d",
			"completeOwnershipHandover(address)": "f04e283e",
			"depositEth()": "439370b1",
			"getHooksCalls()": "612c39b7",
			"handleModifyPosition((address,address,uint24,int24,address),(int24,int24,int256),address)": "71e16359",
			"handleSwap((address,address,uint24,int24,address),(bool,int256,uint160),address)": "33b50f8a",
			"isFunder(address)": "1ea48870",
			"launch()": "01339c21",
			"lockAcquired(bytes)": "ab6291fe",
			"owner()": "8da5cb5b",
			"ownershipHandoverExpiresAt(address)": "fee81cf4",
			"poolManager()": "dc4c90d3",
			"quit()": "fc2b8cc3",
			"renounceOwnership()": "715018a6",
			"requestOwnershipHandover()": "25692962",
			"tokenAddress()": "9d76ea58",
			"transferOwnership(address)": "f2fde38b",
			"unlockTime()": "251c1aa3"
		}
	},
	"abi": [
		{
			"inputs": [
				{
					"internalType": "contract IPoolManager",
					"name": "_poolManager",
					"type": "address"
				},
				{
					"internalType": "string",
					"name": "_name",
					"type": "string"
				},
				{
					"internalType": "string",
					"name": "_symbol",
					"type": "string"
				},
				{
					"internalType": "uint8",
					"name": "_decimals",
					"type": "uint8"
				}
			],
			"stateMutability": "nonpayable",
			"type": "constructor"
		},
		{
			"inputs": [],
			"name": "AlreadyInitialized",
			"type": "error"
		},
		{
			"inputs": [
				{
					"internalType": "address",
					"name": "hooks",
					"type": "address"
				}
			],
			"name": "HookAddressNotValid",
			"type": "error"
		},
		{
			"inputs": [],
			"name": "HookNotImplemented",
			"type": "error"
		},
		{
			"inputs": [],
			"name": "InvalidPool",
			"type": "error"
		},
		{
			"inputs": [],
			"name": "LockFailure",
			"type": "error"
		},
		{
			"inputs": [],
			"name": "NewOwnerIsZeroAddress",
			"type": "error"
		},
		{
			"inputs": [],
			"name": "NoHandoverRequest",
			"type": "error"
		},
		{
			"inputs": [],
			"name": "NotPoolManager",
			"type": "error"
		},
		{
			"inputs": [],
			"name": "NotSelf",
			"type": "error"
		},
		{
			"inputs": [],
			"name": "Unauthorized",
			"type": "error"
		},
		{
			"anonymous": false,
			"inputs": [
				{
					"indexed": true,
					"internalType": "address",
					"name": "pendingOwner",
					"type": "address"
				}
			],
			"name": "OwnershipHandoverCanceled",
			"type": "event"
		},
		{
			"anonymous": false,
			"inputs": [
				{
					"indexed": true,
					"internalType": "address",
					"name": "pendingOwner",
					"type": "address"
				}
			],
			"name": "OwnershipHandoverRequested",
			"type": "event"
		},
		{
			"anonymous": false,
			"inputs": [
				{
					"indexed": true,
					"internalType": "address",
					"name": "oldOwner",
					"type": "address"
				},
				{
					"indexed": true,
					"internalType": "address",
					"name": "newOwner",
					"type": "address"
				}
			],
			"name": "OwnershipTransferred",
			"type": "event"
		},
		{
			"inputs": [
				{
					"internalType": "address",
					"name": "",
					"type": "address"
				},
				{
					"components": [
						{
							"internalType": "Currency",
							"name": "currency0",
							"type": "address"
						},
						{
							"internalType": "Currency",
							"name": "currency1",
							"type": "address"
						},
						{
							"internalType": "uint24",
							"name": "fee",
							"type": "uint24"
						},
						{
							"internalType": "int24",
							"name": "tickSpacing",
							"type": "int24"
						},
						{
							"internalType": "contract IHooks",
							"name": "hooks",
							"type": "address"
						}
					],
					"internalType": "struct PoolKey",
					"name": "",
					"type": "tuple"
				},
				{
					"internalType": "uint256",
					"name": "",
					"type": "uint256"
				},
				{
					"internalType": "uint256",
					"name": "",
					"type": "uint256"
				},
				{
					"internalType": "bytes",
					"name": "",
					"type": "bytes"
				}
			],
			"name": "afterDonate",
			"outputs": [
				{
					"internalType": "bytes4",
					"name": "",
					"type": "bytes4"
				}
			],
			"stateMutability": "nonpayable",
			"type": "function"
		},
		{
			"inputs": [
				{
					"internalType": "address",
					"name": "",
					"type": "address"
				},
				{
					"components": [
						{
							"internalType": "Currency",
							"name": "currency0",
							"type": "address"
						},
						{
							"internalType": "Currency",
							"name": "currency1",
							"type": "address"
						},
						{
							"internalType": "uint24",
							"name": "fee",
							"type": "uint24"
						},
						{
							"internalType": "int24",
							"name": "tickSpacing",
							"type": "int24"
						},
						{
							"internalType": "contract IHooks",
							"name": "hooks",
							"type": "address"
						}
					],
					"internalType": "struct PoolKey",
					"name": "",
					"type": "tuple"
				},
				{
					"internalType": "uint160",
					"name": "",
					"type": "uint160"
				},
				{
					"internalType": "int24",
					"name": "",
					"type": "int24"
				},
				{
					"internalType": "bytes",
					"name": "",
					"type": "bytes"
				}
			],
			"name": "afterInitialize",
			"outputs": [
				{
					"internalType": "bytes4",
					"name": "",
					"type": "bytes4"
				}
			],
			"stateMutability": "nonpayable",
			"type": "function"
		},
		{
			"inputs": [
				{
					"internalType": "address",
					"name": "",
					"type": "address"
				},
				{
					"components": [
						{
							"internalType": "Currency",
							"name": "currency0",
							"type": "address"
						},
						{
							"internalType": "Currency",
							"name": "currency1",
							"type": "address"
						},
						{
							"internalType": "uint24",
							"name": "fee",
							"type": "uint24"
						},
						{
							"internalType": "int24",
							"name": "tickSpacing",
							"type": "int24"
						},
						{
							"internalType": "contract IHooks",
							"name": "hooks",
							"type": "address"
						}
					],
					"internalType": "struct PoolKey",
					"name": "",
					"type": "tuple"
				},
				{
					"components": [
						{
							"internalType": "int24",
							"name": "tickLower",
							"type": "int24"
						},
						{
							"internalType": "int24",
							"name": "tickUpper",
							"type": "int24"
						},
						{
							"internalType": "int256",
							"name": "liquidityDelta",
							"type": "int256"
						}
					],
					"internalType": "struct IPoolManager.ModifyPositionParams",
					"name": "",
					"type": "tuple"
				},
				{
					"internalType": "BalanceDelta",
					"name": "",
					"type": "int256"
				},
				{
					"internalType": "bytes",
					"name": "",
					"type": "bytes"
				}
			],
			"name": "afterModifyPosition",
			"outputs": [
				{
					"internalType": "bytes4",
					"name": "",
					"type": "bytes4"
				}
			],
			"stateMutability": "nonpayable",
			"type": "function"
		},
		{
			"inputs": [
				{
					"internalType": "address",
					"name": "",
					"type": "address"
				},
				{
					"components": [
						{
							"internalType": "Currency",
							"name": "currency0",
							"type": "address"
						},
						{
							"internalType": "Currency",
							"name": "currency1",
							"type": "address"
						},
						{
							"internalType": "uint24",
							"name": "fee",
							"type": "uint24"
						},
						{
							"internalType": "int24",
							"name": "tickSpacing",
							"type": "int24"
						},
						{
							"internalType": "contract IHooks",
							"name": "hooks",
							"type": "address"
						}
					],
					"internalType": "struct PoolKey",
					"name": "",
					"type": "tuple"
				},
				{
					"components": [
						{
							"internalType": "bool",
							"name": "zeroForOne",
							"type": "bool"
						},
						{
							"internalType": "int256",
							"name": "amountSpecified",
							"type": "int256"
						},
						{
							"internalType": "uint160",
							"name": "sqrtPriceLimitX96",
							"type": "uint160"
						}
					],
					"internalType": "struct IPoolManager.SwapParams",
					"name": "",
					"type": "tuple"
				},
				{
					"internalType": "BalanceDelta",
					"name": "",
					"type": "int256"
				},
				{
					"internalType": "bytes",
					"name": "",
					"type": "bytes"
				}
			],
			"name": "afterSwap",
			"outputs": [
				{
					"internalType": "bytes4",
					"name": "",
					"type": "bytes4"
				}
			],
			"stateMutability": "nonpayable",
			"type": "function"
		},
		{
			"inputs": [
				{
					"internalType": "address",
					"name": "",
					"type": "address"
				},
				{
					"components": [
						{
							"internalType": "Currency",
							"name": "currency0",
							"type": "address"
						},
						{
							"internalType": "Currency",
							"name": "currency1",
							"type": "address"
						},
						{
							"internalType": "uint24",
							"name": "fee",
							"type": "uint24"
						},
						{
							"internalType": "int24",
							"name": "tickSpacing",
							"type": "int24"
						},
						{
							"internalType": "contract IHooks",
							"name": "hooks",
							"type": "address"
						}
					],
					"internalType": "struct PoolKey",
					"name": "",
					"type": "tuple"
				},
				{
					"internalType": "uint256",
					"name": "",
					"type": "uint256"
				},
				{
					"internalType": "uint256",
					"name": "",
					"type": "uint256"
				},
				{
					"internalType": "bytes",
					"name": "",
					"type": "bytes"
				}
			],
			"name": "beforeDonate",
			"outputs": [
				{
					"internalType": "bytes4",
					"name": "",
					"type": "bytes4"
				}
			],
			"stateMutability": "nonpayable",
			"type": "function"
		},
		{
			"inputs": [
				{
					"internalType": "address",
					"name": "",
					"type": "address"
				},
				{
					"components": [
						{
							"internalType": "Currency",
							"name": "currency0",
							"type": "address"
						},
						{
							"internalType": "Currency",
							"name": "currency1",
							"type": "address"
						},
						{
							"internalType": "uint24",
							"name": "fee",
							"type": "uint24"
						},
						{
							"internalType": "int24",
							"name": "tickSpacing",
							"type": "int24"
						},
						{
							"internalType": "contract IHooks",
							"name": "hooks",
							"type": "address"
						}
					],
					"internalType": "struct PoolKey",
					"name": "",
					"type": "tuple"
				},
				{
					"internalType": "uint160",
					"name": "",
					"type": "uint160"
				},
				{
					"internalType": "bytes",
					"name": "",
					"type": "bytes"
				}
			],
			"name": "beforeInitialize",
			"outputs": [
				{
					"internalType": "bytes4",
					"name": "",
					"type": "bytes4"
				}
			],
			"stateMutability": "nonpayable",
			"type": "function"
		},
		{
			"inputs": [
				{
					"internalType": "address",
					"name": "",
					"type": "address"
				},
				{
					"components": [
						{
							"internalType": "Currency",
							"name": "currency0",
							"type": "address"
						},
						{
							"internalType": "Currency",
							"name": "currency1",
							"type": "address"
						},
						{
							"internalType": "uint24",
							"name": "fee",
							"type": "uint24"
						},
						{
							"internalType": "int24",
							"name": "tickSpacing",
							"type": "int24"
						},
						{
							"internalType": "contract IHooks",
							"name": "hooks",
							"type": "address"
						}
					],
					"internalType": "struct PoolKey",
					"name": "",
					"type": "tuple"
				},
				{
					"components": [
						{
							"internalType": "int24",
							"name": "tickLower",
							"type": "int24"
						},
						{
							"internalType": "int24",
							"name": "tickUpper",
							"type": "int24"
						},
						{
							"internalType": "int256",
							"name": "liquidityDelta",
							"type": "int256"
						}
					],
					"internalType": "struct IPoolManager.ModifyPositionParams",
					"name": "",
					"type": "tuple"
				},
				{
					"internalType": "bytes",
					"name": "",
					"type": "bytes"
				}
			],
			"name": "beforeModifyPosition",
			"outputs": [
				{
					"internalType": "bytes4",
					"name": "",
					"type": "bytes4"
				}
			],
			"stateMutability": "view",
			"type": "function"
		},
		{
			"inputs": [
				{
					"internalType": "address",
					"name": "",
					"type": "address"
				},
				{
					"components": [
						{
							"internalType": "Currency",
							"name": "currency0",
							"type": "address"
						},
						{
							"internalType": "Currency",
							"name": "currency1",
							"type": "address"
						},
						{
							"internalType": "uint24",
							"name": "fee",
							"type": "uint24"
						},
						{
							"internalType": "int24",
							"name": "tickSpacing",
							"type": "int24"
						},
						{
							"internalType": "contract IHooks",
							"name": "hooks",
							"type": "address"
						}
					],
					"internalType": "struct PoolKey",
					"name": "",
					"type": "tuple"
				},
				{
					"components": [
						{
							"internalType": "bool",
							"name": "zeroForOne",
							"type": "bool"
						},
						{
							"internalType": "int256",
							"name": "amountSpecified",
							"type": "int256"
						},
						{
							"internalType": "uint160",
							"name": "sqrtPriceLimitX96",
							"type": "uint160"
						}
					],
					"internalType": "struct IPoolManager.SwapParams",
					"name": "",
					"type": "tuple"
				},
				{
					"internalType": "bytes",
					"name": "",
					"type": "bytes"
				}
			],
			"name": "beforeSwap",
			"outputs": [
				{
					"internalType": "bytes4",
					"name": "",
					"type": "bytes4"
				}
			],
			"stateMutability": "view",
			"type": "function"
		},
		{
			"inputs": [],
			"name": "cancelOwnershipHandover",
			"outputs": [],
			"stateMutability": "payable",
			"type": "function"
		},
		{
			"inputs": [
				{
					"internalType": "address",
					"name": "pendingOwner",
					"type": "address"
				}
			],
			"name": "completeOwnershipHandover",
			"outputs": [],
			"stateMutability": "payable",
			"type": "function"
		},
		{
			"inputs": [],
			"name": "depositEth",
			"outputs": [],
			"stateMutability": "payable",
			"type": "function"
		},
		{
			"inputs": [],
			"name": "getHooksCalls",
			"outputs": [
				{
					"components": [
						{
							"internalType": "bool",
							"name": "beforeInitialize",
							"type": "bool"
						},
						{
							"internalType": "bool",
							"name": "afterInitialize",
							"type": "bool"
						},
						{
							"internalType": "bool",
							"name": "beforeModifyPosition",
							"type": "bool"
						},
						{
							"internalType": "bool",
							"name": "afterModifyPosition",
							"type": "bool"
						},
						{
							"internalType": "bool",
							"name": "beforeSwap",
							"type": "bool"
						},
						{
							"internalType": "bool",
							"name": "afterSwap",
							"type": "bool"
						},
						{
							"internalType": "bool",
							"name": "beforeDonate",
							"type": "bool"
						},
						{
							"internalType": "bool",
							"name": "afterDonate",
							"type": "bool"
						}
					],
					"internalType": "struct Hooks.Calls",
					"name": "",
					"type": "tuple"
				}
			],
			"stateMutability": "pure",
			"type": "function"
		},
		{
			"inputs": [
				{
					"components": [
						{
							"internalType": "Currency",
							"name": "currency0",
							"type": "address"
						},
						{
							"internalType": "Currency",
							"name": "currency1",
							"type": "address"
						},
						{
							"internalType": "uint24",
							"name": "fee",
							"type": "uint24"
						},
						{
							"internalType": "int24",
							"name": "tickSpacing",
							"type": "int24"
						},
						{
							"internalType": "contract IHooks",
							"name": "hooks",
							"type": "address"
						}
					],
					"internalType": "struct PoolKey",
					"name": "key",
					"type": "tuple"
				},
				{
					"components": [
						{
							"internalType": "int24",
							"name": "tickLower",
							"type": "int24"
						},
						{
							"internalType": "int24",
							"name": "tickUpper",
							"type": "int24"
						},
						{
							"internalType": "int256",
							"name": "liquidityDelta",
							"type": "int256"
						}
					],
					"internalType": "struct IPoolManager.ModifyPositionParams",
					"name": "params",
					"type": "tuple"
				},
				{
					"internalType": "address",
					"name": "caller",
					"type": "address"
				}
			],
			"name": "handleModifyPosition",
			"outputs": [
				{
					"internalType": "BalanceDelta",
					"name": "delta",
					"type": "int256"
				}
			],
			"stateMutability": "nonpayable",
			"type": "function"
		},
		{
			"inputs": [
				{
					"components": [
						{
							"internalType": "Currency",
							"name": "currency0",
							"type": "address"
						},
						{
							"internalType": "Currency",
							"name": "currency1",
							"type": "address"
						},
						{
							"internalType": "uint24",
							"name": "fee",
							"type": "uint24"
						},
						{
							"internalType": "int24",
							"name": "tickSpacing",
							"type": "int24"
						},
						{
							"internalType": "contract IHooks",
							"name": "hooks",
							"type": "address"
						}
					],
					"internalType": "struct PoolKey",
					"name": "key",
					"type": "tuple"
				},
				{
					"components": [
						{
							"internalType": "bool",
							"name": "zeroForOne",
							"type": "bool"
						},
						{
							"internalType": "int256",
							"name": "amountSpecified",
							"type": "int256"
						},
						{
							"internalType": "uint160",
							"name": "sqrtPriceLimitX96",
							"type": "uint160"
						}
					],
					"internalType": "struct IPoolManager.SwapParams",
					"name": "params",
					"type": "tuple"
				},
				{
					"internalType": "address",
					"name": "sender",
					"type": "address"
				}
			],
			"name": "handleSwap",
			"outputs": [
				{
					"internalType": "BalanceDelta",
					"name": "delta",
					"type": "int256"
				}
			],
			"stateMutability": "nonpayable",
			"type": "function"
		},
		{
			"inputs": [
				{
					"internalType": "address",
					"name": "",
					"type": "address"
				}
			],
			"name": "isFunder",
			"outputs": [
				{
					"internalType": "bool",
					"name": "",
					"type": "bool"
				}
			],
			"stateMutability": "view",
			"type": "function"
		},
		{
			"inputs": [],
			"name": "launch",
			"outputs": [],
			"stateMutability": "nonpayable",
			"type": "function"
		},
		{
			"inputs": [
				{
					"internalType": "bytes",
					"name": "data",
					"type": "bytes"
				}
			],
			"name": "lockAcquired",
			"outputs": [
				{
					"internalType": "bytes",
					"name": "",
					"type": "bytes"
				}
			],
			"stateMutability": "nonpayable",
			"type": "function"
		},
		{
			"inputs": [],
			"name": "owner",
			"outputs": [
				{
					"internalType": "address",
					"name": "result",
					"type": "address"
				}
			],
			"stateMutability": "view",
			"type": "function"
		},
		{
			"inputs": [
				{
					"internalType": "address",
					"name": "pendingOwner",
					"type": "address"
				}
			],
			"name": "ownershipHandoverExpiresAt",
			"outputs": [
				{
					"internalType": "uint256",
					"name": "result",
					"type": "uint256"
				}
			],
			"stateMutability": "view",
			"type": "function"
		},
		{
			"inputs": [],
			"name": "poolManager",
			"outputs": [
				{
					"internalType": "contract IPoolManager",
					"name": "",
					"type": "address"
				}
			],
			"stateMutability": "view",
			"type": "function"
		},
		{
			"inputs": [],
			"name": "quit",
			"outputs": [],
			"stateMutability": "nonpayable",
			"type": "function"
		},
		{
			"inputs": [],
			"name": "renounceOwnership",
			"outputs": [],
			"stateMutability": "payable",
			"type": "function"
		},
		{
			"inputs": [],
			"name": "requestOwnershipHandover",
			"outputs": [],
			"stateMutability": "payable",
			"type": "function"
		},
		{
			"inputs": [],
			"name": "tokenAddress",
			"outputs": [
				{
					"internalType": "address",
					"name": "",
					"type": "address"
				}
			],
			"stateMutability": "view",
			"type": "function"
		},
		{
			"inputs": [
				{
					"internalType": "address",
					"name": "newOwner",
					"type": "address"
				}
			],
			"name": "transferOwnership",
			"outputs": [],
			"stateMutability": "payable",
			"type": "function"
		},
		{
			"inputs": [],
			"name": "unlockTime",
			"outputs": [
				{
					"internalType": "uint256",
					"name": "",
					"type": "uint256"
				}
			],
			"stateMutability": "view",
			"type": "function"
		},
		{
			"stateMutability": "payable",
			"type": "receive"
		}
	]
}